{
  "contractName": "Daobuilder",
  "abi": [
    {
      "anonymous": false,
      "inputs": [
        {
          "indexed": true,
          "internalType": "address",
          "name": "admin",
          "type": "address"
        }
      ],
      "name": "AdminRemoved",
      "type": "event"
    },
    {
      "anonymous": false,
      "inputs": [
        {
          "indexed": true,
          "internalType": "address",
          "name": "admin",
          "type": "address"
        }
      ],
      "name": "NewAdminAdded",
      "type": "event"
    },
    {
      "anonymous": false,
      "inputs": [
        {
          "indexed": true,
          "internalType": "address",
          "name": "previousOwner",
          "type": "address"
        },
        {
          "indexed": true,
          "internalType": "address",
          "name": "newOwner",
          "type": "address"
        }
      ],
      "name": "OwnershipTransferred",
      "type": "event"
    },
    {
      "anonymous": false,
      "inputs": [
        {
          "indexed": true,
          "internalType": "address",
          "name": "voter",
          "type": "address"
        }
      ],
      "name": "VoterAdded",
      "type": "event"
    },
    {
      "anonymous": false,
      "inputs": [
        {
          "indexed": true,
          "internalType": "address",
          "name": "voter",
          "type": "address"
        }
      ],
      "name": "VoterDisabled",
      "type": "event"
    },
    {
      "anonymous": false,
      "inputs": [
        {
          "indexed": true,
          "internalType": "address",
          "name": "voter",
          "type": "address"
        }
      ],
      "name": "VoterEnabled",
      "type": "event"
    },
    {
      "anonymous": false,
      "inputs": [
        {
          "indexed": true,
          "internalType": "address",
          "name": "voter",
          "type": "address"
        }
      ],
      "name": "VoterPowerDecreased",
      "type": "event"
    },
    {
      "anonymous": false,
      "inputs": [
        {
          "indexed": true,
          "internalType": "address",
          "name": "voter",
          "type": "address"
        }
      ],
      "name": "VoterPowerIncreased",
      "type": "event"
    },
    {
      "anonymous": false,
      "inputs": [
        {
          "indexed": true,
          "internalType": "address",
          "name": "voter",
          "type": "address"
        }
      ],
      "name": "VoterRemoved",
      "type": "event"
    },
    {
      "anonymous": false,
      "inputs": [
        {
          "indexed": true,
          "internalType": "uint256",
          "name": "votingIndex",
          "type": "uint256"
        },
        {
          "indexed": false,
          "internalType": "string",
          "name": "msg",
          "type": "string"
        }
      ],
      "name": "VotingDataChanged",
      "type": "event"
    },
    {
      "anonymous": false,
      "inputs": [
        {
          "indexed": true,
          "internalType": "uint256",
          "name": "votingIndex",
          "type": "uint256"
        },
        {
          "indexed": false,
          "internalType": "string",
          "name": "option",
          "type": "string"
        },
        {
          "indexed": false,
          "internalType": "string",
          "name": "msg",
          "type": "string"
        }
      ],
      "name": "VotingOptionChanged",
      "type": "event"
    },
    {
      "anonymous": false,
      "inputs": [
        {
          "indexed": true,
          "internalType": "uint256",
          "name": "votingIndex",
          "type": "uint256"
        },
        {
          "indexed": true,
          "internalType": "address",
          "name": "delegater",
          "type": "address"
        },
        {
          "indexed": true,
          "internalType": "address",
          "name": "delegatee",
          "type": "address"
        }
      ],
      "name": "VotingRightDelegated",
      "type": "event"
    },
    {
      "anonymous": false,
      "inputs": [
        {
          "indexed": true,
          "internalType": "uint256",
          "name": "votingIndex",
          "type": "uint256"
        },
        {
          "indexed": true,
          "internalType": "address",
          "name": "delegater",
          "type": "address"
        },
        {
          "indexed": true,
          "internalType": "address",
          "name": "delegatee",
          "type": "address"
        }
      ],
      "name": "VotingRightUnDelegated",
      "type": "event"
    },
    {
      "inputs": [
        {
          "internalType": "address",
          "name": "_voter",
          "type": "address"
        }
      ],
      "name": "addVoter",
      "outputs": [],
      "stateMutability": "nonpayable",
      "type": "function"
    },
    {
      "inputs": [
        {
          "internalType": "uint256",
          "name": "_start",
          "type": "uint256"
        },
        {
          "internalType": "uint256",
          "name": "_end",
          "type": "uint256"
        },
        {
          "internalType": "string",
          "name": "_title",
          "type": "string"
        },
        {
          "internalType": "string",
          "name": "_description",
          "type": "string"
        }
      ],
      "name": "addVoting",
      "outputs": [
        {
          "internalType": "uint256",
          "name": "",
          "type": "uint256"
        }
      ],
      "stateMutability": "nonpayable",
      "type": "function"
    },
    {
      "inputs": [
        {
          "internalType": "address",
          "name": "_newadmin",
          "type": "address"
        }
      ],
      "name": "addVotingAdmin",
      "outputs": [],
      "stateMutability": "nonpayable",
      "type": "function"
    },
    {
      "inputs": [
        {
          "internalType": "uint256",
          "name": "_votingId",
          "type": "uint256"
        },
        {
          "internalType": "string",
          "name": "option",
          "type": "string"
        }
      ],
      "name": "addVotingOption",
      "outputs": [],
      "stateMutability": "nonpayable",
      "type": "function"
    },
    {
      "inputs": [
        {
          "internalType": "uint256",
          "name": "_votingId",
          "type": "uint256"
        },
        {
          "internalType": "string",
          "name": "_description",
          "type": "string"
        }
      ],
      "name": "changeVotingDescription",
      "outputs": [],
      "stateMutability": "nonpayable",
      "type": "function"
    },
    {
      "inputs": [
        {
          "internalType": "uint256",
          "name": "_votingId",
          "type": "uint256"
        },
        {
          "internalType": "uint256",
          "name": "_enddate",
          "type": "uint256"
        }
      ],
      "name": "changeVotingEndDate",
      "outputs": [],
      "stateMutability": "nonpayable",
      "type": "function"
    },
    {
      "inputs": [
        {
          "internalType": "uint256",
          "name": "_votingId",
          "type": "uint256"
        },
        {
          "internalType": "uint256",
          "name": "_startdate",
          "type": "uint256"
        }
      ],
      "name": "changeVotingStartDate",
      "outputs": [],
      "stateMutability": "nonpayable",
      "type": "function"
    },
    {
      "inputs": [
        {
          "internalType": "uint256",
          "name": "_votingId",
          "type": "uint256"
        },
        {
          "internalType": "string",
          "name": "_title",
          "type": "string"
        }
      ],
      "name": "changeVotingTitle",
      "outputs": [],
      "stateMutability": "nonpayable",
      "type": "function"
    },
    {
      "inputs": [
        {
          "internalType": "address",
          "name": "_voter",
          "type": "address"
        }
      ],
      "name": "decreaseVoterPower",
      "outputs": [],
      "stateMutability": "nonpayable",
      "type": "function"
    },
    {
      "inputs": [
        {
          "internalType": "address",
          "name": "_voter",
          "type": "address"
        }
      ],
      "name": "disableVoter",
      "outputs": [],
      "stateMutability": "nonpayable",
      "type": "function"
    },
    {
      "inputs": [
        {
          "internalType": "address",
          "name": "_voter",
          "type": "address"
        }
      ],
      "name": "enableVoter",
      "outputs": [],
      "stateMutability": "nonpayable",
      "type": "function"
    },
    {
      "inputs": [
        {
          "internalType": "address",
          "name": "_voter",
          "type": "address"
        }
      ],
      "name": "increaseVoterPower",
      "outputs": [],
      "stateMutability": "nonpayable",
      "type": "function"
    },
    {
      "inputs": [],
      "name": "isOwner",
      "outputs": [
        {
          "internalType": "bool",
          "name": "",
          "type": "bool"
        }
      ],
      "stateMutability": "view",
      "type": "function",
      "constant": true
    },
    {
      "inputs": [
        {
          "internalType": "address",
          "name": "_address",
          "type": "address"
        }
      ],
      "name": "isUserAdmin",
      "outputs": [
        {
          "internalType": "bool",
          "name": "",
          "type": "bool"
        }
      ],
      "stateMutability": "view",
      "type": "function",
      "constant": true
    },
    {
      "inputs": [
        {
          "internalType": "address",
          "name": "_address",
          "type": "address"
        }
      ],
      "name": "isVoter",
      "outputs": [
        {
          "internalType": "bool",
          "name": "",
          "type": "bool"
        }
      ],
      "stateMutability": "view",
      "type": "function",
      "constant": true
    },
    {
      "inputs": [],
      "name": "lastOptionId",
      "outputs": [
        {
          "internalType": "uint256",
          "name": "",
          "type": "uint256"
        }
      ],
      "stateMutability": "view",
      "type": "function",
      "constant": true
    },
    {
      "inputs": [],
      "name": "lastVoteId",
      "outputs": [
        {
          "internalType": "uint256",
          "name": "",
          "type": "uint256"
        }
      ],
      "stateMutability": "view",
      "type": "function",
      "constant": true
    },
    {
      "inputs": [],
      "name": "lastVoterId",
      "outputs": [
        {
          "internalType": "uint256",
          "name": "",
          "type": "uint256"
        }
      ],
      "stateMutability": "view",
      "type": "function",
      "constant": true
    },
    {
      "inputs": [],
      "name": "lastVotingAdminId",
      "outputs": [
        {
          "internalType": "uint256",
          "name": "",
          "type": "uint256"
        }
      ],
      "stateMutability": "view",
      "type": "function",
      "constant": true
    },
    {
      "inputs": [],
      "name": "lastVotingId",
      "outputs": [
        {
          "internalType": "uint256",
          "name": "",
          "type": "uint256"
        }
      ],
      "stateMutability": "view",
      "type": "function",
      "constant": true
    },
    {
      "inputs": [
        {
          "internalType": "address",
          "name": "",
          "type": "address"
        },
        {
          "internalType": "uint256",
          "name": "",
          "type": "uint256"
        }
      ],
      "name": "myVotings",
      "outputs": [
        {
          "internalType": "uint256",
          "name": "",
          "type": "uint256"
        }
      ],
      "stateMutability": "view",
      "type": "function",
      "constant": true
    },
    {
      "inputs": [
        {
          "internalType": "uint256",
          "name": "",
          "type": "uint256"
        }
      ],
      "name": "options",
      "outputs": [
        {
          "internalType": "string",
          "name": "option",
          "type": "string"
        },
        {
          "internalType": "bool",
          "name": "enabled",
          "type": "bool"
        },
        {
          "internalType": "uint256",
          "name": "votingId",
          "type": "uint256"
        }
      ],
      "stateMutability": "view",
      "type": "function",
      "constant": true
    },
    {
      "inputs": [
        {
          "internalType": "address",
          "name": "_address",
          "type": "address"
        }
      ],
      "name": "removeVotingAdmin",
      "outputs": [],
      "stateMutability": "nonpayable",
      "type": "function"
    },
    {
      "inputs": [
        {
          "internalType": "uint256",
          "name": "_votingId",
          "type": "uint256"
        },
        {
          "internalType": "uint256",
          "name": "option",
          "type": "uint256"
        }
      ],
      "name": "removeVotingOption",
      "outputs": [],
      "stateMutability": "nonpayable",
      "type": "function"
    },
    {
      "inputs": [
        {
          "internalType": "uint256",
          "name": "_votingId",
          "type": "uint256"
        }
      ],
      "name": "setVotingActive",
      "outputs": [],
      "stateMutability": "nonpayable",
      "type": "function"
    },
    {
      "inputs": [
        {
          "internalType": "uint256",
          "name": "_votingId",
          "type": "uint256"
        }
      ],
      "name": "setVotingEnded",
      "outputs": [],
      "stateMutability": "nonpayable",
      "type": "function"
    },
    {
      "inputs": [
        {
          "internalType": "address",
          "name": "to",
          "type": "address"
        }
      ],
      "name": "transferOwnership",
      "outputs": [],
      "stateMutability": "nonpayable",
      "type": "function"
    },
    {
      "inputs": [
        {
          "internalType": "address",
          "name": "",
          "type": "address"
        }
      ],
      "name": "voters",
      "outputs": [
        {
          "internalType": "bool",
          "name": "enabled",
          "type": "bool"
        },
        {
          "internalType": "uint8",
          "name": "votingPower",
          "type": "uint8"
        },
        {
          "internalType": "bool",
          "name": "added",
          "type": "bool"
        }
      ],
      "stateMutability": "view",
      "type": "function",
      "constant": true
    },
    {
      "inputs": [
        {
          "internalType": "uint256",
          "name": "",
          "type": "uint256"
        }
      ],
      "name": "votersAddresses",
      "outputs": [
        {
          "internalType": "address",
          "name": "",
          "type": "address"
        }
      ],
      "stateMutability": "view",
      "type": "function",
      "constant": true
    },
    {
      "inputs": [
        {
          "internalType": "address",
          "name": "",
          "type": "address"
        },
        {
          "internalType": "uint256",
          "name": "",
          "type": "uint256"
        }
      ],
      "name": "votersVotes",
      "outputs": [
        {
          "internalType": "uint256",
          "name": "",
          "type": "uint256"
        }
      ],
      "stateMutability": "view",
      "type": "function",
      "constant": true
    },
    {
      "inputs": [
        {
          "internalType": "uint256",
          "name": "",
          "type": "uint256"
        }
      ],
      "name": "votes",
      "outputs": [
        {
          "internalType": "uint256",
          "name": "votingId",
          "type": "uint256"
        },
        {
          "internalType": "address",
          "name": "voter",
          "type": "address"
        },
        {
          "internalType": "address",
          "name": "voingInsteadOf",
          "type": "address"
        },
        {
          "internalType": "string",
          "name": "option",
          "type": "string"
        },
        {
          "internalType": "uint256",
          "name": "timeofVote",
          "type": "uint256"
        },
        {
          "internalType": "uint256",
          "name": "power",
          "type": "uint256"
        }
      ],
      "stateMutability": "view",
      "type": "function",
      "constant": true
    },
    {
      "inputs": [
        {
          "internalType": "uint256",
          "name": "",
          "type": "uint256"
        }
      ],
      "name": "votingAdmins",
      "outputs": [
        {
          "internalType": "address",
          "name": "admin",
          "type": "address"
        },
        {
          "internalType": "bool",
          "name": "enabled",
          "type": "bool"
        },
        {
          "internalType": "bool",
          "name": "added",
          "type": "bool"
        }
      ],
      "stateMutability": "view",
      "type": "function",
      "constant": true
    },
    {
      "inputs": [
        {
          "internalType": "address",
          "name": "",
          "type": "address"
        }
      ],
      "name": "votingAdminsShort",
      "outputs": [
        {
          "internalType": "uint256",
          "name": "",
          "type": "uint256"
        }
      ],
      "stateMutability": "view",
      "type": "function",
      "constant": true
    },
    {
      "inputs": [
        {
          "internalType": "uint256",
          "name": "",
          "type": "uint256"
        },
        {
          "internalType": "uint256",
          "name": "",
          "type": "uint256"
        }
      ],
      "name": "votingOptions",
      "outputs": [
        {
          "internalType": "uint256",
          "name": "",
          "type": "uint256"
        }
      ],
      "stateMutability": "view",
      "type": "function",
      "constant": true
    },
    {
      "inputs": [
        {
          "internalType": "uint256",
          "name": "",
          "type": "uint256"
        }
      ],
      "name": "votings",
      "outputs": [
        {
          "internalType": "address",
          "name": "creator",
          "type": "address"
        },
        {
          "internalType": "uint256",
          "name": "start",
          "type": "uint256"
        },
        {
          "internalType": "uint256",
          "name": "end",
          "type": "uint256"
        },
        {
          "internalType": "bool",
          "name": "ended",
          "type": "bool"
        },
        {
          "internalType": "bool",
          "name": "activated",
          "type": "bool"
        },
        {
          "internalType": "string",
          "name": "title",
          "type": "string"
        },
        {
          "internalType": "string",
          "name": "descriptions",
          "type": "string"
        },
        {
          "internalType": "uint256",
          "name": "createdAt",
          "type": "uint256"
        }
      ],
      "stateMutability": "view",
      "type": "function",
      "constant": true
    },
    {
      "inputs": [
        {
          "internalType": "uint256",
          "name": "",
          "type": "uint256"
        },
        {
          "internalType": "uint256",
          "name": "",
          "type": "uint256"
        }
      ],
      "name": "votingsVotes",
      "outputs": [
        {
          "internalType": "uint256",
          "name": "",
          "type": "uint256"
        }
      ],
      "stateMutability": "view",
      "type": "function",
      "constant": true
    },
    {
      "inputs": [],
      "name": "getActiveVotings",
      "outputs": [
        {
          "internalType": "uint256[]",
          "name": "",
          "type": "uint256[]"
        }
      ],
      "stateMutability": "view",
      "type": "function",
      "constant": true
    },
    {
      "inputs": [
        {
          "internalType": "uint256",
          "name": "_votingId",
          "type": "uint256"
        },
        {
          "internalType": "address",
          "name": "_to",
          "type": "address"
        }
      ],
      "name": "delegateMyVote",
      "outputs": [],
      "stateMutability": "nonpayable",
      "type": "function"
    },
    {
      "inputs": [
        {
          "internalType": "uint256",
          "name": "_votingId",
          "type": "uint256"
        },
        {
          "internalType": "address",
          "name": "_to",
          "type": "address"
        }
      ],
      "name": "revokeDelegation",
      "outputs": [],
      "stateMutability": "nonpayable",
      "type": "function"
    },
    {
      "inputs": [
        {
          "internalType": "uint256",
          "name": "_votingId",
          "type": "uint256"
        },
        {
          "internalType": "uint256",
          "name": "_selectedOption",
          "type": "uint256"
        },
        {
          "internalType": "address",
          "name": "_onbehalfOf",
          "type": "address"
        }
      ],
      "name": "vote",
      "outputs": [],
      "stateMutability": "nonpayable",
      "type": "function"
    },
    {
      "inputs": [],
      "name": "getMyVotings",
      "outputs": [
        {
          "internalType": "uint256[]",
          "name": "",
          "type": "uint256[]"
        }
      ],
      "stateMutability": "view",
      "type": "function",
      "constant": true
    },
    {
      "inputs": [
        {
          "internalType": "uint256",
          "name": "_votingId",
          "type": "uint256"
        }
      ],
      "name": "getVotingOptions",
      "outputs": [
        {
          "internalType": "uint256[]",
          "name": "",
          "type": "uint256[]"
        }
      ],
      "stateMutability": "view",
      "type": "function",
      "constant": true
    },
    {
      "inputs": [
        {
          "internalType": "uint256",
          "name": "_votingId",
          "type": "uint256"
        }
      ],
      "name": "getVotingResult",
      "outputs": [],
      "stateMutability": "view",
      "type": "function",
      "constant": true
    }
  ],
  "bytecode": "0x6080806040523461005e57600080546001600160a01b031916339081178255817f8be0079c531659141344cd1fd0a4f28419497f9722a3daafe3b4186f6b6457e08180a3806003558060045580600855600e55612d5f90816100648239f35b600080fdfe6080604052600436101561001257600080fd5b60003560e01c806307e156061461261e57806317020503146126005780631af10679146125cc5780631bc28ea0146125ae5780631c0d850e1461259b5780631d9d554c14612512578063284fe079146124f457806329bef429146124d657806333f7e03e146124a557806334f486c114612374578063379e07bf146122cc578063409e22051461226c57806340e20dda146120bc57806346db116914611efa57806348e72cff14611e695780634c6fd10f14611d845780634f8935e914611cfc57806350d915831461182e5780635a89ef78146116625780635cca38c5146115ba5780635d7b48b5146114d35780635df813301461144b5780636aa8ba841461141a57806370695698146113d057806373598386146113b257806374d523a81461136257806381435aa7146112d65780638f32d59b146112ae5780639cc2127e146110a5578063a09b24c314610fdc578063a3ec138d14610f85578063a44f151114610cf4578063a598d03c14610c41578063a7771ee314610bfd578063b1e3a48f14610af5578063bd95fa5614610aa6578063cbb806db146108a6578063deff5db51461086c578063e4ee00a6146107f2578063f27a82f41461079a578063f2fde38b1461072b578063f4ab9adf146105d55763fe822ce0146101f557600080fd5b346105d05760803660031901126105d0576001600160401b036044358181116105d057610226903690600401612973565b6064358281116105d05761023e903690600401612973565b336000526020926002845260406000205460005260019182855261026c60ff60406000205460a01c16612c45565b600854918383018093116105ba5782600855604051936101008501858110838211176104e55760405233855286850160043581526040860190602435825260608701916000835260808801916000835260a08901998a5260c0890196875260e089019742895260005260078b5260406000209860018060a01b0390511660018060a01b03198a5416178955518489015551600288015561031f6003880192511515839060ff801983541691151516179055565b51151561ff0082549160081b169061ff0019161790556004850195519586518381116104e5578061035083546127dc565b98601f998a8111610569575b508a908a8311600114610506576000926104fb575b5050600019600383901b1c191690831b1790555b60058501925180519283116104e55761039e84546127dc565b87811161049f575b508796831160011461043b578291600696978392600094610430575b50501b916000199060031b1c19161790555b5191015533600052600981526103f1604060002060085490612c10565b60085480600080516020612d0a8339815191526060604051858152600c868201526b159bdd1a5b99c8105919195960a21b6040820152a2604051908152f35b0151925038806103c2565b601f9291921982169684600052886000209160005b8a8a821061048b575050836006989910610472575b505050811b0190556103d4565b015160001960f88460031b161c19169055388080610465565b828401518555938601939283019201610450565b84600052886000208880860160051c8201928b87106104dc575b0160051c019083905b8281106104d05750506103a6565b600081550183906104c2565b925081926104b9565b634e487b7160e01b600052604160045260246000fd5b015190503880610371565b60008581528c8120879550929190601f198516908e5b8282106105525750508411610539575b505050811b019055610385565b015160001960f88460031b161c1916905538808061052c565b83850151865589979095019493840193018e61051c565b909150836000528a6000208a80850160051c8201928d86106105b1575b918791869594930160051c01915b8281106105a257505061035c565b60008155859450879101610594565b92508192610586565b634e487b7160e01b600052601160045260246000fd5b600080fd5b346105d0576020806003193601126105d0576105ef612782565b6000546001600160a01b039190821633036105d0571690816000526005815260ff60406000205460101c166106f05760045490600182018092116105ba5760069160045560405161063f81612816565b600081528181016001815261069460ff604084019260018452876000526005865261067e604060002095511515869060ff801983541691151516179055565b51845461ff001916911660081b61ff0016178355565b51815462ff0000191690151560101b62ff00001617905560045460009081529190526040812080546001600160a01b031916831790557fa636f4a11e2d3ba7f89d042ecb0a6b886716e98cd49d8fd876ee0f73bced42b89080a2005b6064906040519062461bcd60e51b825260048201526014602482015273566f74657220416c72656164792065786973747360601b6044820152fd5b346105d05760203660031901126105d057610744612782565b6000546001600160a01b0380821692338490036105d057169182156105d05782907f8be0079c531659141344cd1fd0a4f28419497f9722a3daafe3b4186f6b6457e0600080a36001600160a01b03191617600055005b346105d05760403660031901126105d0576107b3612782565b6001600160a01b03166000908152600960205260409020805460243591908210156105d0576020916107e4916127c4565b90546040519160031b1c8152f35b346105d0576020806003193601126105d057600435600052600c8152604060002090604051908181845491828152019360005281600020916000905b828210610855576108518561084581890382612831565b60405191829182612938565b0390f35b83548652948501946001938401939091019061082e565b346105d05760203660031901126105d0576001600160a01b0361088d612782565b1660005260026020526020604060002054604051908152f35b346105d0576108b4366129c9565b903360005260206002815260406000205460005260018082526108e160ff60406000205460a01c16612c45565b6000546001600160a01b039081163303610a85575b50826000526007825261091760ff60036040600020015460081c1615612a21565b82600052600782526004604060002001908451946001600160401b0386116104e55761094383546127dc565b601f8111610a3c575b508390601f87116001146109c557958060609594938193600080516020612d0a83398151915298996000946109ba575b50501b916000199060031b1c19161790555b60146040519180835282015273159bdd1a5b99c81d1a5d1b194818da185b99d95960621b6040820152a2005b01519250898061097c565b90601f1987169184600052856000209260005b818110610a275750916060969594939189600080516020612d0a833981519152999a9410610a0e575b505050811b01905561098e565b015160001960f88460031b161c19169055878080610a01565b828401518555938501939287019287016109d8565b8360005284600020601f880160051c810191868910610a7b575b601f0160051c019083905b828110610a6f57505061094c565b60008155018390610a61565b9091508190610a56565b610aa090846000526007845233906040600020541614612c8c565b846108f6565b346105d05760203660031901126105d0576004356000526001602052606060406000205460ff6040519160018060a01b0381168352818160a01c161515602084015260a81c1615156040820152f35b346105d05760003660031901126105d05760088054610b13816129fb565b90610b216040519283612831565b808252601f19610b30826129fb565b01926020933685850137600093600191825b84811115610b5857604051806108518882612938565b8060005260078352604060002060038101549060ff8083861c169283610bf1575b505081610be3575b81610bd5575b50610b9b575b610b9690612a12565b610b42565b958551811015610bbf5786838260051b880101528381018091116105ba5795610b8d565b634e487b7160e01b600052603260045260246000fd5b600291500154421088610b87565b858101544210159150610b81565b16151591508980610b79565b346105d05760203660031901126105d0576001600160a01b03610c1e612782565b1660005260056020526020600160ff60406000205460081c161015604051908152f35b346105d05760203660031901126105d0576004356000526007602052604060002060018060a01b03815416600182015491610cea600282015491610cdc600382015460ff610c9160048501612852565b916006610ca060058701612852565b95015496604051998a998a5260208a015260408901528181161515606089015260081c16151560808701526101008060a08801528601906128f8565b9084820360c08601526128f8565b9060e08301520390f35b346105d057610d02366129c9565b903360005260026020526040600020546000526001602052610d2e60ff60406000205460a01c16612c45565b6000546001600160a01b039081163303610f63575b50806000526007602052610d6560ff60036040600020015460081c1615612a21565b600b5491600183018093116105ba5782600b5581600052600c602052604060002060405193610d9385612816565b82855260016020860152836040860152600052600a602052604060002084519485516001600160401b0381116104e557610dcd83546127dc565b601f8111610f1b575b506020601f8211600114610e9857610e4c94939282600293604093600080516020612cea8339815191529a9b600092610e8d575b50508160011b916000199060031b1c19161784555b610e3e60208201511515600186019060ff801983541691151516179055565b0151910155600b5490612c10565b6040610e60815192828452828401906128f8565b72159bdd1a5b99c813dc1d1a5bdb881059191959606a1b60208483039283828701526013815201520190a2005b015190508b80610e0a565b8360005260206000209760005b601f1984168110610f03575092600183600080516020612cea833981519152999a604094610e4c999897600297601f19811610610eea575b505050811b018455610e1f565b015160001960f88460031b161c191690558b8080610edd565b828201518a5560019099019860209283019201610ea5565b836000526020600020601f830160051c81019160208410610f59575b601f0160051c01905b818110610f4d5750610dd6565b60008155600101610f40565b9091508190610f37565b610f7f9082600052600760205233906040600020541614612c8c565b82610d43565b346105d05760203660031901126105d0576001600160a01b03610fa6612782565b166000526005602052606060406000205460ff6040519181811615158352818160081c16602084015260101c1615156040820152f35b346105d05760203660031901126105d057610ff5612782565b6000546001600160a01b039190821633036105d0571680600052600560205261102860ff60406000205460101c16612b00565b806000526005602052611048600160ff60406000205460081c1611612b00565b806000526005602052604060002060001960ff825460081c160160ff81116105ba57815461ff00191660089190911b61ff00161790557f84600759115fa43b37442490b0820bda045fe013e33c564b7cc4e477776a70e2600080a2005b346105d0576110b3366129c9565b903360005260206002815260406000205460005260018082526110e060ff60406000205460a01c16612c45565b6000546001600160a01b03908116330361128d575b50826000526007825261111660ff60036040600020015460081c1615612a21565b82600052600782526005604060002001908451946001600160401b0386116104e55761114283546127dc565b601f8111611244575b508390601f87116001146111cd57958060609594938193600080516020612d0a83398151915298996000946111c2575b50501b916000199060031b1c19161790555b601a604051918083528201527f566f74696e67206465736372697074696f6e206368616e6765640000000000006040820152a2005b01519250898061117b565b90601f1987169184600052856000209260005b81811061122f5750916060969594939189600080516020612d0a833981519152999a9410611216575b505050811b01905561118d565b015160001960f88460031b161c19169055878080611209565b828401518555938501939287019287016111e0565b8360005284600020601f880160051c810191868910611283575b601f0160051c019083905b82811061127757505061114b565b60008155018390611269565b909150819061125e565b6112a890846000526007845233906040600020541614612c8c565b846110f5565b346105d05760003660031901126105d057602060018060a01b03600054163314604051908152f35b346105d05760203660031901126105d0576112ef612782565b6000546001600160a01b039190821633036105d0571680600052600560205261132260ff60406000205460101c16612b00565b8060005260056020526040600020600160ff198254161790557ff82c1433711971ea9322bdc605f131ef667575de2f51e3b9d26cd68f44299685600080a2005b346105d05760203660031901126105d0576001600160a01b03611383612782565b1660005260026020526040600020546000526001602052602060ff60406000205460a01c166040519015158152f35b346105d05760003660031901126105d0576020600b54604051908152f35b346105d05760403660031901126105d0576113e9612782565b6001600160a01b03166000908152600f60205260409020805460243591908210156105d0576020916107e4916127c4565b346105d057611428366127ae565b90600052600c602052604060002080548210156105d0576020916107e4916127c4565b346105d05760203660031901126105d0576004356000908152600d602052604090208054600182015460028301546001600160a01b039182169391166114c461149660038401612852565b600560048501549401549260405196879687526020870152604086015260c0606086015260c08501906128f8565b91608084015260a08301520390f35b346105d0576060600080516020612d0a8339815191526114f2366127ae565b92909233600052602090600282526040600020546000526001825261152160ff60406000205460a01c16612c45565b6000546001600160a01b039081163303611599575b50846000526007825261155760ff60036040600020015460081c1615612a21565b846000526007825260016040600020015560196040519180835282015278159bdd1a5b99c81cdd185c9d0819185d194818da185b99d959603a1b6040820152a2005b6115b490866000526007845233906040600020541614612c8c565b85611536565b346105d05760203660031901126105d0576115d3612782565b6000546001600160a01b039190821633036105d05716806000526002602052604060002054600052600160205261161460ff60406000205460a01c16612c45565b8060005260026020526040600020546000526001602052604060002060ff60a01b1981541690557fa3b62bc36326052d97ea62d63c3d60308ed4c3ea8ac079dd8499f1e9c4f80c0f600080a2005b346105d05760403660031901126105d05760043561167e612798565b908060005260206007815260036116a160ff826040600020015460081c16612a21565b82600052600782526116bd60ff82604060002001541615612a64565b826000526007825260406000206116df60029160018382015491015410612a64565b836000526007835261171a6103e8611701818460406000200154044210612a64565b8560005260078552600160406000200154044211612aa2565b336000526005835261173660ff60406000205460101c16612b00565b336000526005835261174f60ff60406000205416612b00565b33600052600f83526040600020916000928054935b8481106117c85760008781526011875260408082203380845290895290822080546001600160a01b0319166001600160a01b038c169081179091559189907f54cc6a57020529f3b05580ff1bd95fb787115332005316c8b7004cd24c24c7109080a4005b806117d661182992846127c4565b905490851b1c600052600d8088526117fe3360018060a01b0388604060002001541614612b44565b61180882856127c4565b905490861b1c6000528752611824886040600020541415612b44565b612a12565b611764565b346105d05760603660031901126105d0576044356024356001600160a01b03821682036105d057600435600052600760205260ff6118788160036040600020015460081c16612a21565b6004356000526007602052611897816003604060002001541615612a64565b60043560005260076020526118ba60406000206001600282015491015410612a64565b60043560005260076020526118fc6103e86118e081600260406000200154044210612a64565b6004356000526007602052600160406000200154044211612aa2565b6001600160a01b0383166000908152600f602052604081208054915b828110611c8c5750505033600052600560205261193e8160406000205460101c16612b00565b3360005260056020526119578160406000205416612b00565b6001600160a01b0383163303611c04575b81600052600a6020526119848160016040600020015416612bab565b81600052600a6020526119a260043560026040600020015414612bab565b600e54916001830183116105ba5760018301600e55600052600a60205260406000209060018060a01b038416600052600560205260406000205460081c1691604051928360c08101106001600160401b0360c0860111176104e55760c08401604090815260043585523360208601526001600160a01b03861690850152600192611a2b90612852565b606085015242608085015260a084015201600052600d602052604060002090805182556001820160018060a01b036020830151169060018060a01b03199182825416179055600283019060018060a01b036040840151169082541617905560608101518051906001600160401b0382116104e557611aac60038501546127dc565b601f8111611bbd575b50602090601f8311600114611b485791806005949260a094600092611b3d575b50508160011b916000199060031b1c19161760038501555b6080810151600485015501519101556001600160a01b03166000908152600f60205260409020600e54611b1f91612c10565b6004356000526010602052611b3b6040600020600e5490612c10565b005b015190508780611ad5565b906003850160005260206000209160005b601f1985168110611ba55750926005949260019260a09583601f19811610611b8c575b505050811b016003850155611aed565b015160001960f88460031b161c19169055878080611b7c565b91926020600181928685015181550194019201611b59565b600385016000526020600020601f840160051c810160208510611bfd575b601f830160051c82018110611bf1575050611ab5565b60008155600101611bdb565b5080611bdb565b60043560009081526011602090815260408083206001600160a01b0387811685529252909120541633146119685760405162461bcd60e51b815260206004820152602c60248201527f596f752068617665206e6f20726967687420746f20766f746520666f7220736f60448201526b6d656f6e65277320656c736560a01b6064820152608490fd5b80611c9a611cf792846127c4565b90549060031b1c600052600d80602052611ccd60018060a01b03891660018060a01b036002604060002001541614612b44565b611cd782856127c4565b90549060031b1c6000526020526118246004356040600020541415612b44565b611918565b346105d05760203660031901126105d057600054600435906001600160a01b031633036105d057806000526007602052600360406000200161010061ff0019825416179055600080516020612d0a8339815191526060604051602081526018602082015277566f74696e672069732073657420416374697665206e6f7760401b6040820152a2005b346105d0576060600080516020612d0a833981519152611da3366127ae565b929092336000526020906002825260406000205460005260018252611dd260ff60406000205460a01c16612c45565b6000546001600160a01b039081163303611e48575b508460005260078252611e0860ff60036040600020015460081c1615612a21565b846000526007825260026040600020015560176040519180835282015276159bdd1a5b99c8195b990819185d194818da185b99d959604a1b6040820152a2005b611e6390866000526007845233906040600020541614612c8c565b85611de7565b346105d05760003660031901126105d057336000526020600281526040600020546000526001808252611ea660ff60406000205460a01c16612c45565b3360005260098252604060002091604051918282855491828152019460005282600020926000905b828210611ee55761085186610845818a0382612831565b84548752958601959383019390830190611ece565b346105d05760403660031901126105d057600435611f16612798565b816000526020600781526003611f3860ff826040600020015460081c16612a21565b8360005260078252611f5460ff82604060002001541615612a64565b83600052600782526040600020611f7660029160018382015491015410612a64565b8460005260078352611fb16103e8611f98818460406000200154044210612a64565b8660005260078552600160406000200154044211612aa2565b3360005260058352611fcd60ff60406000205460101c16612b00565b3360005260058352611fe660ff60406000205416612b00565b33600052600f83526040600020916000928054935b84811061205b5760008881526011875260408082203380845290895290822080546001600160a01b03191690556001600160a01b038916918a907f435aa282ae9d3c4d5515827fb329835e421b6b7d7c49ccbeb1ed3378cc9fef5b9080a4005b806120696120b792846127c4565b905490851b1c600052600d8088526120913360018060a01b0388604060002001541614612b44565b61209b82856127c4565b905490861b1c6000528752611824896040600020541415612b44565b611ffb565b346105d0576120ca366127ae565b9033600052602091600283526040600020546000526001908184526120f960ff60406000205460a01c16612c45565b6000546001600160a01b03908116330361224b575b50826000526007845261212f60ff60036040600020015460081c1615612a21565b600052600a8352604060002081810160ff19908181541690556040519260408452600092805461215e816127dc565b93846040880152838216918260001461220d5750506001146121bd575b85600080516020612cea8339815191528660408774159bdd1a5b99c81bdc1d1a5bdb881c995b5bdd9959605a1b8c8483039283828701526015815201520190a2005b60009081528681209093505b8284106121f95750505081016060018374159bdd1a5b99c81bdc1d1a5bdb881c995b5bdd9959605a1b604061217b565b8054858501606001529286019281016121c9565b1660608781019190915293151560051b8601909301935086925074159bdd1a5b99c81bdc1d1a5bdb881c995b5bdd9959605a1b91506040905061217b565b61226690846000526007865233906040600020541614612c8c565b8461210e565b346105d05760203660031901126105d057600435600052600a6020526122bb604060002061229981612852565b90600260ff6001830154169101546040519384936060855260608501906128f8565b911515602084015260408301520390f35b346105d05760203660031901126105d0576122e5612782565b6000546001600160a01b039190821633036105d0571680600052600560205261231860ff60406000205460101c16612b00565b8060005260056020526040600020600160ff825460081c160160ff81116105ba57815461ff00191660089190911b61ff00161790557f4e7e2c6b7807915515b04d4cd84bf7cba8a16c67281691562abfa0def6e922fb600080a2005b346105d0576020806003193601126105d05761238e612782565b6000546001600160a01b039190821633036105d057811691826000526002815260406000205460005260019182825260ff60406000205460a81c161560001461247857600354908382018092116105ba5781600355846000526002835281604060002055604051936123ff85612816565b85855283850181815260408087018381526000958652929095529390922093518454935192516001600160b01b031990941691161790151560a01b60ff60a01b161790151560a81b60ff60a81b161790555b7f2dbe9fb88463d989acccabbb6ee06901f83672eb78e04a11ff48dd8f69a27cda600080a2005b5060008381526002825260408082205482529290915220805460ff60a01b1916600160a01b179055612451565b346105d0576124b3366127ae565b906000526010602052604060002080548210156105d0576020916107e4916127c4565b346105d05760003660031901126105d0576020600354604051908152f35b346105d05760003660031901126105d0576020600854604051908152f35b346105d05760203660031901126105d05761252b612782565b6000546001600160a01b039190821633036105d0571680600052600560205261255e60ff60406000205460101c16612b00565b806000526005602052604060002060ff1981541690557f16dc8b56b1ed852b4d628030204bb4d83910ae764e85489e6a9669b462a3cb1c600080a2005b346105d05760203660031901126105d057005b346105d05760003660031901126105d0576020600e54604051908152f35b346105d05760203660031901126105d0576004356000526006602052602060018060a01b0360406000205416604051908152f35b346105d05760003660031901126105d0576020600454604051908152f35b346105d0576020806003193601126105d057600080516020612d0a83398151915260606004359233600052600281526040600020546000526001815261266e60ff60406000205460a01c16612c45565b6000546001600160a01b039081163303612761575b508360005260078082526126a460ff60036040600020015460081c16612a21565b846000528082526126c060ff6003604060002001541615612a64565b846000528082526126df60406000206001600282015491015410612a64565b846000528082526127196103e861270181600260406000200154044210612a64565b86600052828452600160406000200154044211612aa2565b8460005281526003604060002001600160ff1982541617905560176040519180835282015276566f74696e672069732073657420656e646564206e6f7760481b6040820152a2005b61277c90856000526007835233906040600020541614612c8c565b84612683565b600435906001600160a01b03821682036105d057565b602435906001600160a01b03821682036105d057565b60409060031901126105d0576004359060243590565b8054821015610bbf5760005260206000200190600090565b90600182811c9216801561280c575b60208310146127f657565b634e487b7160e01b600052602260045260246000fd5b91607f16916127eb565b606081019081106001600160401b038211176104e557604052565b90601f801991011681019081106001600160401b038211176104e557604052565b9060405191826000825492612866846127dc565b9081845260019485811690816000146128d55750600114612892575b505061289092500383612831565b565b9093915060005260209081600020936000915b8183106128bd57505061289093508201013880612882565b855488840185015294850194879450918301916128a5565b91505061289094506020925060ff191682840152151560051b8201013880612882565b919082519283825260005b848110612924575050826000602080949584010152601f8019910116010190565b602081830181015184830182015201612903565b6020908160408183019282815285518094520193019160005b82811061295f575050505090565b835185529381019392810192600101612951565b81601f820112156105d0578035906001600160401b0382116104e557604051926129a7601f8401601f191660200185612831565b828452602083830101116105d057816000926020809301838601378301015290565b9060406003198301126105d05760043591602435906001600160401b0382116105d0576129f891600401612973565b90565b6001600160401b0381116104e55760051b60200190565b60001981146105ba5760010190565b15612a2857565b60405162461bcd60e51b8152602060048201526014602482015273566f74696e67206973204e6f742041637469766560601b6044820152606490fd5b15612a6b57565b60405162461bcd60e51b815260206004820152600f60248201526e159bdd1a5b99c81a5cc8115b991959608a1b6044820152606490fd5b15612aa957565b60405162461bcd60e51b815260206004820152602960248201527f57696572646c7920766f74696e67207374617274206973204e4f54206c657373604482015268207468616e206e6f7760b81b6064820152608490fd5b15612b0757565b60405162461bcd60e51b8152602060048201526015602482015274566f74657220646f6573206e6f742065786973747360581b6044820152606490fd5b15612b4b57565b60405162461bcd60e51b815260206004820152603260248201527f596f75206861766520616c72656164792061207265676973746572656420766f604482015271746520666f72207468697320766f74696e6760701b6064820152608490fd5b15612bb257565b60405162461bcd60e51b815260206004820152603060248201527f53656c6563746564204f7074696f6e206973206e6f7420696e2076616c69642060448201526f03232b334b732b21037b83a34b7b739960851b6064820152608490fd5b8054600160401b8110156104e557612c2d916001820181556127c4565b819291549060031b91821b91600019901b1916179055565b15612c4c57565b60405162461bcd60e51b815260206004820152601860248201527720b2323932b9b99034b9903737ba1030b7321020b236b4b760411b6044820152606490fd5b15612c9357565b60405162461bcd60e51b815260206004820152602860248201527f596f752068617665206e6f2061636365737320746f206d616e616765207468696044820152677320766f74696e6760c01b6064820152608490fdfefe7f5cfceb8ad67f83ff4bf79bf1b81a795adc92c0e1687969b0db71729160e7a083485e5f24523bd4866ff1a17c1a36345a0aec5ed66c7976acee290a5dbe77a26469706673582212207a30c7660dd6efdaf3af7ad6b4aa6f6a4fac94cc0feac4bf7f87123923f406e964736f6c63430008130033",
  "immutableReferences": {},
  "source": "// SPDX-License-Identifier: MIT\npragma solidity 0.8.19;\nimport  \"./DaobuilderDataStorage.sol\";\ncontract Daobuilder is DaobuilderDataStorage{\n\n\n\n    function getActiveVotings() public view returns (uint[] memory){\n        uint[] memory activeVotings = new uint[](lastVotingId);\n        uint counter = 0;\n        for(uint i = 1; i<=lastVotingId;i++){\n            if(votings[i].activated && votings[i].ended!=false && votings[i].start<=block.timestamp && votings[i].end>block.timestamp){\n                activeVotings[counter] = i;\n                counter+=1;\n            }\n        }\n        return activeVotings;\n    }\n\n    \n    function delegateMyVote(uint _votingId ,address _to) \n        external  isVotingActive(_votingId) \n                  VoterCanVote(msg.sender) \n                  NoVoteRegesteredYet(_votingId , msg.sender){\n\n        Delegations storage delegationsOnthisVoting = votingsDelegations[_votingId];\n        delegationsOnthisVoting.delegaterToDelegatee[msg.sender] = _to;\n        emit VotingRightDelegated(_votingId , msg.sender , _to);\n    }\n\n    function revokeDelegation(uint _votingId ,address _to)\n        external  isVotingActive(_votingId) \n                  VoterCanVote(msg.sender)\n                  NoVoteRegesteredYet(_votingId , msg.sender){\n        Delegations storage delegationsOnthisVoting = votingsDelegations[_votingId];\n        delete delegationsOnthisVoting.delegaterToDelegatee[msg.sender];\n        emit VotingRightUnDelegated(_votingId , msg.sender , _to);\n    }\n\n    function vote(uint _votingId , uint _selectedOption , address _onbehalfOf) \n        external isVotingActive(_votingId)\n                 NoVoteRegesteredYet(_votingId,_onbehalfOf)\n                 VoterCanVote(msg.sender)\n                 CanVoteBehalfOf(_votingId ,msg.sender , _onbehalfOf)\n                 IsOptionValid(_votingId , _selectedOption){\n        lastVoteId+=1;\n        votes[lastVoteId] = Vote(_votingId,msg.sender,_onbehalfOf,options[_selectedOption].option,block. timestamp,voters[_onbehalfOf].votingPower);\n        uint[] storage userVotes = votersVotes[_onbehalfOf];\n        userVotes.push(lastVoteId);\n        uint[] storage votingVotes = votingsVotes[_votingId];\n        votingVotes.push(lastVoteId);\n    } \n\n    function getMyVotings() public view isAdmin(msg.sender) returns (uint[] memory){\n        uint[] memory MyVotingList = myVotings[msg.sender];\n        return MyVotingList;\n    }\n    function getVotingOptions(uint _votingId) public view returns (uint[] memory){\n        uint[] memory MyVotingList = votingOptions[_votingId];\n        return MyVotingList;\n    }\n\n    function getVotingResult(uint _votingId) public view{\n\n    }\n\n\n\n\n    /**\n        Next Challange Voters must own a an specific ERC20 \n    */\n}",
  "sourcePath": "/home/aca/smartcontracts/daobuilder/contracts/Daobuilder.sol",
  "compiler": {
    "name": "solc",
    "version": "0.8.19+commit.7dd6d404.Emscripten.clang"
  },
  "schemaVersion": "3.4.16",
  "updatedAt": "2025-01-16T11:05:04.258Z",
  "networkType": "ethereum",
  "devdoc": {
    "kind": "dev",
    "methods": {},
    "version": 1
  },
  "userdoc": {
    "events": {
      "NewAdminAdded(address)": {
        "notice": "Events section "
      }
    },
    "kind": "user",
    "methods": {
      "addVoter(address)": {
        "notice": "Manage Voters"
      },
      "addVoting(uint256,uint256,string,string)": {
        "notice": "Manage Votings"
      },
      "addVotingAdmin(address)": {
        "notice": "Manage Voting Admins"
      },
      "addVotingOption(uint256,string)": {
        "notice": "Manage Voting Options"
      }
    },
    "version": 1
  }
}