{
  "contractName": "Daobuilder",
  "abi": [
    {
      "anonymous": false,
      "inputs": [
        {
          "indexed": true,
          "internalType": "address",
          "name": "admin",
          "type": "address"
        }
      ],
      "name": "AdminRemoved",
      "type": "event"
    },
    {
      "anonymous": false,
      "inputs": [
        {
          "indexed": true,
          "internalType": "address",
          "name": "admin",
          "type": "address"
        }
      ],
      "name": "NewAdminAdded",
      "type": "event"
    },
    {
      "anonymous": false,
      "inputs": [
        {
          "indexed": true,
          "internalType": "address",
          "name": "previousOwner",
          "type": "address"
        },
        {
          "indexed": true,
          "internalType": "address",
          "name": "newOwner",
          "type": "address"
        }
      ],
      "name": "OwnershipTransferred",
      "type": "event"
    },
    {
      "anonymous": false,
      "inputs": [
        {
          "indexed": true,
          "internalType": "uint16",
          "name": "votingIndex",
          "type": "uint16"
        },
        {
          "indexed": true,
          "internalType": "uint64",
          "name": "option",
          "type": "uint64"
        },
        {
          "indexed": true,
          "internalType": "address",
          "name": "voter",
          "type": "address"
        }
      ],
      "name": "VoteRegistered",
      "type": "event"
    },
    {
      "anonymous": false,
      "inputs": [
        {
          "indexed": true,
          "internalType": "address",
          "name": "voter",
          "type": "address"
        }
      ],
      "name": "VoterAdded",
      "type": "event"
    },
    {
      "anonymous": false,
      "inputs": [
        {
          "indexed": true,
          "internalType": "address",
          "name": "voter",
          "type": "address"
        }
      ],
      "name": "VoterDisabled",
      "type": "event"
    },
    {
      "anonymous": false,
      "inputs": [
        {
          "indexed": true,
          "internalType": "address",
          "name": "voter",
          "type": "address"
        }
      ],
      "name": "VoterEnabled",
      "type": "event"
    },
    {
      "anonymous": false,
      "inputs": [
        {
          "indexed": true,
          "internalType": "address",
          "name": "voter",
          "type": "address"
        }
      ],
      "name": "VoterPowerDecreased",
      "type": "event"
    },
    {
      "anonymous": false,
      "inputs": [
        {
          "indexed": true,
          "internalType": "address",
          "name": "voter",
          "type": "address"
        }
      ],
      "name": "VoterPowerIncreased",
      "type": "event"
    },
    {
      "anonymous": false,
      "inputs": [
        {
          "indexed": true,
          "internalType": "address",
          "name": "voter",
          "type": "address"
        }
      ],
      "name": "VoterRemoved",
      "type": "event"
    },
    {
      "anonymous": false,
      "inputs": [
        {
          "indexed": true,
          "internalType": "uint16",
          "name": "votingIndex",
          "type": "uint16"
        },
        {
          "indexed": false,
          "internalType": "string",
          "name": "msg",
          "type": "string"
        }
      ],
      "name": "VotingDataChanged",
      "type": "event"
    },
    {
      "anonymous": false,
      "inputs": [
        {
          "indexed": true,
          "internalType": "uint16",
          "name": "votingIndex",
          "type": "uint16"
        },
        {
          "indexed": false,
          "internalType": "string",
          "name": "option",
          "type": "string"
        },
        {
          "indexed": false,
          "internalType": "string",
          "name": "msg",
          "type": "string"
        }
      ],
      "name": "VotingOptionChanged",
      "type": "event"
    },
    {
      "anonymous": false,
      "inputs": [
        {
          "indexed": true,
          "internalType": "uint16",
          "name": "votingIndex",
          "type": "uint16"
        },
        {
          "indexed": true,
          "internalType": "address",
          "name": "delegater",
          "type": "address"
        },
        {
          "indexed": true,
          "internalType": "address",
          "name": "delegatee",
          "type": "address"
        }
      ],
      "name": "VotingRightDelegated",
      "type": "event"
    },
    {
      "anonymous": false,
      "inputs": [
        {
          "indexed": true,
          "internalType": "uint16",
          "name": "votingIndex",
          "type": "uint16"
        },
        {
          "indexed": true,
          "internalType": "address",
          "name": "delegater",
          "type": "address"
        },
        {
          "indexed": true,
          "internalType": "address",
          "name": "delegatee",
          "type": "address"
        }
      ],
      "name": "VotingRightUnDelegated",
      "type": "event"
    },
    {
      "inputs": [
        {
          "internalType": "address",
          "name": "_voter",
          "type": "address"
        }
      ],
      "name": "addVoter",
      "outputs": [],
      "stateMutability": "nonpayable",
      "type": "function"
    },
    {
      "inputs": [
        {
          "internalType": "uint32",
          "name": "_start",
          "type": "uint32"
        },
        {
          "internalType": "uint32",
          "name": "_end",
          "type": "uint32"
        },
        {
          "internalType": "string",
          "name": "_title",
          "type": "string"
        },
        {
          "internalType": "string",
          "name": "_description",
          "type": "string"
        }
      ],
      "name": "addVoting",
      "outputs": [
        {
          "internalType": "uint16",
          "name": "",
          "type": "uint16"
        }
      ],
      "stateMutability": "nonpayable",
      "type": "function"
    },
    {
      "inputs": [
        {
          "internalType": "address",
          "name": "_newadmin",
          "type": "address"
        }
      ],
      "name": "addVotingAdmin",
      "outputs": [],
      "stateMutability": "nonpayable",
      "type": "function"
    },
    {
      "inputs": [
        {
          "internalType": "uint16",
          "name": "_votingId",
          "type": "uint16"
        },
        {
          "internalType": "string",
          "name": "option",
          "type": "string"
        }
      ],
      "name": "addVotingOption",
      "outputs": [],
      "stateMutability": "nonpayable",
      "type": "function"
    },
    {
      "inputs": [
        {
          "internalType": "uint16",
          "name": "_votingId",
          "type": "uint16"
        },
        {
          "internalType": "string",
          "name": "_description",
          "type": "string"
        }
      ],
      "name": "changeVotingDescription",
      "outputs": [],
      "stateMutability": "nonpayable",
      "type": "function"
    },
    {
      "inputs": [
        {
          "internalType": "uint16",
          "name": "_votingId",
          "type": "uint16"
        },
        {
          "internalType": "uint32",
          "name": "_enddate",
          "type": "uint32"
        }
      ],
      "name": "changeVotingEndDate",
      "outputs": [],
      "stateMutability": "nonpayable",
      "type": "function"
    },
    {
      "inputs": [
        {
          "internalType": "uint16",
          "name": "_votingId",
          "type": "uint16"
        },
        {
          "internalType": "uint32",
          "name": "_startdate",
          "type": "uint32"
        }
      ],
      "name": "changeVotingStartDate",
      "outputs": [],
      "stateMutability": "nonpayable",
      "type": "function"
    },
    {
      "inputs": [
        {
          "internalType": "uint16",
          "name": "_votingId",
          "type": "uint16"
        },
        {
          "internalType": "string",
          "name": "_title",
          "type": "string"
        }
      ],
      "name": "changeVotingTitle",
      "outputs": [],
      "stateMutability": "nonpayable",
      "type": "function"
    },
    {
      "inputs": [
        {
          "internalType": "address",
          "name": "_voter",
          "type": "address"
        }
      ],
      "name": "decreaseVoterPower",
      "outputs": [],
      "stateMutability": "nonpayable",
      "type": "function"
    },
    {
      "inputs": [
        {
          "internalType": "address",
          "name": "_voter",
          "type": "address"
        }
      ],
      "name": "disableVoter",
      "outputs": [],
      "stateMutability": "nonpayable",
      "type": "function"
    },
    {
      "inputs": [
        {
          "internalType": "address",
          "name": "_voter",
          "type": "address"
        }
      ],
      "name": "enableVoter",
      "outputs": [],
      "stateMutability": "nonpayable",
      "type": "function"
    },
    {
      "inputs": [
        {
          "internalType": "address",
          "name": "_voter",
          "type": "address"
        }
      ],
      "name": "increaseVoterPower",
      "outputs": [],
      "stateMutability": "nonpayable",
      "type": "function"
    },
    {
      "inputs": [],
      "name": "isOwner",
      "outputs": [
        {
          "internalType": "bool",
          "name": "",
          "type": "bool"
        }
      ],
      "stateMutability": "view",
      "type": "function"
    },
    {
      "inputs": [
        {
          "internalType": "address",
          "name": "_address",
          "type": "address"
        }
      ],
      "name": "isUserAdmin",
      "outputs": [
        {
          "internalType": "bool",
          "name": "",
          "type": "bool"
        }
      ],
      "stateMutability": "view",
      "type": "function"
    },
    {
      "inputs": [
        {
          "internalType": "address",
          "name": "_address",
          "type": "address"
        }
      ],
      "name": "isVoter",
      "outputs": [
        {
          "internalType": "bool",
          "name": "",
          "type": "bool"
        }
      ],
      "stateMutability": "view",
      "type": "function"
    },
    {
      "inputs": [],
      "name": "lastOptionId",
      "outputs": [
        {
          "internalType": "uint64",
          "name": "",
          "type": "uint64"
        }
      ],
      "stateMutability": "view",
      "type": "function"
    },
    {
      "inputs": [],
      "name": "lastVoteId",
      "outputs": [
        {
          "internalType": "uint64",
          "name": "",
          "type": "uint64"
        }
      ],
      "stateMutability": "view",
      "type": "function"
    },
    {
      "inputs": [],
      "name": "lastVoterId",
      "outputs": [
        {
          "internalType": "uint16",
          "name": "",
          "type": "uint16"
        }
      ],
      "stateMutability": "view",
      "type": "function"
    },
    {
      "inputs": [],
      "name": "lastVotingAdminId",
      "outputs": [
        {
          "internalType": "uint16",
          "name": "",
          "type": "uint16"
        }
      ],
      "stateMutability": "view",
      "type": "function"
    },
    {
      "inputs": [],
      "name": "lastVotingId",
      "outputs": [
        {
          "internalType": "uint16",
          "name": "",
          "type": "uint16"
        }
      ],
      "stateMutability": "view",
      "type": "function"
    },
    {
      "inputs": [
        {
          "internalType": "address",
          "name": "",
          "type": "address"
        },
        {
          "internalType": "uint256",
          "name": "",
          "type": "uint256"
        }
      ],
      "name": "myVotings",
      "outputs": [
        {
          "internalType": "uint16",
          "name": "",
          "type": "uint16"
        }
      ],
      "stateMutability": "view",
      "type": "function"
    },
    {
      "inputs": [
        {
          "internalType": "uint64",
          "name": "",
          "type": "uint64"
        }
      ],
      "name": "options",
      "outputs": [
        {
          "internalType": "uint16",
          "name": "votingId",
          "type": "uint16"
        },
        {
          "internalType": "bool",
          "name": "enabled",
          "type": "bool"
        },
        {
          "internalType": "string",
          "name": "option",
          "type": "string"
        }
      ],
      "stateMutability": "view",
      "type": "function"
    },
    {
      "inputs": [
        {
          "internalType": "address",
          "name": "_address",
          "type": "address"
        }
      ],
      "name": "removeVotingAdmin",
      "outputs": [],
      "stateMutability": "nonpayable",
      "type": "function"
    },
    {
      "inputs": [
        {
          "internalType": "uint16",
          "name": "_votingId",
          "type": "uint16"
        },
        {
          "internalType": "uint64",
          "name": "option",
          "type": "uint64"
        }
      ],
      "name": "removeVotingOption",
      "outputs": [],
      "stateMutability": "nonpayable",
      "type": "function"
    },
    {
      "inputs": [
        {
          "internalType": "uint16",
          "name": "_votingId",
          "type": "uint16"
        }
      ],
      "name": "setVotingActive",
      "outputs": [],
      "stateMutability": "nonpayable",
      "type": "function"
    },
    {
      "inputs": [
        {
          "internalType": "uint16",
          "name": "_votingId",
          "type": "uint16"
        }
      ],
      "name": "setVotingEnded",
      "outputs": [],
      "stateMutability": "nonpayable",
      "type": "function"
    },
    {
      "inputs": [
        {
          "internalType": "address",
          "name": "to",
          "type": "address"
        }
      ],
      "name": "transferOwnership",
      "outputs": [],
      "stateMutability": "nonpayable",
      "type": "function"
    },
    {
      "inputs": [
        {
          "internalType": "address",
          "name": "",
          "type": "address"
        }
      ],
      "name": "voters",
      "outputs": [
        {
          "internalType": "bool",
          "name": "enabled",
          "type": "bool"
        },
        {
          "internalType": "bool",
          "name": "added",
          "type": "bool"
        },
        {
          "internalType": "uint8",
          "name": "votingPower",
          "type": "uint8"
        }
      ],
      "stateMutability": "view",
      "type": "function"
    },
    {
      "inputs": [
        {
          "internalType": "uint16",
          "name": "",
          "type": "uint16"
        }
      ],
      "name": "votersAddresses",
      "outputs": [
        {
          "internalType": "address",
          "name": "",
          "type": "address"
        }
      ],
      "stateMutability": "view",
      "type": "function"
    },
    {
      "inputs": [
        {
          "internalType": "address",
          "name": "",
          "type": "address"
        },
        {
          "internalType": "uint256",
          "name": "",
          "type": "uint256"
        }
      ],
      "name": "votersVotes",
      "outputs": [
        {
          "internalType": "uint64",
          "name": "",
          "type": "uint64"
        }
      ],
      "stateMutability": "view",
      "type": "function"
    },
    {
      "inputs": [
        {
          "internalType": "uint64",
          "name": "",
          "type": "uint64"
        }
      ],
      "name": "votes",
      "outputs": [
        {
          "internalType": "uint32",
          "name": "timeofVote",
          "type": "uint32"
        },
        {
          "internalType": "uint16",
          "name": "votingId",
          "type": "uint16"
        },
        {
          "internalType": "uint8",
          "name": "power",
          "type": "uint8"
        },
        {
          "internalType": "address",
          "name": "voter",
          "type": "address"
        },
        {
          "internalType": "address",
          "name": "voingInsteadOf",
          "type": "address"
        },
        {
          "internalType": "string",
          "name": "option",
          "type": "string"
        }
      ],
      "stateMutability": "view",
      "type": "function"
    },
    {
      "inputs": [
        {
          "internalType": "uint16",
          "name": "",
          "type": "uint16"
        }
      ],
      "name": "votingAdmins",
      "outputs": [
        {
          "internalType": "address",
          "name": "admin",
          "type": "address"
        },
        {
          "internalType": "bool",
          "name": "enabled",
          "type": "bool"
        },
        {
          "internalType": "bool",
          "name": "added",
          "type": "bool"
        }
      ],
      "stateMutability": "view",
      "type": "function"
    },
    {
      "inputs": [
        {
          "internalType": "address",
          "name": "",
          "type": "address"
        }
      ],
      "name": "votingAdminsShort",
      "outputs": [
        {
          "internalType": "uint16",
          "name": "",
          "type": "uint16"
        }
      ],
      "stateMutability": "view",
      "type": "function"
    },
    {
      "inputs": [
        {
          "internalType": "uint16",
          "name": "",
          "type": "uint16"
        },
        {
          "internalType": "uint256",
          "name": "",
          "type": "uint256"
        }
      ],
      "name": "votingOptions",
      "outputs": [
        {
          "internalType": "uint64",
          "name": "",
          "type": "uint64"
        }
      ],
      "stateMutability": "view",
      "type": "function"
    },
    {
      "inputs": [
        {
          "internalType": "uint16",
          "name": "",
          "type": "uint16"
        }
      ],
      "name": "votings",
      "outputs": [
        {
          "internalType": "uint32",
          "name": "start",
          "type": "uint32"
        },
        {
          "internalType": "uint32",
          "name": "end",
          "type": "uint32"
        },
        {
          "internalType": "uint32",
          "name": "createdAt",
          "type": "uint32"
        },
        {
          "internalType": "bool",
          "name": "ended",
          "type": "bool"
        },
        {
          "internalType": "bool",
          "name": "activated",
          "type": "bool"
        },
        {
          "internalType": "address",
          "name": "creator",
          "type": "address"
        },
        {
          "internalType": "string",
          "name": "title",
          "type": "string"
        },
        {
          "internalType": "string",
          "name": "descriptions",
          "type": "string"
        }
      ],
      "stateMutability": "view",
      "type": "function"
    },
    {
      "inputs": [
        {
          "internalType": "uint16",
          "name": "",
          "type": "uint16"
        },
        {
          "internalType": "uint256",
          "name": "",
          "type": "uint256"
        }
      ],
      "name": "votingsVotes",
      "outputs": [
        {
          "internalType": "uint64",
          "name": "",
          "type": "uint64"
        }
      ],
      "stateMutability": "view",
      "type": "function"
    },
    {
      "inputs": [],
      "name": "getActiveVotings",
      "outputs": [
        {
          "internalType": "uint16[]",
          "name": "",
          "type": "uint16[]"
        }
      ],
      "stateMutability": "view",
      "type": "function"
    },
    {
      "inputs": [],
      "name": "getMyVotings",
      "outputs": [
        {
          "internalType": "uint16[]",
          "name": "",
          "type": "uint16[]"
        }
      ],
      "stateMutability": "view",
      "type": "function"
    },
    {
      "inputs": [
        {
          "internalType": "uint16",
          "name": "_votingId",
          "type": "uint16"
        }
      ],
      "name": "getVotingOptions",
      "outputs": [
        {
          "internalType": "uint64[]",
          "name": "",
          "type": "uint64[]"
        }
      ],
      "stateMutability": "view",
      "type": "function"
    },
    {
      "inputs": [
        {
          "internalType": "uint16",
          "name": "_votingId",
          "type": "uint16"
        },
        {
          "internalType": "address",
          "name": "_to",
          "type": "address"
        }
      ],
      "name": "delegateMyVote",
      "outputs": [],
      "stateMutability": "nonpayable",
      "type": "function"
    },
    {
      "inputs": [
        {
          "internalType": "uint16",
          "name": "_votingId",
          "type": "uint16"
        },
        {
          "internalType": "address",
          "name": "_to",
          "type": "address"
        }
      ],
      "name": "revokeDelegation",
      "outputs": [],
      "stateMutability": "nonpayable",
      "type": "function"
    },
    {
      "inputs": [
        {
          "internalType": "uint16",
          "name": "_votingId",
          "type": "uint16"
        }
      ],
      "name": "getMyDelegationOnVoting",
      "outputs": [
        {
          "internalType": "address",
          "name": "addrss",
          "type": "address"
        }
      ],
      "stateMutability": "view",
      "type": "function"
    },
    {
      "inputs": [
        {
          "internalType": "uint16",
          "name": "_votingId",
          "type": "uint16"
        },
        {
          "internalType": "uint64",
          "name": "_selectedOption",
          "type": "uint64"
        },
        {
          "internalType": "address",
          "name": "_onbehalfOf",
          "type": "address"
        }
      ],
      "name": "vote",
      "outputs": [],
      "stateMutability": "nonpayable",
      "type": "function"
    },
    {
      "inputs": [
        {
          "internalType": "uint16",
          "name": "_votingId",
          "type": "uint16"
        }
      ],
      "name": "getVotingsVotes",
      "outputs": [
        {
          "internalType": "uint64[]",
          "name": "",
          "type": "uint64[]"
        }
      ],
      "stateMutability": "view",
      "type": "function"
    },
    {
      "inputs": [],
      "name": "getVotersVotes",
      "outputs": [
        {
          "internalType": "uint64[]",
          "name": "",
          "type": "uint64[]"
        }
      ],
      "stateMutability": "view",
      "type": "function"
    }
  ],
  "bytecode": "0x6080806040523461008a57600080546001600160a01b031916339081178255907f8be0079c531659141344cd1fd0a4f28419497f9722a3daafe3b4186f6b6457e08180a36201000163ffffffff196003541617600355600161ffff1960075416176007556001808060401b03198181600a541617600a55600d541617600d55613d0090816100908239f35b600080fdfe608080604052600436101561001357600080fd5b60003560e01c9081630d9280c4146135395750806310ae5bb31461337557806317020503146133505780631bc28ea0146133295780631d07de0d14612f4b5780631d9d554c14612ec25780631f68752b14612c78578063284fe07914612c5657806329bef42914612c345780632e7bec4114612b1357806334f486c1146129db578063379e07bf1461293157806348e72cff146122d95780634d0b4d86146120c75780635052e424146120205780635cca38c514611f7257806361244c2614611f1a578063675115bc14611d115780637069569814611cc057806372b9102614611b9e5780637359838614611b7757806374d523a814611b235780637a63255514611a6b57806381435aa7146119df5780638f32d59b146119b75780639015e11214611308578063958c408e146112935780639914461614611256578063a09b24c31461118b578063a184a07f1461105b578063a3ec138d14611004578063a7771ee314610fc0578063ace7116414610f74578063b1e3a48f14610e43578063d954e91b14610b8f578063da66795e14610a7e578063ddd2d1fd146109a6578063deff5db514610968578063df72a953146108d7578063dfff944b1461058b578063ee9d93211461053f578063f27a82f4146104e3578063f2fde38b14610474578063f4ab9adf1461035f5763f574bab11461020e57600080fd5b3461035a5760208060031936011261035a576102286135f7565b61ffff1680600052600682526040600020906040516102468161365f565b825463ffffffff808093838280951682528882019083818b1c168252838160401c16604084015260608301908060601c60ff1615158252608084019060681c60ff1615158152600160a01b60019003998a60018201541660a0860152604051808060028401906102b59161381b565b036102c09082613696565b60c0860152604051806003819301906102d89161381b565b036102e39082613696565b60e08501525115156102f4906139d2565b51156102ff90613a15565b82815116838351161061031190613a15565b6103e8938491511604824216958691161161032b90613a15565b511604161061033990613a53565b60005260108252604060002033600052825260406000205416604051908152f35b600080fd5b3461035a57602036600319011261035a5761037861370d565b6000546001600160a01b0391908216330361035a571680600052600460205260ff60406000205460081c166104385780600052600460205260406000206201010062ffff001982541617905561ffff8060035460101c16600052600560205260406000208260018060a01b031982541617905563ffff0000610401600354928360101c16613978565b60101b169063ffff00001916176003557fa636f4a11e2d3ba7f89d042ecb0a6b886716e98cd49d8fd876ee0f73bced42b8600080a2005b60405162461bcd60e51b8152602060048201526014602482015273566f74657220416c72656164792065786973747360601b6044820152606490fd5b3461035a57602036600319011261035a5761048d61370d565b6000546001600160a01b03808216923384900361035a571691821561035a5782907f8be0079c531659141344cd1fd0a4f28419497f9722a3daafe3b4186f6b6457e0600080a36001600160a01b03191617600055005b3461035a57604036600319011261035a576104fc61370d565b6001600160a01b0316600090815260086020526040902080546024359081101561035a5761052f61ffff9160209361392a565b9190546040519260031b1c168152f35b3461035a57604036600319011261035a576105586135f7565b61ffff6024359116600052600f602052604060002090815481101561035a5761052f6001600160401b03916020936138f1565b3461035a57604036600319011261035a576105a46135f7565b61ffff6105af613723565b9116908160005260066020526106b263ffffffff8060406000206003610654604051926105db8461365f565b60ff81548681168652868160201c166020870152868160401c166040870152818160601c161515606087015260681c161515608085015260018060a01b0360018201541660a085015260405161063f81610638816002860161381b565b0382613696565b60c0850152610638604051809481930161381b565b60e0820152610668608082015115156139d2565b610676606082015115613a15565b61068a826020830151168383511610613a15565b816103e8916106a88383602084015116048342169687911611613a15565b5116041610613a53565b3360005260046020526106cf60ff60406000205460081c16613ab1565b3360005260046020526106e960ff60406000205416613ab1565b33600052600e602052604060002091604051808460208296549384815201906000526020600020926000905b8060038301106108935761074b945491818110610879575b81811061085c575b81811061083f575b10610831575b500384613696565b60005b83516001600160401b03808316918210156107d757908161079c93926107748389613964565b5116600052600c91826020528561ffff60406000205460201c16146107a1575b505050613af5565b61074e565b6107ab9088613964565b51166000526020526107cf3360018060a01b03600160406000200154161415613b0d565b858080610794565b6000848152601060209081526040808320338085529252822080546001600160a01b03191690556001600160a01b0387169186907f8bf6ec021c28863b87fa51010de279005e350b51981a27355a5a376175ff5c049080a4005b60c01c815260200186610743565b9260206001916001600160401b038560801c16815201930161073d565b9260206001916001600160401b038560401c168152019301610735565b9260206001916001600160401b038516815201930161072d565b916004919350608060019186546001600160401b038082168352808260401c16602084015281841c16604083015260c01c6060820152019401920186929391610715565b3461035a57602036600319011261035a576108f06135f7565b6000546001600160a01b0316330361035a5761ffff168060005260066020526040600020600160681b60ff60681b19825416179055600080516020613cab8339815191526060604051602081526018602082015277566f74696e672069732073657420416374697665206e6f7760401b6040820152a2005b3461035a57602036600319011261035a576001600160a01b0361098961370d565b166000526002602052602061ffff60406000205416604051908152f35b3461035a57602036600319011261035a5761ffff6109c26135f7565b16600052600660205260ff6040600020610a7a6003610a6c83549360018060a01b03600182015416610a1960405192610a0984610a02816002850161381b565b0385613696565b610a02604051809781930161381b565b60405196879663ffffffff8082168952808260201c1660208a01528160401c166040890152818160601c161515606089015260681c161515608087015260a08601526101008060c08701528501906138b1565b9083820360e08501526138b1565b0390f35b3461035a57604036600319011261035a57610a976135f7565b600080516020613cab8339815191526060610ab061364c565b92336000526020906002825261ffff90816040600020541660005260018352610ae360ff60406000205460a01c1661398b565b6000546001600160a01b039081163303610b69575b5016938460005260068252610b1860ff60406000205460681c16156139d2565b846000526006825263ffffffff6040600020911663ffffffff1982541617905560196040519180835282015278159bdd1a5b99c81cdd185c9d0819185d194818da185b99d959603a1b6040820152a2005b610b89908383166000526006855233906001604060002001541614613c2d565b86610af8565b3461035a57610b9d36613778565b3360005260206002815261ffff92836040600020541660005283600191828452610bd160ff60406000205460a01c1661398b565b6000546001600160a01b039081163303610e1e575b5016938460005260068352610c0660ff60406000205460681c16156139d2565b6001600160401b039182600a54169186600052600b855260406000209180604051610c308161367b565b89815287810182815260408201948a86528760005260098a52604060002092511662ff000083549251151560101b169162ffffff19161717815501915190815191868311610e0857610c8284546137e1565b601f8111610dbf575b508790601f8411600114610d3f579280806040999794610cd79794600080516020613c8b8339815191529d9c9a97600094610d34575b50501b916000199060031b1c1916179055613bd9565b600a5490610ce6818316613c15565b16906001600160401b03191617600a5572159bdd1a5b99c813dc1d1a5bdb881059191959606a1b610d1f835194848652848601906138b1565b918483039283828701526013815201520190a2005b015192508e80610cc1565b90601f9392931983169185600052896000209260005b818110610daa575092600080516020613c8b8339815191529b9a989592859260409b9996610cd7999610610d91575b505050811b019055613bd9565b015160001960f88460031b161c191690558c8080610d84565b82840151855593860193928b01928b01610d55565b8460005288600020601f850160051c8101918a8610610dfe575b601f0160051c019083905b828110610df2575050610c8b565b60008155018390610de4565b9091508190610dd9565b634e487b7160e01b600052604160045260246000fd5b610e3d9083831660005260068652339085604060002001541614613c2d565b86610be6565b3461035a57600036600319011261035a5761ffff8060075416610e658161394d565b90610e736040519283613696565b808252601f19610e828261394d565b01926020933685850137600191600083805b610ea7575b60405180610a7a8882613739565b838116838111610f6e57908185926000526006895260406000205460ff90818160681c169182610f5f575b5081610f46575b81610f2d575b50610f0e575b501691838314610ef85791840184610e94565b634e487b7160e01b600052601160045260246000fd5b92610f269193610f208483168a613964565b52613978565b9188610ee5565b905063ffffffff6103e88142938d1c160416118a610edf565b905063ffffffff42906103e88184160416111590610ed9565b606082901c161591508b610ed2565b50610e99565b3461035a57604036600319011261035a57610f8d6135f7565b61ffff6024359116600052600b602052604060002090815481101561035a5761052f6001600160401b03916020936138f1565b3461035a57602036600319011261035a576001600160a01b03610fe161370d565b1660005260046020526020600160ff60406000205460101c161015604051908152f35b3461035a57602036600319011261035a576001600160a01b0361102561370d565b166000526004602052606060406000205460ff6040519181811615158352818160081c161515602084015260101c166040820152f35b3461035a5760208060031936011261035a5761ffff6110786135f7565b16600052600f81526040600020604051908183825491828152019160005283600020906000915b81600384011061114b57928492610a7a96926110e195549184828210611132575b828210611116575b8282106110fa575b50106110ed575b5090500382613696565b60405191829182613608565b60c01c81520180866110d7565b600191946001600160401b038560801c168152019301846110d0565b600191946001600160401b038560401c168152019301846110c8565b600191946001600160401b0385168152019301846110c0565b9260016004918554906001600160401b03918281168252828160401c168a83015260809281841c16604083015260c01c606082015201940192019161109f565b3461035a57602036600319011261035a576111a461370d565b6000546001600160a01b0391908216330361035a57168060005260046020526111d760ff60406000205460081c16613ab1565b8060005260046020526111f7600160ff60406000205460101c1611613ab1565b806000526004602052604060002060001960ff825460101c160160ff8111610ef857815462ff0000191660109190911b62ff0000161790557f84600759115fa43b37442490b0820bda045fe013e33c564b7cc4e477776a70e2600080a2005b3461035a57602036600319011261035a5761ffff6112726135f7565b166000526005602052602060018060a01b0360406000205416604051908152f35b3461035a57602036600319011261035a576001600160401b036112b46137b5565b16600052600960205260ff6040600020610a7a60016112df835493610638604051809481930161381b565b604051938361ffff869516855260101c16151560208401526060604084015260608301906138b1565b3461035a57606036600319011261035a576113216135f7565b6113296137cb565b906044356001600160a01b038116810361035a5761ffff821660005260066020526113cd63ffffffff60406000206003611369604051926105db8461365f565b60e082015261137d608082015115156139d2565b61138b606082015115613a15565b61139f826020830151168383511610613a15565b816103e8916113bc83836020840151160483804216911611613a15565b5116041663ffffffff421611613a53565b60018060a01b038116600052600e602052604060002090604051808360208295549384815201906000526020600020926000905b80600383011061197357611437945491818110611959575b81811061193c575b81811061191f575b10611911575b500383613696565b60005b82516001600160401b03821610156114d857806001600160401b036114648161148d941686613964565b5116600052600c8060205261ffff861661ffff60406000205460201c1614611492575b50613af5565b61143a565b6001600160401b036114a681841687613964565b51166000526020526114d260018060a01b03841660018060a01b03600160406000200154161415613b0d565b86611487565b5090503360005260046020526114f860ff60406000205460081c16613ab1565b33600052600460205261151260ff60406000205416613ab1565b6001600160a01b0381163303611887575b6001600160401b038316600052600960205261159760406000206115886040519161154d8361367b565b600161157b82549261ffff8416865260ff602087019460101c1615158452610638604051809481930161381b565b6040840152511515613b74565b61ffff80851691511614613b74565b6001600160401b03600d541660018060a01b038216600052600460205260ff60406000205460101c166001600160401b0385166000526009602052600160406000200190604051918260c08101106001600160401b0360c085011117610e08576116459160c0840160405263ffffffff42168452602084019061ffff8816825260408501908152606085019033825261164c608087019460018060a01b038a1686526040519687809261381b565b0386613696565b60a0860194855286600052600c60205263ffffffff604060002096511666ff00000000000065ffff000000008854955160201b16925160301b1692600160381b600160d81b03905160381b169364ffffffffff60d81b16171717178355600183019060018060a01b0390511660018060a01b0319825416179055518051906001600160401b038211610e08576116e560028401546137e1565b601f811161183c575b50602090601f83116001146117ba579361ffff95936002846001600160401b0397956117719589976000926117af575b50508160011b916000199060031b1c1916179101555b60018060a01b038416600052600e602052611753816040600020613bd9565b858716600052600f60205261176c816040600020613bd9565b613c15565b168219600d541617600d5560018060a01b0316931691167faaf5e41ce90acccc346cf544ce33ba98a70fe24d31cbe76864f9befa1c366c84600080a4005b015190508c8061171e565b906002840160005260206000209160005b601f19851681106118245750936002600185611771956001600160401b03999561ffff9b998b99601f1981161061180b575b505050811b01910155611734565b015160001960f88460031b161c191690558c80806117fd565b919260206001819286850151815501940192016117cb565b600284016000526020600020601f840160051c8101916020851061187d575b601f0160051c01905b81811061187157506116ee565b60008155600101611864565b909150819061185b565b61ffff821660009081526010602090815260408083206001600160a01b0385811685529252909120541633146115235760405162461bcd60e51b815260206004820152602c60248201527f596f752068617665206e6f20726967687420746f20766f746520666f7220736f60448201526b6d656f6e65277320656c736560a01b6064820152608490fd5b60c01c81526020018761142f565b9260206001916001600160401b038560801c168152019301611429565b9260206001916001600160401b038560401c168152019301611421565b9260206001916001600160401b0385168152019301611419565b916004919350608060019186546001600160401b038082168352808260401c16602084015281841c16604083015260c01c6060820152019401920185929391611401565b3461035a57600036600319011261035a57602060018060a01b03600054163314604051908152f35b3461035a57602036600319011261035a576119f861370d565b6000546001600160a01b0391908216330361035a5716806000526004602052611a2b60ff60406000205460081c16613ab1565b8060005260046020526040600020600160ff198254161790557ff82c1433711971ea9322bdc605f131ef667575de2f51e3b9d26cd68f44299685600080a2005b3461035a57600036600319011261035a57336000526020600e81526040600020604051908183825491828152019160005283600020906000915b816003840110611ae357928492610a7a96926110e19554918482821061113257828210611116578282106110fa5750106110ed575090500382613696565b9260016004918554906001600160401b03918281168252828160401c168a83015260809281841c16604083015260c01c6060820152019401920191611aa5565b3461035a57602036600319011261035a576001600160a01b03611b4461370d565b16600052600260205261ffff604060002054166000526001602052602060ff60406000205460a01c166040519015158152f35b3461035a57600036600319011261035a5760206001600160401b03600a5416604051908152f35b3461035a57604036600319011261035a57611bb76135f7565b600080516020613c8b833981519152611bce6137cb565b91336000526001600160401b036020916002835261ffff90816040600020541660005260018452611c0960ff60406000205460a01c1661398b565b6000546001600160a01b039081163303611c9a575b5016938460005260068352611c3e60ff60406000205460681c16156139d2565b16600052600981526040806000209162ff000019835416835574159bdd1a5b99c81bdc1d1a5bdb881c995b5bdd9959605a1b611c858351948486526001858701910161381b565b918483039283828701526015815201520190a2005b611cba908383166000526006865233906001604060002001541614613c2d565b86611c1e565b3461035a57604036600319011261035a57611cd961370d565b6001600160a01b03166000908152600e6020526040902080546024359081101561035a5761052f6001600160401b03916020936138f1565b3461035a57611d1f36613778565b903360005260206002815261ffff8060406000205416600052600192838352611d5260ff60406000205460a01c1661398b565b6000546001600160a01b039081163303611ef5575b5016918260005260068252611d8760ff60406000205460681c16156139d2565b82600052600682526002604060002001908451946001600160401b038611610e0857611db383546137e1565b601f8111611eac575b508390601f8711600114611e3557958060609594938193600080516020613cab8339815191529899600094611e2a575b50501b916000199060031b1c19161790555b60146040519180835282015273159bdd1a5b99c81d1a5d1b194818da185b99d95960621b6040820152a2005b015192508980611dec565b90601f1987169184600052856000209260005b818110611e975750916060969594939189600080516020613cab833981519152999a9410611e7e575b505050811b019055611dfe565b015160001960f88460031b161c19169055878080611e71565b82840151855593850193928701928701611e48565b8360005284600020601f880160051c810191868910611eeb575b601f0160051c019083905b828110611edf575050611dbc565b60008155018390611ed1565b9091508190611ec6565b611f149083831660005260068552339086604060002001541614613c2d565b85611d67565b3461035a57602036600319011261035a5761ffff611f366135f7565b166000526001602052606060406000205460ff6040519160018060a01b0381168352818160a01c161515602084015260a81c1615156040820152f35b3461035a57602036600319011261035a57611f8b61370d565b6000546001600160a01b0391908216330361035a571680600052600260205261ffff80604060002054166000526001602052611fd160ff60406000205460a01c1661398b565b816000526002602052604060002054166000526001602052604060002060ff60a01b1981541690557fa3b62bc36326052d97ea62d63c3d60308ed4c3ea8ac079dd8499f1e9c4f80c0f600080a2005b3461035a57602036600319011261035a576001600160401b036120416137b5565b16600052600c60205260406000208054610a7a600260018060a01b03936120808560018301541691612079604051809581930161381b565b0383613696565b604051948463ffffffff879616865261ffff8160201c16602087015260ff8160301c16604087015260381c166060850152608084015260c060a084015260c08301906138b1565b3461035a576120d536613778565b903360005260206002815261ffff806040600020541660005260019283835261210860ff60406000205460a01c1661398b565b6000546001600160a01b0390811633036122b4575b501691826000526006825261213d60ff60406000205460681c16156139d2565b82600052600682526003604060002001908451946001600160401b038611610e085761216983546137e1565b601f811161226b575b508390601f87116001146121f457958060609594938193600080516020613cab83398151915298996000946121e9575b50501b916000199060031b1c19161790555b601a604051918083528201527f566f74696e67206465736372697074696f6e206368616e6765640000000000006040820152a2005b0151925089806121a2565b90601f1987169184600052856000209260005b8181106122565750916060969594939189600080516020613cab833981519152999a941061223d575b505050811b0190556121b4565b015160001960f88460031b161c19169055878080612230565b82840151855593850193928701928701612207565b8360005284600020601f880160051c8101918689106122aa575b601f0160051c019083905b82811061229e575050612172565b60008155018390612290565b9091508190612285565b6122d39083831660005260068552339086604060002001541614613c2d565b8561211d565b3461035a57600036600319011261035a5733600052600260205261ffff60406000205416600052600160205261231960ff60406000205460a01c1661398b565b3360005260086020526040600020604051908190602081549384815201906000526020600020926000935b81600f86011061286357546123dd948493929081811061284e575b818110612836575b81811061281f575b818110612807575b8181106127ef575b8181106127d7575b8181106127bf575b8181106127a7575b81811061278f575b818110612777575b81811061275f575b818110612747575b81811061272f575b818110612717575b8181106126ff575b106126f1575b500390613696565b3360005260086020526040600020604051908190602081549384815201906000526020600020926000935b81600f8601106126235791610a7a9484926124a594549181811061260e575b8181106125f6575b8181106125df575b8181106125c7575b8181106125af575b818110612597575b81811061257f575b818110612567575b81811061254f575b818110612537575b81811061251f575b818110612507575b8181106124ef575b8181106124d7575b8181106124bf575b106124b1575b500382613696565b60405191829182613739565b60f01c81526020018561249d565b92602060019161ffff8560e01c168152019301612497565b92602060019161ffff8560d01c16815201930161248f565b92602060019161ffff8560c01c168152019301612487565b92602060019161ffff8560b01c16815201930161247f565b92602060019161ffff8560a01c168152019301612477565b92602060019161ffff8560901c16815201930161246f565b92602060019161ffff8560801c168152019301612467565b92602060019161ffff8560701c16815201930161245f565b92602060019161ffff8560601c168152019301612457565b92602060019161ffff8560501c16815201930161244f565b92602060019161ffff8560401c168152019301612447565b92602060019161ffff8560301c16815201930161243f565b92602060019161ffff85831c168152019301612437565b92602060019161ffff8560101c16815201930161242f565b92602060019161ffff85168152019301612427565b916001610200601092855461ffff8116825261ffff81861c16602083015261ffff8160201c16604083015261ffff816060828260301c168186015282826080828260401c1681890152828260501c1660a0890152828260c0951c1684890152828260701c1660e08901521c16610100860152828260901c16610120860152828260a01c16610140860152828260b01c166101608601521c1661018083015261ffff8160d01c166101a083015261ffff8160e01c166101c083015260f01c6101e0820152019301940193612408565b60f01c8152602001846123d5565b92602060019161ffff8560e01c1681520193016123cf565b92602060019161ffff8560d01c1681520193016123c7565b92602060019161ffff8560c01c1681520193016123bf565b92602060019161ffff8560b01c1681520193016123b7565b92602060019161ffff8560a01c1681520193016123af565b92602060019161ffff8560901c1681520193016123a7565b92602060019161ffff8560801c16815201930161239f565b92602060019161ffff8560701c168152019301612397565b92602060019161ffff8560601c16815201930161238f565b92602060019161ffff8560501c168152019301612387565b92602060019161ffff8560401c16815201930161237f565b92602060019161ffff8560301c168152019301612377565b92602060019161ffff85831c16815201930161236f565b92602060019161ffff8560101c168152019301612367565b92602060019161ffff8516815201930161235f565b916001610200601092855461ffff8116825261ffff81861c16602083015261ffff8160201c16604083015261ffff816060828260301c168186015282826080828260401c1681890152828260501c1660a0890152828260c0951c1684890152828260701c1660e08901521c16610100860152828260901c16610120860152828260a01c16610140860152828260b01c166101608601521c1661018083015261ffff8160d01c166101a083015261ffff8160e01c166101c083015260f01c6101e0820152019301940193612344565b3461035a57602036600319011261035a5761294a61370d565b6000546001600160a01b0391908216330361035a571680600052600460205261297d60ff60406000205460081c16613ab1565b8060005260046020526040600020600160ff825460101c160160ff8111610ef857815462ff0000191660109190911b62ff0000161790557f4e7e2c6b7807915515b04d4cd84bf7cba8a16c67281691562abfa0def6e922fb600080a2005b3461035a5760208060031936011261035a576129f561370d565b6000546001600160a01b03908116330361035a5761ffff9181836003541691169384600052600281528360406000205416600052600181526040600020805460ff8160a81c1615600014612afc575050612ac892856000526002825260406000208361ffff1982541617905560405191612a6e8361367b565b8683526001818401818152604080860183815260008881529390945290912093518454915192516001600160b01b031990921693169290921790151560a01b60ff60a01b161790151560a81b60ff60a81b16179055613978565b1661ffff1960035416176003557f2dbe9fb88463d989acccabbb6ee06901f83672eb78e04a11ff48dd8f69a27cda600080a2005b60ff60a01b1916600160a01b179055509050612ac8565b3461035a57604036600319011261035a57612b2c6135f7565b600080516020613cab8339815191526060612b4561364c565b9233600052612bdf6020916002835261ffff90816040600020541660005260018452612b7b60ff60406000205460a01c1661398b565b6000546001600160a01b039081163303612c0e575b5016948560005260068352612bb060ff60406000205460681c16156139d2565b856000526006835260406000209067ffffffff0000000082549160201b169067ffffffff000000001916179055565b60176040519180835282015276159bdd1a5b99c8195b990819185d194818da185b99d959604a1b6040820152a2005b612c2e908383166000526006865233906001604060002001541614613c2d565b87612b90565b3461035a57600036600319011261035a57602061ffff60035416604051908152f35b3461035a57600036600319011261035a57602061ffff60075416604051908152f35b3461035a57604036600319011261035a57612c916135f7565b61ffff612c9c613723565b9116806000526006602052612cc763ffffffff8060406000206003610654604051926105db8461365f565b336000526004602052612ce460ff60406000205460081c16613ab1565b336000526004602052612cfe60ff60406000205416613ab1565b33600052600e602052604060002090604051808360208295549384815201906000526020600020926000905b806003830110612e7e57612d5f945491818110612e64575b818110612e47575b818110612e2a575b10612e1c57500383613696565b60005b82516001600160401b0380831691821015612dbe579081612daf9392612d888388613964565b5116600052600c91826020528561ffff60406000205460201c1614612db457505050613af5565b612d62565b6107ab9087613964565b6000848152601060209081526040808320338085529252822080546001600160a01b0319166001600160a01b038a169081179091559186907f4a76b472a0128fea6eeb0532d342f4b6d5b91f55560ea425a59ac32aaf0a32e99080a4005b60c01c81526020018661142f565b9260206001916001600160401b038560801c168152019301612d52565b9260206001916001600160401b038560401c168152019301612d4a565b9260206001916001600160401b0385168152019301612d42565b916004919350608060019186546001600160401b038082168352808260401c16602084015281841c16604083015260c01c6060820152019401920185929391612d2a565b3461035a57602036600319011261035a57612edb61370d565b6000546001600160a01b0391908216330361035a5716806000526004602052612f0e60ff60406000205460081c16613ab1565b806000526004602052604060002060ff1981541690557f16dc8b56b1ed852b4d628030204bb4d83910ae764e85489e6a9669b462a3cb1c600080a2005b3461035a57608036600319011261035a5760043563ffffffff811680910361035a57612f7561364c565b906044356001600160401b03811161035a57612f959036906004016136b7565b916064356001600160401b03811161035a57612fb59036906004016136b7565b9133600052600260205261ffff604060002054166000526001602052612fe560ff60406000205460a01c1661398b565b60075461ffff1660008181526006602090815260409091206001810180546001600160a01b03191633179055805467ffffffff000000001990941667ffffffffffffffff199094169390931793901b67ffffffff000000001692909217815583516001600160401b038111610e085761306160028301546137e1565b601f81116132de575b50602094601f821160011461327257948192939495600092613267575b50508160011b916000199060031b1c19161760028201555b6003810183516001600160401b038111610e08576130bd82546137e1565b601f811161321f575b50602094601f82116001146131b9579481929394956000926131ae575b50508160011b916000199060031b1c19161790555b805463ffffffff60401b4260401b169063ffffffff60401b191617905533600052600860205261ffff61312f604060002092613978565b168061ffff196007541617600755815491600160401b831015610e08578261315e91600160209501815561392a565b81549060031b9061ffff84831b921b191617905580600080516020613cab8339815191526060604051858152600c868201526b159bdd1a5b99c8105919195960a21b6040820152a2604051908152f35b0151905085806130e3565b601f198216958360005260206000209160005b888110613207575083600195969798106131ee575b505050811b0190556130f8565b015160001960f88460031b161c191690558580806131e1565b919260206001819286850151815501940192016131cc565b826000526020600020601f830160051c8101916020841061325d575b601f0160051c01905b81811061325157506130c6565b60008155600101613244565b909150819061323b565b015190508580613087565b601f198216956002840160005260206000209160005b8881106132c6575083600195969798106132ad575b505050811b01600282015561309f565b015160001960f88460031b161c1916905585808061329d565b91926020600181928685015181550194019201613288565b600283016000526020600020601f830160051c8101916020841061331f575b601f0160051c01905b818110613313575061306a565b60008155600101613306565b90915081906132fd565b3461035a57600036600319011261035a5760206001600160401b03600d5416604051908152f35b3461035a57600036600319011261035a57602061ffff60035460101c16604051908152f35b3461035a5760208060031936011261035a57600080516020613cab83398151915260606133a06135f7565b9233600052600281526134ca61ffff8060406000205416600052600183526133d260ff60406000205460a01c1661398b565b6000546001600160a01b03969087163303613515575b16948560005260068352600361348f60406000206040516134088161365f565b6106a8876134a384549761349c63ffffffff998a998a998a998a84168a528a84898c01991c1688528a8460401c1660408b015260608a019560608560ff911c161515875260ff60808c019560681c161515855260018201541660a08b015260405161347a81610638816002860161381b565b60c08b0152610638604051809481930161381b565b60e08801525115156139d2565b5115613a15565b6134b4848251168585511610613a15565b6103e89485915116048342169687911611613a15565b836000526006815260406000206001831b60ff841b1982541617905560176040519180835282015276566f74696e672069732073657420656e646564206e6f7760481b6040820152a2005b8181166000526006845261353433886001604060002001541614613c2d565b6133e8565b3461035a576020908160031936011261035a5761ffff6135576135f7565b16600052600b8252604060002080548083528383019160005283600020906000915b8160038401106135b757928492610a7a96926110e19554918482821061113257828210611116578282106110fa5750106110ed575090500382613696565b9260016004918554906001600160401b03918281168252828160401c168a83015260809281841c16604083015260c01c6060820152019401920191613579565b6004359061ffff8216820361035a57565b6020908160408183019282815285518094520193019160005b82811061362f575050505090565b83516001600160401b031685529381019392810192600101613621565b6024359063ffffffff8216820361035a57565b61010081019081106001600160401b03821117610e0857604052565b606081019081106001600160401b03821117610e0857604052565b90601f801991011681019081106001600160401b03821117610e0857604052565b81601f8201121561035a578035906001600160401b038211610e0857604051926136eb601f8401601f191660200185613696565b8284526020838301011161035a57816000926020809301838601378301015290565b600435906001600160a01b038216820361035a57565b602435906001600160a01b038216820361035a57565b6020908160408183019282815285518094520193019160005b828110613760575050505090565b835161ffff1685529381019392810192600101613752565b90604060031983011261035a5760043561ffff8116810361035a5791602435906001600160401b03821161035a576137b2916004016136b7565b90565b600435906001600160401b038216820361035a57565b602435906001600160401b038216820361035a57565b90600182811c92168015613811575b60208310146137fb57565b634e487b7160e01b600052602260045260246000fd5b91607f16916137f0565b906000929180549161382c836137e1565b91828252600193848116908160001461388e575060011461384e575b50505050565b90919394506000526020928360002092846000945b83861061387a575050505001019038808080613848565b805485870183015294019385908201613863565b9294505050602093945060ff191683830152151560051b01019038808080613848565b919082519283825260005b8481106138dd575050826000602080949584010152601f8019910116010190565b6020818301810151848301820152016138bc565b919091805483101561391457600052601860206000208360021c019260031b1690565b634e487b7160e01b600052603260045260246000fd5b919091805483101561391457600052601e60206000208360041c019260011b1690565b6001600160401b038111610e085760051b60200190565b80518210156139145760209160051b010190565b90600161ffff80931601918211610ef857565b1561399257565b60405162461bcd60e51b815260206004820152601860248201527720b2323932b9b99034b9903737ba1030b7321020b236b4b760411b6044820152606490fd5b156139d957565b60405162461bcd60e51b8152602060048201526014602482015273566f74696e67206973204e6f742041637469766560601b6044820152606490fd5b15613a1c57565b60405162461bcd60e51b815260206004820152600f60248201526e159bdd1a5b99c81a5cc8115b991959608a1b6044820152606490fd5b15613a5a57565b60405162461bcd60e51b815260206004820152602960248201527f57696572646c7920766f74696e67207374617274206973204e4f54206c657373604482015268207468616e206e6f7760b81b6064820152608490fd5b15613ab857565b60405162461bcd60e51b8152602060048201526015602482015274566f74657220646f6573206e6f742065786973747360581b6044820152606490fd5b6001600160401b03809116908114610ef85760010190565b15613b1457565b60405162461bcd60e51b815260206004820152603260248201527f596f75206861766520616c72656164792061207265676973746572656420766f604482015271746520666f72207468697320766f74696e6760701b6064820152608490fd5b15613b7b57565b60405162461bcd60e51b815260206004820152603060248201527f53656c6563746564204f7074696f6e206973206e6f7420696e2076616c69642060448201526f03232b334b732b21037b83a34b7b739960851b6064820152608490fd5b8054600160401b811015610e0857613bf6916001820181556138f1565b819291549060031b916001600160401b03809116831b921b1916179055565b9060016001600160401b0380931601918211610ef857565b15613c3457565b60405162461bcd60e51b815260206004820152602860248201527f596f752068617665206e6f2061636365737320746f206d616e616765207468696044820152677320766f74696e6760c01b6064820152608490fdfe0274ac91bea45298e37aa907ca1900a23372ae98246ac8615d56ed3f3d730cb5294e9ee3aea73d37cca6195bdae37d24a75aa7e045226401e744c1bb7915ebaea2646970667358221220b96fc37020f3974b611c4d25babaa9fc8f6d5ac17b5f5938bb4c552427daa1ce64736f6c63430008130033",
  "immutableReferences": {},
  "source": "// SPDX-License-Identifier: MIT\npragma solidity 0.8.19;\nimport  \"./DaobuilderDataStorage.sol\";\ncontract Daobuilder is DaobuilderDataStorage{\n\n  \n\n    function getActiveVotings() public view returns (uint16[] memory){\n        uint16 _lastVotingId = lastVotingId;\n        uint16[] memory activeVotings = new uint16[](_lastVotingId);\n        mapping(uint16=>Voting) storage _votings = votings; \n        uint16 counter = 0;\n        for(uint16 i = 1; i<=_lastVotingId;i++){\n            if(_votings[i].activated && _votings[i].ended==false && _votings[i].start/1000 <= block.timestamp && _votings[i].end/1000 > block.timestamp){\n                activeVotings[counter] = i;\n                counter+=1;\n            }\n        }\n        return activeVotings;\n    }\n\n    function getMyVotings() public view isAdmin(msg.sender) returns (uint16[] memory){\n        uint16[] memory MyVotingList = myVotings[msg.sender];\n        return myVotings[msg.sender];\n    }\n    \n    function getVotingOptions(uint16 _votingId) public view returns (uint64[] memory){\n        uint64[] memory MyVotingList = votingOptions[_votingId];\n        return MyVotingList;\n    }\n    \n    function delegateMyVote(uint16 _votingId ,address _to) \n        external  isVotingActive(_votingId) \n                  VoterCanVote(msg.sender) \n                  NoVoteRegesteredYet(_votingId , msg.sender){\n\n        Delegations storage delegationsOnthisVoting = votingsDelegations[_votingId];\n        delegationsOnthisVoting.delegaterToDelegatee[msg.sender] = _to;\n        emit VotingRightDelegated(_votingId , msg.sender , _to);\n    }\n\n    function revokeDelegation(uint16 _votingId ,address _to)\n        external  isVotingActive(_votingId) \n                  VoterCanVote(msg.sender)\n                  NoVoteRegesteredYet(_votingId , msg.sender){\n        Delegations storage delegationsOnthisVoting = votingsDelegations[_votingId];\n        delete delegationsOnthisVoting.delegaterToDelegatee[msg.sender];\n        emit VotingRightUnDelegated(_votingId , msg.sender , _to);\n    }\n\n    function getMyDelegationOnVoting(uint16 _votingId) public view\n                    isVotingActive(_votingId) returns (address addrss){\n            Delegations storage thisVotingDelegations = votingsDelegations[_votingId];\n            return thisVotingDelegations.delegaterToDelegatee[msg.sender];\n    }\n\n\n    function vote(uint16 _votingId , uint64 _selectedOption , address _onbehalfOf) \n        external isVotingActive(_votingId)\n                 NoVoteRegesteredYet(_votingId,_onbehalfOf)\n                 VoterCanVote(msg.sender)\n                 CanVoteBehalfOf(_votingId ,msg.sender , _onbehalfOf)\n                 IsOptionValid(_votingId , _selectedOption){\n        uint64 _lastVoteId = lastVoteId;\n        // lastVoteId+=1;\n       \n        votes[_lastVoteId] = Vote(uint32(block.timestamp),_votingId,voters[_onbehalfOf].votingPower,msg.sender,_onbehalfOf,options[_selectedOption].option);\n        uint64[] storage userVotes = votersVotes[_onbehalfOf];\n        userVotes.push(_lastVoteId);\n        uint64[] storage votingVotes = votingsVotes[_votingId];\n        votingVotes.push(_lastVoteId);\n        lastVoteId =_lastVoteId+1;\n        emit VoteRegistered(_votingId , _selectedOption , _onbehalfOf);\n    } \n\n\n    function getVotingsVotes(uint16 _votingId) public view returns (uint64[] memory){\n        uint64[] memory Votingvotes = votingsVotes[_votingId];\n        return Votingvotes;\n    }\n    function getVotersVotes() public view returns (uint64[] memory){\n        uint64[] memory MyVotes = votersVotes[msg.sender];\n        return MyVotes;\n    }\n\n}",
  "sourcePath": "/home/aca/smartcontracts/daobuilder/contracts/Daobuilder.sol",
  "compiler": {
    "name": "solc",
    "version": "0.8.19+commit.7dd6d404.Emscripten.clang"
  },
  "schemaVersion": "3.4.16",
  "updatedAt": "2025-03-28T18:07:02.052Z",
  "devdoc": {
    "kind": "dev",
    "methods": {},
    "version": 1
  },
  "userdoc": {
    "events": {
      "NewAdminAdded(address)": {
        "notice": "Events section "
      }
    },
    "kind": "user",
    "methods": {
      "addVoter(address)": {
        "notice": "Manage Voters"
      },
      "addVoting(uint32,uint32,string,string)": {
        "notice": "Manage Votings"
      },
      "addVotingAdmin(address)": {
        "notice": "Manage Voting Admins"
      },
      "addVotingOption(uint16,string)": {
        "notice": "Manage Voting Options"
      }
    },
    "version": 1
  }
}