{
  "contractName": "DaobuilderDataStorage",
  "abi": [
    {
      "inputs": [],
      "name": "NoAccessToManage",
      "type": "error"
    },
    {
      "inputs": [],
      "name": "NoRightToVoteOnBehalfOf",
      "type": "error"
    },
    {
      "inputs": [],
      "name": "NotAnAdmin",
      "type": "error"
    },
    {
      "inputs": [],
      "name": "VoteAlreadyRegistered",
      "type": "error"
    },
    {
      "inputs": [],
      "name": "VoterAlreadyExists",
      "type": "error"
    },
    {
      "inputs": [],
      "name": "VoterNotExists",
      "type": "error"
    },
    {
      "inputs": [],
      "name": "VotingEnded",
      "type": "error"
    },
    {
      "inputs": [],
      "name": "VotingNotActive",
      "type": "error"
    },
    {
      "inputs": [],
      "name": "VotingOptionInvalid",
      "type": "error"
    },
    {
      "inputs": [],
      "name": "VotingStartInFuture",
      "type": "error"
    },
    {
      "anonymous": false,
      "inputs": [
        {
          "indexed": true,
          "internalType": "address",
          "name": "admin",
          "type": "address"
        }
      ],
      "name": "AdminRemoved",
      "type": "event"
    },
    {
      "anonymous": false,
      "inputs": [
        {
          "indexed": true,
          "internalType": "address",
          "name": "admin",
          "type": "address"
        }
      ],
      "name": "NewAdminAdded",
      "type": "event"
    },
    {
      "anonymous": false,
      "inputs": [
        {
          "indexed": true,
          "internalType": "address",
          "name": "previousOwner",
          "type": "address"
        },
        {
          "indexed": true,
          "internalType": "address",
          "name": "newOwner",
          "type": "address"
        }
      ],
      "name": "OwnershipTransferred",
      "type": "event"
    },
    {
      "anonymous": false,
      "inputs": [
        {
          "indexed": true,
          "internalType": "uint16",
          "name": "votingIndex",
          "type": "uint16"
        },
        {
          "indexed": true,
          "internalType": "uint64",
          "name": "option",
          "type": "uint64"
        },
        {
          "indexed": true,
          "internalType": "address",
          "name": "voter",
          "type": "address"
        }
      ],
      "name": "VoteRegistered",
      "type": "event"
    },
    {
      "anonymous": false,
      "inputs": [
        {
          "indexed": true,
          "internalType": "address",
          "name": "voter",
          "type": "address"
        }
      ],
      "name": "VoterAdded",
      "type": "event"
    },
    {
      "anonymous": false,
      "inputs": [
        {
          "indexed": true,
          "internalType": "address",
          "name": "voter",
          "type": "address"
        }
      ],
      "name": "VoterDisabled",
      "type": "event"
    },
    {
      "anonymous": false,
      "inputs": [
        {
          "indexed": true,
          "internalType": "address",
          "name": "voter",
          "type": "address"
        }
      ],
      "name": "VoterEnabled",
      "type": "event"
    },
    {
      "anonymous": false,
      "inputs": [
        {
          "indexed": true,
          "internalType": "address",
          "name": "voter",
          "type": "address"
        }
      ],
      "name": "VoterPowerDecreased",
      "type": "event"
    },
    {
      "anonymous": false,
      "inputs": [
        {
          "indexed": true,
          "internalType": "address",
          "name": "voter",
          "type": "address"
        }
      ],
      "name": "VoterPowerIncreased",
      "type": "event"
    },
    {
      "anonymous": false,
      "inputs": [
        {
          "indexed": true,
          "internalType": "address",
          "name": "voter",
          "type": "address"
        }
      ],
      "name": "VoterRemoved",
      "type": "event"
    },
    {
      "anonymous": false,
      "inputs": [
        {
          "indexed": true,
          "internalType": "uint16",
          "name": "votingIndex",
          "type": "uint16"
        },
        {
          "indexed": false,
          "internalType": "string",
          "name": "msg",
          "type": "string"
        }
      ],
      "name": "VotingDataChanged",
      "type": "event"
    },
    {
      "anonymous": false,
      "inputs": [
        {
          "indexed": true,
          "internalType": "uint16",
          "name": "votingIndex",
          "type": "uint16"
        },
        {
          "indexed": false,
          "internalType": "string",
          "name": "option",
          "type": "string"
        },
        {
          "indexed": false,
          "internalType": "string",
          "name": "msg",
          "type": "string"
        }
      ],
      "name": "VotingOptionChanged",
      "type": "event"
    },
    {
      "anonymous": false,
      "inputs": [
        {
          "indexed": true,
          "internalType": "uint16",
          "name": "votingIndex",
          "type": "uint16"
        },
        {
          "indexed": true,
          "internalType": "address",
          "name": "delegater",
          "type": "address"
        },
        {
          "indexed": true,
          "internalType": "address",
          "name": "delegatee",
          "type": "address"
        }
      ],
      "name": "VotingRightDelegated",
      "type": "event"
    },
    {
      "anonymous": false,
      "inputs": [
        {
          "indexed": true,
          "internalType": "uint16",
          "name": "votingIndex",
          "type": "uint16"
        },
        {
          "indexed": true,
          "internalType": "address",
          "name": "delegater",
          "type": "address"
        },
        {
          "indexed": true,
          "internalType": "address",
          "name": "delegatee",
          "type": "address"
        }
      ],
      "name": "VotingRightUnDelegated",
      "type": "event"
    },
    {
      "inputs": [],
      "name": "isOwner",
      "outputs": [
        {
          "internalType": "bool",
          "name": "",
          "type": "bool"
        }
      ],
      "stateMutability": "view",
      "type": "function"
    },
    {
      "inputs": [],
      "name": "lastOptionId",
      "outputs": [
        {
          "internalType": "uint64",
          "name": "",
          "type": "uint64"
        }
      ],
      "stateMutability": "view",
      "type": "function"
    },
    {
      "inputs": [],
      "name": "lastVoteId",
      "outputs": [
        {
          "internalType": "uint64",
          "name": "",
          "type": "uint64"
        }
      ],
      "stateMutability": "view",
      "type": "function"
    },
    {
      "inputs": [],
      "name": "lastVoterId",
      "outputs": [
        {
          "internalType": "uint16",
          "name": "",
          "type": "uint16"
        }
      ],
      "stateMutability": "view",
      "type": "function"
    },
    {
      "inputs": [],
      "name": "lastVotingAdminId",
      "outputs": [
        {
          "internalType": "uint16",
          "name": "",
          "type": "uint16"
        }
      ],
      "stateMutability": "view",
      "type": "function"
    },
    {
      "inputs": [],
      "name": "lastVotingId",
      "outputs": [
        {
          "internalType": "uint16",
          "name": "",
          "type": "uint16"
        }
      ],
      "stateMutability": "view",
      "type": "function"
    },
    {
      "inputs": [
        {
          "internalType": "uint64",
          "name": "",
          "type": "uint64"
        }
      ],
      "name": "options",
      "outputs": [
        {
          "internalType": "bool",
          "name": "enabled",
          "type": "bool"
        },
        {
          "internalType": "string",
          "name": "option",
          "type": "string"
        },
        {
          "internalType": "uint16",
          "name": "votingId",
          "type": "uint16"
        }
      ],
      "stateMutability": "view",
      "type": "function"
    },
    {
      "inputs": [
        {
          "internalType": "address",
          "name": "to",
          "type": "address"
        }
      ],
      "name": "transferOwnership",
      "outputs": [],
      "stateMutability": "payable",
      "type": "function"
    },
    {
      "inputs": [
        {
          "internalType": "address",
          "name": "",
          "type": "address"
        }
      ],
      "name": "voters",
      "outputs": [
        {
          "internalType": "bool",
          "name": "enabled",
          "type": "bool"
        },
        {
          "internalType": "bool",
          "name": "added",
          "type": "bool"
        },
        {
          "internalType": "uint8",
          "name": "votingPower",
          "type": "uint8"
        }
      ],
      "stateMutability": "view",
      "type": "function"
    },
    {
      "inputs": [
        {
          "internalType": "uint16",
          "name": "",
          "type": "uint16"
        }
      ],
      "name": "votersAddresses",
      "outputs": [
        {
          "internalType": "address",
          "name": "",
          "type": "address"
        }
      ],
      "stateMutability": "view",
      "type": "function"
    },
    {
      "inputs": [
        {
          "internalType": "uint64",
          "name": "",
          "type": "uint64"
        }
      ],
      "name": "votes",
      "outputs": [
        {
          "internalType": "address",
          "name": "voter",
          "type": "address"
        },
        {
          "internalType": "address",
          "name": "voingInsteadOf",
          "type": "address"
        },
        {
          "internalType": "string",
          "name": "option",
          "type": "string"
        },
        {
          "internalType": "uint32",
          "name": "timeofVote",
          "type": "uint32"
        },
        {
          "internalType": "uint16",
          "name": "votingId",
          "type": "uint16"
        },
        {
          "internalType": "uint8",
          "name": "power",
          "type": "uint8"
        }
      ],
      "stateMutability": "view",
      "type": "function"
    },
    {
      "inputs": [
        {
          "internalType": "uint16",
          "name": "",
          "type": "uint16"
        }
      ],
      "name": "votings",
      "outputs": [
        {
          "internalType": "bool",
          "name": "ended",
          "type": "bool"
        },
        {
          "internalType": "bool",
          "name": "activated",
          "type": "bool"
        },
        {
          "internalType": "address",
          "name": "creator",
          "type": "address"
        },
        {
          "internalType": "string",
          "name": "title",
          "type": "string"
        },
        {
          "internalType": "string",
          "name": "descriptions",
          "type": "string"
        },
        {
          "internalType": "uint32",
          "name": "start",
          "type": "uint32"
        },
        {
          "internalType": "uint32",
          "name": "end",
          "type": "uint32"
        },
        {
          "internalType": "uint32",
          "name": "createdAt",
          "type": "uint32"
        }
      ],
      "stateMutability": "view",
      "type": "function"
    },
    {
      "inputs": [
        {
          "internalType": "address",
          "name": "_newadmin",
          "type": "address"
        }
      ],
      "name": "addVotingAdmin",
      "outputs": [],
      "stateMutability": "payable",
      "type": "function"
    },
    {
      "inputs": [
        {
          "internalType": "address",
          "name": "_address",
          "type": "address"
        }
      ],
      "name": "removeVotingAdmin",
      "outputs": [],
      "stateMutability": "payable",
      "type": "function"
    },
    {
      "inputs": [
        {
          "internalType": "address",
          "name": "_address",
          "type": "address"
        }
      ],
      "name": "isUserAdmin",
      "outputs": [
        {
          "internalType": "bool",
          "name": "",
          "type": "bool"
        }
      ],
      "stateMutability": "view",
      "type": "function"
    },
    {
      "inputs": [
        {
          "internalType": "address",
          "name": "_voter",
          "type": "address"
        }
      ],
      "name": "addVoter",
      "outputs": [],
      "stateMutability": "payable",
      "type": "function"
    },
    {
      "inputs": [
        {
          "internalType": "address",
          "name": "_voter",
          "type": "address"
        }
      ],
      "name": "enableVoter",
      "outputs": [],
      "stateMutability": "payable",
      "type": "function"
    },
    {
      "inputs": [
        {
          "internalType": "address",
          "name": "_voter",
          "type": "address"
        }
      ],
      "name": "disableVoter",
      "outputs": [],
      "stateMutability": "payable",
      "type": "function"
    },
    {
      "inputs": [
        {
          "internalType": "address",
          "name": "_voter",
          "type": "address"
        }
      ],
      "name": "increaseVoterPower",
      "outputs": [],
      "stateMutability": "payable",
      "type": "function"
    },
    {
      "inputs": [
        {
          "internalType": "address",
          "name": "_voter",
          "type": "address"
        }
      ],
      "name": "decreaseVoterPower",
      "outputs": [],
      "stateMutability": "payable",
      "type": "function"
    },
    {
      "inputs": [
        {
          "internalType": "address",
          "name": "_address",
          "type": "address"
        }
      ],
      "name": "isVoter",
      "outputs": [
        {
          "internalType": "bool",
          "name": "",
          "type": "bool"
        }
      ],
      "stateMutability": "view",
      "type": "function"
    },
    {
      "inputs": [
        {
          "internalType": "uint32",
          "name": "_start",
          "type": "uint32"
        },
        {
          "internalType": "uint32",
          "name": "_end",
          "type": "uint32"
        },
        {
          "internalType": "string",
          "name": "_title",
          "type": "string"
        },
        {
          "internalType": "string",
          "name": "_description",
          "type": "string"
        }
      ],
      "name": "addVoting",
      "outputs": [
        {
          "internalType": "uint16",
          "name": "",
          "type": "uint16"
        }
      ],
      "stateMutability": "nonpayable",
      "type": "function"
    },
    {
      "inputs": [
        {
          "internalType": "uint16",
          "name": "_votingId",
          "type": "uint16"
        },
        {
          "internalType": "uint32",
          "name": "_startdate",
          "type": "uint32"
        }
      ],
      "name": "changeVotingStartDate",
      "outputs": [],
      "stateMutability": "nonpayable",
      "type": "function"
    },
    {
      "inputs": [
        {
          "internalType": "uint16",
          "name": "_votingId",
          "type": "uint16"
        },
        {
          "internalType": "uint32",
          "name": "_enddate",
          "type": "uint32"
        }
      ],
      "name": "changeVotingEndDate",
      "outputs": [],
      "stateMutability": "nonpayable",
      "type": "function"
    },
    {
      "inputs": [
        {
          "internalType": "uint16",
          "name": "_votingId",
          "type": "uint16"
        },
        {
          "internalType": "string",
          "name": "_title",
          "type": "string"
        }
      ],
      "name": "changeVotingTitle",
      "outputs": [],
      "stateMutability": "nonpayable",
      "type": "function"
    },
    {
      "inputs": [
        {
          "internalType": "uint16",
          "name": "_votingId",
          "type": "uint16"
        },
        {
          "internalType": "string",
          "name": "_description",
          "type": "string"
        }
      ],
      "name": "changeVotingDescription",
      "outputs": [],
      "stateMutability": "nonpayable",
      "type": "function"
    },
    {
      "inputs": [
        {
          "internalType": "uint16",
          "name": "_votingId",
          "type": "uint16"
        }
      ],
      "name": "setVotingEnded",
      "outputs": [],
      "stateMutability": "nonpayable",
      "type": "function"
    },
    {
      "inputs": [
        {
          "internalType": "uint16",
          "name": "_votingId",
          "type": "uint16"
        }
      ],
      "name": "setVotingActive",
      "outputs": [],
      "stateMutability": "payable",
      "type": "function"
    },
    {
      "inputs": [
        {
          "internalType": "uint16",
          "name": "_votingId",
          "type": "uint16"
        },
        {
          "internalType": "string",
          "name": "option",
          "type": "string"
        }
      ],
      "name": "addVotingOption",
      "outputs": [],
      "stateMutability": "nonpayable",
      "type": "function"
    },
    {
      "inputs": [
        {
          "internalType": "uint16",
          "name": "_votingId",
          "type": "uint16"
        },
        {
          "internalType": "uint64",
          "name": "option",
          "type": "uint64"
        }
      ],
      "name": "removeVotingOption",
      "outputs": [],
      "stateMutability": "nonpayable",
      "type": "function"
    }
  ],
  "bytecode": "0x6080806040523461008a57600080546001600160a01b031916339081178255907f8be0079c531659141344cd1fd0a4f28419497f9722a3daafe3b4186f6b6457e08180a36201000163ffffffff196003541617600355600161ffff1960075416176007556001808060401b03198181600a541617600a55600d541617600d55611f9d90816100908239f35b600080fdfe608080604052600436101561001357600080fd5b60003560e01c90816310ae5bb314611b1a575080631702050314611af55780631bc28ea014611ace5780631d07de0d146116d05780631d9d554c1461164d578063284fe0791461162b57806329bef429146116095780632e7bec41146114f057806334f486c1146113b9578063379e07bf146113155780634d0b4d861461110f5780635052e424146110715780635cca38c514610fc9578063675115bc14610dcd57806372b9102614610bf15780637359838614610bca57806374d523a814610b7257806381435aa714610aec5780638f32d59b14610ac4578063958c408e14610a535780639914461614610a16578063a09b24c314610943578063a3ec138d146108e8578063a7771ee3146108a0578063d954e91b1461054d578063da66795e1461040e578063ddd2d1fd1461034a578063df72a953146102c2578063f2fde38b146102565763f4ab9adf1461016957600080fd5b6020366003190112610251576004356001600160a01b0381811691829003610251576000541633036102515780600052600460205260ff60406000205460081c1661023f5780600052600460205260406000206201010062ffff001982541617905561ffff8060035460101c16600052600560205260406000208260018060a01b031982541617905563ffff0000610208600354928360101c16611f34565b60101b169063ffff00001916176003557fa636f4a11e2d3ba7f89d042ecb0a6b886716e98cd49d8fd876ee0f73bced42b8600080a2005b604051632867270b60e01b8152600490fd5b600080fd5b6020366003190112610251576004356001600160a01b0381811691829003610251576000549081168033036102515782156102515782907f8be0079c531659141344cd1fd0a4f28419497f9722a3daafe3b4186f6b6457e0600080a36001600160a01b03191617600055005b6020366003190112610251576102d6611d0b565b6000546001600160a01b031633036102515761ffff16806000526006602052604060002061010061ff0019825416179055600080516020611f488339815191526060604051602081526018602082015277566f74696e672069732073657420416374697665206e6f7760401b6040820152a2005b346102515760203660031901126102515761ffff610366611d0b565b1660005260066020526040600020805461038260018301611e4e565b916103e7600361039460028401611e4e565b920154916103d9604051958560ff8897161515875260ff8160081c161515602088015260018060a01b039060101c166040870152610100806060880152860190611ef4565b908482036080860152611ef4565b9063ffffffff9081811660a0850152818160201c1660c085015260401c1660e08301520390f35b3461025157604036600319011261025157610427611d0b565b61042f611d1c565b90336000526020906002825261ffff9081604060002054166000526001835260ff60406000205460a01c161561053b576000546001600160a01b039081163303610508575b501691826000526006825260ff60406000205460081c166104f657600080516020611f4883398151915291606091846000526006825263ffffffff6003604060002001911663ffffffff1982541617905560196040519180835282015278159bdd1a5b99c81cdd185c9d0819185d194818da185b99d959603a1b6040820152a2005b604051639b8cc47560e01b8152600490fd5b82821660005260068452339060406000205460101c16036105295784610474565b6040516319f33b3b60e21b8152600490fd5b6040516355098f2760e01b8152600490fd5b346102515761055b36611dc1565b33600052600260205261ffff60406000205416600052600160205260ff60406000205460a01c161561053b576000546001600160a01b03908116330361087c575b5061ffff8216600052600660205260ff60406000205460081c166104f6576001600160401b03600a541661ffff8316600052600b6020526040600020906040516105e581611d2f565b600181526020810184815261ffff861660408301528260005260096020526040600020908251151560ff80198454169116178255518051906001600160401b03821161079e576106386001840154611e14565b601f8111610835575b50602090601f83116001146107bf57928260409360029361ffff966000926107b4575b50508160011b916000199060031b1c19161760018201555b019201511661ffff19825416179055815491600160401b83101561079e57600183018082558310156107885760005260206000208260021c01916001600160401b0360c084549260061b1692831b921b1916179055600a549060016001600160401b03831601916001600160401b038311610772576001600160401b037f0274ac91bea45298e37aa907ca1900a23372ae98246ac8615d56ed3f3d730cb59316906001600160401b03191617600a55604061ffff61074282519383855283850190611ef4565b9472159bdd1a5b99c813dc1d1a5bdb881059191959606a1b602085880397888288015260138152015216930190a2005b634e487b7160e01b600052601160045260246000fd5b634e487b7160e01b600052603260045260246000fd5b634e487b7160e01b600052604160045260246000fd5b015190508b80610664565b90601f198316916001850160005260206000209260005b81811061081d57509360029361ffff96936001938360409810610804575b505050811b01600182015561067c565b015160001960f88460031b161c191690558b80806107f4565b929360206001819287860151815501950193016107d6565b600184016000526020600020601f840160051c810160208510610875575b601f830160051c82018110610869575050610641565b60008155600101610853565b5080610853565b61ffff83166000526006602052339060406000205460101c1603610529578261059c565b34610251576020366003190112610251576004356001600160a01b038116908190036102515760005260046020526020600160ff60406000205460101c161015604051908152f35b34610251576020366003190112610251576004356001600160a01b03811690819003610251576000526004602052606060406000205460ff6040519181811615158352818160081c161515602084015260101c166040820152f35b6020366003190112610251576004356001600160a01b0381811691829003610251576000541633036102515780600052600460205260ff60406000205460081c1615610a0457806000526004602052600160ff60406000205460101c1610610a0457806000526004602052604060002060001960ff825460101c160160ff811161077257815462ff0000191660109190911b62ff0000161790557f84600759115fa43b37442490b0820bda045fe013e33c564b7cc4e477776a70e2600080a2005b60405163d64a9b3560e01b8152600490fd5b346102515760203660031901126102515761ffff610a32611d0b565b166000526005602052602060018060a01b0360406000205416604051908152f35b34610251576020366003190112610251576001600160401b03610a74611dfe565b166000526009602052604060002060ff81541661ffff6002610a9860018501611e4e565b93015416610aba60405193849315158452606060208501526060840190611ef4565b9060408301520390f35b3461025157600036600319011261025157602060018060a01b03600054163314604051908152f35b6020366003190112610251576004356001600160a01b0381811691829003610251576000541633036102515780600052600460205260ff60406000205460081c1615610a04578060005260046020526040600020600160ff198254161790557ff82c1433711971ea9322bdc605f131ef667575de2f51e3b9d26cd68f44299685600080a2005b34610251576020366003190112610251576004356001600160a01b0381169081900361025157600052600260205261ffff604060002054166000526001602052602060ff60406000205460a01c166040519015158152f35b346102515760003660031901126102515760206001600160401b03600a5416604051908152f35b3461025157604036600319011261025157610c0a611d0b565b6024356001600160401b03811680910361025157336000526020916002835261ffff806040600020541660005260019182855260ff60406000205460a01c161561053b576000546001600160a01b039081163303610dac575b501691826000526006845260ff60406000205460081c166104f6576000526009835260406000208160ff1991828154168155019060405192604084526000928054610cad81611e14565b938460408801528382169182600014610d6e575050600114610d1e575b857f0274ac91bea45298e37aa907ca1900a23372ae98246ac8615d56ed3f3d730cb58660408774159bdd1a5b99c81bdc1d1a5bdb881c995b5bdd9959605a1b8c8483039283828701526015815201520190a2005b60009081528681209093505b828410610d5a5750505081016060018374159bdd1a5b99c81bdc1d1a5bdb881c995b5bdd9959605a1b6040610cca565b805485850160600152928601928101610d2a565b1660608781019190915293151560051b8601909301935086925074159bdd1a5b99c81bdc1d1a5bdb881c995b5bdd9959605a1b915060409050610cca565b82821660005260068652339060406000205460101c16036105295785610c63565b3461025157610ddb36611dc1565b903360005260206002815261ffff806040600020541660005260019283835260ff60406000205460a01c161561053b576000546001600160a01b039081163303610fa8575b501691826000526006825260ff60406000205460081c166104f657826000526006825280604060002001908451946001600160401b03861161079e57610e668354611e14565b601f8111610f5f575b508390601f8711600114610ee857958060609594938193600080516020611f488339815191529899600094610edd575b50501b916000199060031b1c19161790555b60146040519180835282015273159bdd1a5b99c81d1a5d1b194818da185b99d95960621b6040820152a2005b015192508980610e9f565b90601f1987169184600052856000209260005b818110610f4a5750916060969594939189600080516020611f48833981519152999a9410610f31575b505050811b019055610eb1565b015160001960f88460031b161c19169055878080610f24565b82840151855593850193928701928701610efb565b8360005284600020601f880160051c810191868910610f9e575b601f0160051c019083905b828110610f92575050610e6f565b60008155018390610f84565b9091508190610f79565b82821660005260068452339060406000205460101c16036105295785610e20565b6020366003190112610251576004356001600160a01b0381811691829003610251576000541633036102515780600052600260205261ffff8060406000205416600052600160205260ff60406000205460a01c161561053b57816000526002602052604060002054166000526001602052604060002060ff60a01b1981541690557fa3b62bc36326052d97ea62d63c3d60308ed4c3ea8ac079dd8499f1e9c4f80c0f600080a2005b34610251576020366003190112610251576001600160401b03611092611dfe565b16600052600c602052604060002060018060a01b0380825416906001830154169160ff6110e860036110c660028501611e4e565b930154926040519586958652602086015260c0604086015260c0850190611ef4565b9163ffffffff8116606085015261ffff8160201c16608085015260301c1660a08301520390f35b346102515761111d36611dc1565b903360005260206002815261ffff806040600020541660005260019283835260ff60406000205460a01c161561053b576000546001600160a01b0390811633036112f4575b501691826000526006825260ff60406000205460081c166104f65782600052600682526002604060002001908451946001600160401b03861161079e576111a98354611e14565b601f81116112ab575b508390601f871160011461123457958060609594938193600080516020611f488339815191529899600094611229575b50501b916000199060031b1c19161790555b601a604051918083528201527f566f74696e67206465736372697074696f6e206368616e6765640000000000006040820152a2005b0151925089806111e2565b90601f1987169184600052856000209260005b8181106112965750916060969594939189600080516020611f48833981519152999a941061127d575b505050811b0190556111f4565b015160001960f88460031b161c19169055878080611270565b82840151855593850193928701928701611247565b8360005284600020601f880160051c8101918689106112ea575b601f0160051c019083905b8281106112de5750506111b2565b600081550183906112d0565b90915081906112c5565b82821660005260068452339060406000205460101c16036105295785611162565b6020366003190112610251576004356001600160a01b0381811691829003610251576000541633036102515780600052600460205260ff60406000205460081c1615610a04578060005260046020526040600020600160ff825460101c160160ff811161077257815462ff0000191660109190911b62ff0000161790557f4e7e2c6b7807915515b04d4cd84bf7cba8a16c67281691562abfa0def6e922fb600080a2005b602080600319360112610251576001600160a01b03600435818116929083900361025157816000541633036102515761ffff91826003541691846000526002815283604060002054166000526001815260406000209160ff835460a81c16600014611466575050805460ff60a01b1916600160a01b1790555b1661ffff1960035416176003557f2dbe9fb88463d989acccabbb6ee06901f83672eb78e04a11ff48dd8f69a27cda600080a2005b6114eb939250856000526002825260406000208361ffff198254161790556040519161149183611d2f565b8683526001818401818152604080860183815260008881529390945290912093518454915192516001600160b01b031990921693169290921790151560a01b60ff60a01b161790151560a81b60ff60a81b16179055611f34565b611432565b3461025157604036600319011261025157611509611d0b565b611511611d1c565b90336000526020906002825261ffff9081604060002054166000526001835260ff60406000205460a01c161561053b576000546001600160a01b0390811633036115e8575b501691826000526006825260ff60406000205460081c166104f657600080516020611f48833981519152916115b9606092856000526006835260036040600020019067ffffffff0000000082549160201b169067ffffffff000000001916179055565b60176040519180835282015276159bdd1a5b99c8195b990819185d194818da185b99d959604a1b6040820152a2005b82821660005260068452339060406000205460101c16036105295784611556565b3461025157600036600319011261025157602061ffff60035416604051908152f35b3461025157600036600319011261025157602061ffff60075416604051908152f35b6020366003190112610251576004356001600160a01b0381811691829003610251576000541633036102515780600052600460205260ff60406000205460081c1615610a0457806000526004602052604060002060ff1981541690557f16dc8b56b1ed852b4d628030204bb4d83910ae764e85489e6a9669b462a3cb1c600080a2005b346102515760803660031901126102515760043563ffffffff8116809103610251576116fa611d1c565b906044356001600160401b0381116102515761171a903690600401611d6b565b916064356001600160401b0381116102515761173a903690600401611d6b565b9133600052600260205261ffff60406000205416600052600160205260ff60406000205460a01c161561053b5760075461ffff166000818152600660209081526040909120805462010000600160b01b0319163360101b62010000600160b01b031617815560038101805467ffffffff000000001990951667ffffffffffffffff19909516949094179490911b67ffffffff0000000016939093179091559083516001600160401b03811161079e576117f66001830154611e14565b601f8111611a87575b506020601f8211600114611a18578192939495600092611a0d575b50508160011b916000199060031b1c19161760018201555b6002810183516001600160401b03811161079e576118508254611e14565b601f81116119c5575b50602094601f821160011461195f57948192939495600092611954575b50508160011b916000199060031b1c19161790555b60038082015463ffffffff60401b4260401b169063ffffffff60401b19161791015533600052600860205261ffff6118c7604060002092611f34565b168061ffff1960075416176007558154600160401b81101561079e576001810180845581101561078857602092600052826000208160041c019060f082549160041b169061ffff84831b921b191617905580600080516020611f488339815191526060604051858152600c868201526b159bdd1a5b99c8105919195960a21b6040820152a2604051908152f35b015190508580611876565b601f198216958360005260206000209160005b8881106119ad57508360019596979810611994575b505050811b01905561188b565b015160001960f88460031b161c19169055858080611987565b91926020600181928685015181550194019201611972565b826000526020600020601f830160051c81019160208410611a03575b601f0160051c01905b8181106119f75750611859565b600081556001016119ea565b90915081906119e1565b01519050858061181a565b6001830160005260206000209060005b601f1984168110611a6f575060019394959683601f19811610611a56575b505050811b016001820155611832565b015160001960f88460031b161c19169055858080611a46565b9091602060018192858b015181550193019101611a28565b600183016000526020600020601f830160051c810160208410611ac7575b601f830160051c82018110611abb5750506117ff565b60008155600101611aa5565b5080611aa5565b346102515760003660031901126102515760206001600160401b03600d5416604051908152f35b3461025157600036600319011261025157602061ffff60035460101c16604051908152f35b346102515760208060031936011261025157611b34611d0b565b91336000526002825261ffff9081604060002054166000526001835260ff60406000205460a01c1615611cfc57506000546001600160a01b03939084163303611cce575b169182600052600682526040600020604051906101008201908282106001600160401b0383111761079e5760039160405280549360ff8516151584528584019460ff8160081c161515865260101c166040840152611bd860018201611e4e565b6060840152611be960028201611e4e565b6080840152015460a082019163ffffffff9384831684528460c08301938181891c16855260401c1660e083015251156104f65751611cbc5782815116838351161015611cbc575142831692916103e89183168290048316841015611cbc57518216041611611caa576060600080516020611f488339815191529183600052600681526040600020600160ff1982541617905560176040519180835282015276566f74696e672069732073657420656e646564206e6f7760481b6040820152a2005b60405163efca4fe560e01b8152600490fd5b604051637a19ed0560e01b8152600490fd5b81811660005260068352338460406000205460101c160315611b78576040516319f33b3b60e21b8152600490fd5b6355098f2760e01b8152600490fd5b6004359061ffff8216820361025157565b6024359063ffffffff8216820361025157565b606081019081106001600160401b0382111761079e57604052565b90601f801991011681019081106001600160401b0382111761079e57604052565b81601f82011215610251578035906001600160401b03821161079e5760405192611d9f601f8401601f191660200185611d4a565b8284526020838301011161025157816000926020809301838601378301015290565b9060406003198301126102515760043561ffff811681036102515791602435906001600160401b03821161025157611dfb91600401611d6b565b90565b600435906001600160401b038216820361025157565b90600182811c92168015611e44575b6020831014611e2e57565b634e487b7160e01b600052602260045260246000fd5b91607f1691611e23565b9060405191826000825492611e6284611e14565b908184526001948581169081600014611ed15750600114611e8e575b5050611e8c92500383611d4a565b565b9093915060005260209081600020936000915b818310611eb9575050611e8c93508201013880611e7e565b85548884018501529485019487945091830191611ea1565b915050611e8c94506020925060ff191682840152151560051b8201013880611e7e565b919082519283825260005b848110611f20575050826000602080949584010152601f8019910116010190565b602081830181015184830182015201611eff565b90600161ffff809316019182116107725756fe294e9ee3aea73d37cca6195bdae37d24a75aa7e045226401e744c1bb7915ebaea2646970667358221220a4ca73f3b266a5ba6d835aada63dddc83f7902b6ab0e7d9a63026ce88a37e91c64736f6c63430008130033",
  "immutableReferences": {},
  "source": "// SPDX-License-Identifier: MIT\npragma solidity 0.8.19;\nimport  \"./Ownable.sol\";\ncontract DaobuilderDataStorage is Ownable{\n\n    /**\n    *\n    *   Data Storage\n    *\n    * */\n    struct VotingAdmin{\n        address admin;\n        bool enabled ;\n        bool added;\n    }\n    mapping(uint16=>VotingAdmin) internal votingAdmins;\n    mapping(address=>uint16) internal votingAdminsShort;\n    uint16 public lastVotingAdminId = 1;\n \n\n    struct Voter{\n        bool enabled;\n        bool added;\n        uint8 votingPower;\n    }\n    uint16 public lastVoterId = 1;\n    mapping(address=>Voter) public voters;\n    mapping(uint16=>address) public votersAddresses;\n\n    struct Voting{\n        bool ended;\n        bool activated;\n        address creator;\n        string title;\n        string descriptions;\n        uint32 start;\n        uint32 end;\n        uint32 createdAt;\n    }\n    mapping(uint16=>Voting) public votings;\n    uint16 public lastVotingId = 1;\n    mapping(address=>uint16[]) internal myVotings;\n\n    struct Option{\n        bool enabled;\n        string option;\n        uint16 votingId;\n    }\n    mapping(uint64=>Option) public options;\n    uint64 public lastOptionId=1;\n    mapping(uint16=>uint64[]) internal votingOptions;\n\n    struct Vote{\n        address voter;\n        address voingInsteadOf;\n        string option;\n        uint32 timeofVote;\n        uint16 votingId;\n        uint8 power;\n    }\n    mapping(uint64=>Vote) public votes;\n    uint64  public lastVoteId = 1;\n    mapping(address=>uint64[]) internal votersVotes;\n    mapping(uint16=>uint64[]) internal votingsVotes;\n    struct Delegations{\n        mapping(address=>address) delegaterToDelegatee;\n    }\n    mapping(uint16=>Delegations) internal  votingsDelegations;\n\n\n\n    /**\n    *\n    *   Data Storage\n    *\n    * */\n\n    /**\n    *   Events section\n    * */\n    event NewAdminAdded(address indexed admin);\n    event AdminRemoved(address indexed admin);\n    event VoterAdded(address indexed voter);\n    event VoterRemoved(address indexed voter);\n    event VoterEnabled(address indexed voter);\n    event VoterDisabled(address indexed voter);\n    event VoterPowerDecreased(address indexed voter);\n    event VoterPowerIncreased(address indexed voter);\n    event VotingDataChanged(uint16 indexed votingIndex , string  msg);\n    event VotingOptionChanged(uint16 indexed votingIndex , string  option, string  msg);\n    event VotingRightDelegated(uint16 indexed votingIndex  , address indexed delegater , address indexed delegatee);\n    event VotingRightUnDelegated(uint16 indexed votingIndex  , address indexed delegater , address indexed delegatee);\n    event VoteRegistered(uint16 indexed votingIndex , uint64 indexed option , address indexed voter);\n\n    /**\n    *   Events section\n    * */\n\n    error VoterNotExists();\n    error VoterAlreadyExists();\n    error NotAnAdmin();\n    error NoAccessToManage();\n    error VotingNotActive();\n    error VotingEnded();\n    error VotingStartInFuture();\n    error VoteAlreadyRegistered();\n    error NoRightToVoteOnBehalfOf();\n    error VotingOptionInvalid();\n\n    /**\n    *   modifiers section\n    * */\n    modifier VoterExists(address _voter){\n        if(!voters[_voter].added) revert VoterNotExists();\n        // require(voters[_voter].added ,\"Voter does not exists\" );\n        _;\n    }\n    modifier VoterDoesNotExists(address _voter){\n        if(voters[_voter].added) revert VoterAlreadyExists();\n        // require(!voters[_voter].added ,\"Voter Already exists\" );\n        _;\n    }\n    modifier VoterCanVote(address _voter){\n        if(!voters[_voter].added) revert VoterNotExists();\n        if(!voters[_voter].enabled) revert VoterNotExists();\n        // require(voters[_voter].added ,\"Voter does not exists\" );\n        // require(voters[_voter].enabled ,\"Voter does not exists\" );\n        _;\n    }\n    modifier VoterMinVotingPowerCheck(address _voter){\n        if(voters[_voter].votingPower<1) revert VoterNotExists();\n        // require(voters[_voter].votingPower>1 ,\"Voter does not exists\" );\n        _;\n    }\n    modifier isAdmin(address _admin){\n        if(!votingAdmins[votingAdminsShort[_admin]].enabled) revert NotAnAdmin();\n        // require(votingAdmins[votingAdminsShort[_admin]].enabled , \"Address is not and Admin\");\n        _;\n    }\n    modifier isAdminOf(address _admin , uint16 _votingId){\n        if(!isOwner()){\n            if(votings[_votingId].creator != _admin){\n                revert NoAccessToManage();\n            }\n            // require(votings[_votingId].creator == _admin ,\"You have no access to manage this voting\");\n        }\n        _;\n    }\n    modifier isVotingActive(uint16 _votingId){\n        Voting memory voting = votings[_votingId];\n        if(!voting.activated) revert VotingNotActive();\n        //  require(voting.activated ,\"Voting is Not Active\");\n        if(voting.ended ) revert VotingEnded();\n        if(voting.end <=voting.start ) revert VotingEnded();\n        if(voting.end/1000 <= uint32(block.timestamp)) revert VotingEnded();\n        //  require(!voting.ended ,\"Voting is Ended\");\n        //  require(voting.end >voting.start ,\"Voting is Ended\");\n        //  require(voting.end/1000 > uint32(block.timestamp) ,\"Voting is Ended\");\n        if(uint32(block.timestamp) < voting.start/1000) revert VotingStartInFuture();\n        //  require(uint32(block.timestamp) > voting.start/1000  ,\"Wierdly voting start is NOT less than now\");\n         _;\n    }\n    modifier VotingNotPublishedYet(uint16 _votingId){\n        if(votings[_votingId].activated) revert VotingNotActive();\n        //  require(!votings[_votingId].activated ,\"Voting is Not Active\");\n         _;\n    }\n    modifier NoVoteRegesteredYet(uint16 _votingId , address _voteraddress){\n        //No vote registered for me\n        uint64[] memory Myvotes = votersVotes[_voteraddress];\n        // uint64[] storage _votes = votes;\n        mapping(uint64=>Vote) storage _votes = votes;\n        for(uint64 i=0;i<Myvotes.length;i++){\n            if(_votes[Myvotes[i]].votingId==_votingId){\n                if(_votes[Myvotes[i]].voingInsteadOf==_voteraddress) revert VoteAlreadyRegistered();\n                // require(_votes[Myvotes[i]].voingInsteadOf!=_voteraddress , \"You have already a registered vote for this voting\");\n                // // require(votes[Myvotes[i]].votingId!=_votingId , \"You have already a registered vote for this voting\");\n            }\n        }\n        _;\n    }\n\n    modifier CanVoteBehalfOf(uint16 _votingId ,address _voter , address _onbehalfOf){\n        if(_voter!=_onbehalfOf){\n            if(votingsDelegations[_votingId].delegaterToDelegatee[_onbehalfOf]!=_voter) revert NoRightToVoteOnBehalfOf();\n            // require(votingsDelegations[_votingId].delegaterToDelegatee[_onbehalfOf]==_voter,\"You have no right to vote for someone's else\");\n        }\n        _;\n    }\n\n\n    modifier IsOptionValid(uint16 _votingId ,uint64 _votingOptionId){\n        Option memory opt =options[_votingOptionId]; \n        if(!opt.enabled) revert VotingOptionInvalid();\n        if(opt.votingId!=_votingId) revert VotingOptionInvalid();\n        // require(opt.enabled ,\"Selected Option is not in valid defined options \");\n        // require(opt.votingId==_votingId ,\"Selected Option is not in valid defined options \");\n        _;\n    }\n    /**\n    *   modifiers section\n    * */\n\n\n\n\n    /**\n    Manage Voting Admins\n     */\n    function addVotingAdmin(address _newadmin) external payable OnlyOwner {\n        uint16 _locallastVotingAdminId = lastVotingAdminId;\n        VotingAdmin storage votingAdmin = votingAdmins[votingAdminsShort[_newadmin]];\n\n        if(votingAdmin.added ){\n            votingAdmin.enabled = true;\n        }else{\n            votingAdminsShort[_newadmin] = _locallastVotingAdminId;\n            votingAdmins[_locallastVotingAdminId] = VotingAdmin(_newadmin , true,true);\n            _locallastVotingAdminId+=1;\n        }\n        lastVotingAdminId = _locallastVotingAdminId;\n        emit NewAdminAdded(_newadmin);\n    }\n    \n  \n    function removeVotingAdmin(address _address) external payable OnlyOwner isAdmin(_address) {\n        votingAdmins[votingAdminsShort[_address]].enabled = false;\n        emit AdminRemoved(_address);\n    }\n    function isUserAdmin(address _address) public view returns (bool){\n        return votingAdmins[votingAdminsShort[_address]].enabled;\n    }\n\n\n\n   \n    /**\n    Manage Voters\n     */\n    function addVoter(address _voter) external payable OnlyOwner VoterDoesNotExists(_voter){\n        Voter storage _voterinfo = voters[_voter];\n        _voterinfo.votingPower=1;\n        _voterinfo.added=true;\n        votersAddresses[lastVoterId] = _voter;\n        lastVoterId+=1;\n        emit VoterAdded(_voter);\n    }\n\n    function enableVoter(address _voter) external payable OnlyOwner VoterExists(_voter){\n        voters[_voter].enabled=true;\n        emit VoterEnabled(_voter);\n    }\n    function disableVoter(address _voter) external payable OnlyOwner VoterExists(_voter){\n        voters[_voter].enabled=false;\n        emit VoterDisabled(_voter);\n    }\n    function increaseVoterPower(address _voter) external payable OnlyOwner VoterExists(_voter){\n        voters[_voter].votingPower+=1;\n        emit VoterPowerIncreased(_voter);\n    }\n    function decreaseVoterPower(address _voter) external payable OnlyOwner VoterExists(_voter) VoterMinVotingPowerCheck(_voter){\n        voters[_voter].votingPower-=1;\n        emit VoterPowerDecreased(_voter);\n    }\n    function isVoter(address _address) public view returns (bool){\n        return voters[_address].votingPower>=1;\n    }\n\n\n    /**\n    Manage Votings\n     */\n    function addVoting(uint32 _start , uint32 _end , string memory _title , string memory _description) external isAdmin(msg.sender) returns (uint16) {\n        uint16 _lastVotingId = lastVotingId;\n        Voting storage newvoting =votings[_lastVotingId];\n        newvoting.creator = msg.sender;\n        newvoting.start=_start;\n        newvoting.end=_end;\n        // newvoting.ended;\n        // newvoting.activated;\n        newvoting.title=_title;\n        newvoting.descriptions=_description;\n        newvoting.createdAt=uint32(block.timestamp);\n        // votings[lastVotingId] = Voting(msg.sender, _start, _end, false , false,_title , _description , block.timestamp) ;\n        uint16[] storage myvotings =myVotings[msg.sender];\n        _lastVotingId+=1;\n        lastVotingId = _lastVotingId;\n        myvotings.push(_lastVotingId);\n        emit VotingDataChanged(_lastVotingId , \"Voting Added\");\n        return _lastVotingId;\n\n    }\n    function changeVotingStartDate(uint16 _votingId , uint32 _startdate) external isAdmin(msg.sender) isAdminOf(msg.sender , _votingId) VotingNotPublishedYet(_votingId) {\n        votings[_votingId].start = _startdate;\n        emit VotingDataChanged(_votingId , \"Voting start date changed\");\n    }\n    function changeVotingEndDate(uint16 _votingId , uint32 _enddate) external isAdmin(msg.sender) isAdminOf(msg.sender , _votingId) VotingNotPublishedYet(_votingId) {\n        votings[_votingId].end = _enddate;\n        emit VotingDataChanged(_votingId , \"Voting end date changed\");\n    }\n    function changeVotingTitle(uint16 _votingId , string memory _title) external isAdmin(msg.sender) isAdminOf(msg.sender , _votingId) VotingNotPublishedYet(_votingId) {\n        votings[_votingId].title = _title;\n        emit VotingDataChanged(_votingId , \"Voting title changed\");\n    }    \n    function changeVotingDescription(uint16 _votingId , string memory _description) external isAdmin(msg.sender) isAdminOf(msg.sender , _votingId) VotingNotPublishedYet(_votingId) {\n        votings[_votingId].descriptions = _description;\n        emit VotingDataChanged(_votingId , \"Voting description changed\");\n    }\n    function setVotingEnded(uint16 _votingId) external isAdmin(msg.sender) isAdminOf(msg.sender , _votingId) isVotingActive(_votingId) {\n        votings[_votingId].ended = true;\n        emit VotingDataChanged(_votingId , \"Voting is set ended now\");\n    }\n\n    function setVotingActive(uint16 _votingId) external payable OnlyOwner() {\n        votings[_votingId].activated = true;\n        emit VotingDataChanged(_votingId , \"Voting is set Active now\");\n    }\n \n    /**\n    Manage Voting Options\n     */\n    function addVotingOption(uint16 _votingId , string memory option) external isAdmin(msg.sender) isAdminOf(msg.sender , _votingId) VotingNotPublishedYet(_votingId){\n        uint64 _lastOptionId = lastOptionId;\n        uint64[] storage _votingOptions = votingOptions[_votingId];\n        options[_lastOptionId] = Option(true , option,_votingId);\n        _votingOptions.push(_lastOptionId);\n        lastOptionId+=1;\n        emit VotingOptionChanged(_votingId , option , \"Voting Option Added\");\n    }\n    function removeVotingOption(uint16 _votingId , uint64 option) external isAdmin(msg.sender) isAdminOf(msg.sender , _votingId) VotingNotPublishedYet(_votingId){\n        options[option].enabled = false;\n        emit VotingOptionChanged(_votingId , options[option].option , \"Voting option removed\");\n    }\n\n}",
  "sourcePath": "/home/aca/smartcontracts/daobuilder/contracts/DaobuilderDataStorage.sol",
  "compiler": {
    "name": "solc",
    "version": "0.8.19+commit.7dd6d404.Emscripten.clang"
  },
  "schemaVersion": "3.4.16",
  "updatedAt": "2025-04-19T17:40:56.656Z",
  "devdoc": {
    "kind": "dev",
    "methods": {},
    "version": 1
  },
  "userdoc": {
    "errors": {
      "VoterNotExists()": [
        {
          "notice": "Events section "
        }
      ]
    },
    "events": {
      "NewAdminAdded(address)": {
        "notice": "Events section "
      }
    },
    "kind": "user",
    "methods": {
      "addVoter(address)": {
        "notice": "Manage Voters"
      },
      "addVoting(uint32,uint32,string,string)": {
        "notice": "Manage Votings"
      },
      "addVotingAdmin(address)": {
        "notice": "Manage Voting Admins"
      },
      "addVotingOption(uint16,string)": {
        "notice": "Manage Voting Options"
      }
    },
    "version": 1
  }
}