{
  "contractName": "DaobuilderDataStorage",
  "abi": [
    {
      "anonymous": false,
      "inputs": [
        {
          "indexed": true,
          "internalType": "address",
          "name": "admin",
          "type": "address"
        }
      ],
      "name": "AdminRemoved",
      "type": "event"
    },
    {
      "anonymous": false,
      "inputs": [
        {
          "indexed": true,
          "internalType": "address",
          "name": "admin",
          "type": "address"
        }
      ],
      "name": "NewAdminAdded",
      "type": "event"
    },
    {
      "anonymous": false,
      "inputs": [
        {
          "indexed": true,
          "internalType": "address",
          "name": "previousOwner",
          "type": "address"
        },
        {
          "indexed": true,
          "internalType": "address",
          "name": "newOwner",
          "type": "address"
        }
      ],
      "name": "OwnershipTransferred",
      "type": "event"
    },
    {
      "anonymous": false,
      "inputs": [
        {
          "indexed": true,
          "internalType": "uint16",
          "name": "votingIndex",
          "type": "uint16"
        },
        {
          "indexed": true,
          "internalType": "uint64",
          "name": "option",
          "type": "uint64"
        },
        {
          "indexed": true,
          "internalType": "address",
          "name": "voter",
          "type": "address"
        }
      ],
      "name": "VoteRegistered",
      "type": "event"
    },
    {
      "anonymous": false,
      "inputs": [
        {
          "indexed": true,
          "internalType": "address",
          "name": "voter",
          "type": "address"
        }
      ],
      "name": "VoterAdded",
      "type": "event"
    },
    {
      "anonymous": false,
      "inputs": [
        {
          "indexed": true,
          "internalType": "address",
          "name": "voter",
          "type": "address"
        }
      ],
      "name": "VoterDisabled",
      "type": "event"
    },
    {
      "anonymous": false,
      "inputs": [
        {
          "indexed": true,
          "internalType": "address",
          "name": "voter",
          "type": "address"
        }
      ],
      "name": "VoterEnabled",
      "type": "event"
    },
    {
      "anonymous": false,
      "inputs": [
        {
          "indexed": true,
          "internalType": "address",
          "name": "voter",
          "type": "address"
        }
      ],
      "name": "VoterPowerDecreased",
      "type": "event"
    },
    {
      "anonymous": false,
      "inputs": [
        {
          "indexed": true,
          "internalType": "address",
          "name": "voter",
          "type": "address"
        }
      ],
      "name": "VoterPowerIncreased",
      "type": "event"
    },
    {
      "anonymous": false,
      "inputs": [
        {
          "indexed": true,
          "internalType": "address",
          "name": "voter",
          "type": "address"
        }
      ],
      "name": "VoterRemoved",
      "type": "event"
    },
    {
      "anonymous": false,
      "inputs": [
        {
          "indexed": true,
          "internalType": "uint16",
          "name": "votingIndex",
          "type": "uint16"
        },
        {
          "indexed": false,
          "internalType": "string",
          "name": "msg",
          "type": "string"
        }
      ],
      "name": "VotingDataChanged",
      "type": "event"
    },
    {
      "anonymous": false,
      "inputs": [
        {
          "indexed": true,
          "internalType": "uint16",
          "name": "votingIndex",
          "type": "uint16"
        },
        {
          "indexed": false,
          "internalType": "string",
          "name": "option",
          "type": "string"
        },
        {
          "indexed": false,
          "internalType": "string",
          "name": "msg",
          "type": "string"
        }
      ],
      "name": "VotingOptionChanged",
      "type": "event"
    },
    {
      "anonymous": false,
      "inputs": [
        {
          "indexed": true,
          "internalType": "uint16",
          "name": "votingIndex",
          "type": "uint16"
        },
        {
          "indexed": true,
          "internalType": "address",
          "name": "delegater",
          "type": "address"
        },
        {
          "indexed": true,
          "internalType": "address",
          "name": "delegatee",
          "type": "address"
        }
      ],
      "name": "VotingRightDelegated",
      "type": "event"
    },
    {
      "anonymous": false,
      "inputs": [
        {
          "indexed": true,
          "internalType": "uint16",
          "name": "votingIndex",
          "type": "uint16"
        },
        {
          "indexed": true,
          "internalType": "address",
          "name": "delegater",
          "type": "address"
        },
        {
          "indexed": true,
          "internalType": "address",
          "name": "delegatee",
          "type": "address"
        }
      ],
      "name": "VotingRightUnDelegated",
      "type": "event"
    },
    {
      "inputs": [],
      "name": "isOwner",
      "outputs": [
        {
          "internalType": "bool",
          "name": "",
          "type": "bool"
        }
      ],
      "stateMutability": "view",
      "type": "function"
    },
    {
      "inputs": [],
      "name": "lastOptionId",
      "outputs": [
        {
          "internalType": "uint64",
          "name": "",
          "type": "uint64"
        }
      ],
      "stateMutability": "view",
      "type": "function"
    },
    {
      "inputs": [],
      "name": "lastVoteId",
      "outputs": [
        {
          "internalType": "uint64",
          "name": "",
          "type": "uint64"
        }
      ],
      "stateMutability": "view",
      "type": "function"
    },
    {
      "inputs": [],
      "name": "lastVoterId",
      "outputs": [
        {
          "internalType": "uint16",
          "name": "",
          "type": "uint16"
        }
      ],
      "stateMutability": "view",
      "type": "function"
    },
    {
      "inputs": [],
      "name": "lastVotingAdminId",
      "outputs": [
        {
          "internalType": "uint16",
          "name": "",
          "type": "uint16"
        }
      ],
      "stateMutability": "view",
      "type": "function"
    },
    {
      "inputs": [],
      "name": "lastVotingId",
      "outputs": [
        {
          "internalType": "uint16",
          "name": "",
          "type": "uint16"
        }
      ],
      "stateMutability": "view",
      "type": "function"
    },
    {
      "inputs": [
        {
          "internalType": "address",
          "name": "",
          "type": "address"
        },
        {
          "internalType": "uint256",
          "name": "",
          "type": "uint256"
        }
      ],
      "name": "myVotings",
      "outputs": [
        {
          "internalType": "uint16",
          "name": "",
          "type": "uint16"
        }
      ],
      "stateMutability": "view",
      "type": "function"
    },
    {
      "inputs": [
        {
          "internalType": "uint64",
          "name": "",
          "type": "uint64"
        }
      ],
      "name": "options",
      "outputs": [
        {
          "internalType": "uint16",
          "name": "votingId",
          "type": "uint16"
        },
        {
          "internalType": "bool",
          "name": "enabled",
          "type": "bool"
        },
        {
          "internalType": "string",
          "name": "option",
          "type": "string"
        }
      ],
      "stateMutability": "view",
      "type": "function"
    },
    {
      "inputs": [
        {
          "internalType": "address",
          "name": "to",
          "type": "address"
        }
      ],
      "name": "transferOwnership",
      "outputs": [],
      "stateMutability": "nonpayable",
      "type": "function"
    },
    {
      "inputs": [
        {
          "internalType": "address",
          "name": "",
          "type": "address"
        }
      ],
      "name": "voters",
      "outputs": [
        {
          "internalType": "bool",
          "name": "enabled",
          "type": "bool"
        },
        {
          "internalType": "bool",
          "name": "added",
          "type": "bool"
        },
        {
          "internalType": "uint8",
          "name": "votingPower",
          "type": "uint8"
        }
      ],
      "stateMutability": "view",
      "type": "function"
    },
    {
      "inputs": [
        {
          "internalType": "uint16",
          "name": "",
          "type": "uint16"
        }
      ],
      "name": "votersAddresses",
      "outputs": [
        {
          "internalType": "address",
          "name": "",
          "type": "address"
        }
      ],
      "stateMutability": "view",
      "type": "function"
    },
    {
      "inputs": [
        {
          "internalType": "address",
          "name": "",
          "type": "address"
        },
        {
          "internalType": "uint256",
          "name": "",
          "type": "uint256"
        }
      ],
      "name": "votersVotes",
      "outputs": [
        {
          "internalType": "uint64",
          "name": "",
          "type": "uint64"
        }
      ],
      "stateMutability": "view",
      "type": "function"
    },
    {
      "inputs": [
        {
          "internalType": "uint64",
          "name": "",
          "type": "uint64"
        }
      ],
      "name": "votes",
      "outputs": [
        {
          "internalType": "uint32",
          "name": "timeofVote",
          "type": "uint32"
        },
        {
          "internalType": "uint16",
          "name": "votingId",
          "type": "uint16"
        },
        {
          "internalType": "uint8",
          "name": "power",
          "type": "uint8"
        },
        {
          "internalType": "address",
          "name": "voter",
          "type": "address"
        },
        {
          "internalType": "address",
          "name": "voingInsteadOf",
          "type": "address"
        },
        {
          "internalType": "string",
          "name": "option",
          "type": "string"
        }
      ],
      "stateMutability": "view",
      "type": "function"
    },
    {
      "inputs": [
        {
          "internalType": "uint16",
          "name": "",
          "type": "uint16"
        }
      ],
      "name": "votingAdmins",
      "outputs": [
        {
          "internalType": "address",
          "name": "admin",
          "type": "address"
        },
        {
          "internalType": "bool",
          "name": "enabled",
          "type": "bool"
        },
        {
          "internalType": "bool",
          "name": "added",
          "type": "bool"
        }
      ],
      "stateMutability": "view",
      "type": "function"
    },
    {
      "inputs": [
        {
          "internalType": "address",
          "name": "",
          "type": "address"
        }
      ],
      "name": "votingAdminsShort",
      "outputs": [
        {
          "internalType": "uint16",
          "name": "",
          "type": "uint16"
        }
      ],
      "stateMutability": "view",
      "type": "function"
    },
    {
      "inputs": [
        {
          "internalType": "uint16",
          "name": "",
          "type": "uint16"
        },
        {
          "internalType": "uint256",
          "name": "",
          "type": "uint256"
        }
      ],
      "name": "votingOptions",
      "outputs": [
        {
          "internalType": "uint64",
          "name": "",
          "type": "uint64"
        }
      ],
      "stateMutability": "view",
      "type": "function"
    },
    {
      "inputs": [
        {
          "internalType": "uint16",
          "name": "",
          "type": "uint16"
        }
      ],
      "name": "votings",
      "outputs": [
        {
          "internalType": "uint32",
          "name": "start",
          "type": "uint32"
        },
        {
          "internalType": "uint32",
          "name": "end",
          "type": "uint32"
        },
        {
          "internalType": "uint32",
          "name": "createdAt",
          "type": "uint32"
        },
        {
          "internalType": "bool",
          "name": "ended",
          "type": "bool"
        },
        {
          "internalType": "bool",
          "name": "activated",
          "type": "bool"
        },
        {
          "internalType": "address",
          "name": "creator",
          "type": "address"
        },
        {
          "internalType": "string",
          "name": "title",
          "type": "string"
        },
        {
          "internalType": "string",
          "name": "descriptions",
          "type": "string"
        }
      ],
      "stateMutability": "view",
      "type": "function"
    },
    {
      "inputs": [
        {
          "internalType": "uint16",
          "name": "",
          "type": "uint16"
        },
        {
          "internalType": "uint256",
          "name": "",
          "type": "uint256"
        }
      ],
      "name": "votingsVotes",
      "outputs": [
        {
          "internalType": "uint64",
          "name": "",
          "type": "uint64"
        }
      ],
      "stateMutability": "view",
      "type": "function"
    },
    {
      "inputs": [
        {
          "internalType": "address",
          "name": "_newadmin",
          "type": "address"
        }
      ],
      "name": "addVotingAdmin",
      "outputs": [],
      "stateMutability": "nonpayable",
      "type": "function"
    },
    {
      "inputs": [
        {
          "internalType": "address",
          "name": "_address",
          "type": "address"
        }
      ],
      "name": "removeVotingAdmin",
      "outputs": [],
      "stateMutability": "nonpayable",
      "type": "function"
    },
    {
      "inputs": [
        {
          "internalType": "address",
          "name": "_address",
          "type": "address"
        }
      ],
      "name": "isUserAdmin",
      "outputs": [
        {
          "internalType": "bool",
          "name": "",
          "type": "bool"
        }
      ],
      "stateMutability": "view",
      "type": "function"
    },
    {
      "inputs": [
        {
          "internalType": "address",
          "name": "_voter",
          "type": "address"
        }
      ],
      "name": "addVoter",
      "outputs": [],
      "stateMutability": "nonpayable",
      "type": "function"
    },
    {
      "inputs": [
        {
          "internalType": "address",
          "name": "_voter",
          "type": "address"
        }
      ],
      "name": "enableVoter",
      "outputs": [],
      "stateMutability": "nonpayable",
      "type": "function"
    },
    {
      "inputs": [
        {
          "internalType": "address",
          "name": "_voter",
          "type": "address"
        }
      ],
      "name": "disableVoter",
      "outputs": [],
      "stateMutability": "nonpayable",
      "type": "function"
    },
    {
      "inputs": [
        {
          "internalType": "address",
          "name": "_voter",
          "type": "address"
        }
      ],
      "name": "increaseVoterPower",
      "outputs": [],
      "stateMutability": "nonpayable",
      "type": "function"
    },
    {
      "inputs": [
        {
          "internalType": "address",
          "name": "_voter",
          "type": "address"
        }
      ],
      "name": "decreaseVoterPower",
      "outputs": [],
      "stateMutability": "nonpayable",
      "type": "function"
    },
    {
      "inputs": [
        {
          "internalType": "address",
          "name": "_address",
          "type": "address"
        }
      ],
      "name": "isVoter",
      "outputs": [
        {
          "internalType": "bool",
          "name": "",
          "type": "bool"
        }
      ],
      "stateMutability": "view",
      "type": "function"
    },
    {
      "inputs": [
        {
          "internalType": "uint32",
          "name": "_start",
          "type": "uint32"
        },
        {
          "internalType": "uint32",
          "name": "_end",
          "type": "uint32"
        },
        {
          "internalType": "string",
          "name": "_title",
          "type": "string"
        },
        {
          "internalType": "string",
          "name": "_description",
          "type": "string"
        }
      ],
      "name": "addVoting",
      "outputs": [
        {
          "internalType": "uint16",
          "name": "",
          "type": "uint16"
        }
      ],
      "stateMutability": "nonpayable",
      "type": "function"
    },
    {
      "inputs": [
        {
          "internalType": "uint16",
          "name": "_votingId",
          "type": "uint16"
        },
        {
          "internalType": "uint32",
          "name": "_startdate",
          "type": "uint32"
        }
      ],
      "name": "changeVotingStartDate",
      "outputs": [],
      "stateMutability": "nonpayable",
      "type": "function"
    },
    {
      "inputs": [
        {
          "internalType": "uint16",
          "name": "_votingId",
          "type": "uint16"
        },
        {
          "internalType": "uint32",
          "name": "_enddate",
          "type": "uint32"
        }
      ],
      "name": "changeVotingEndDate",
      "outputs": [],
      "stateMutability": "nonpayable",
      "type": "function"
    },
    {
      "inputs": [
        {
          "internalType": "uint16",
          "name": "_votingId",
          "type": "uint16"
        },
        {
          "internalType": "string",
          "name": "_title",
          "type": "string"
        }
      ],
      "name": "changeVotingTitle",
      "outputs": [],
      "stateMutability": "nonpayable",
      "type": "function"
    },
    {
      "inputs": [
        {
          "internalType": "uint16",
          "name": "_votingId",
          "type": "uint16"
        },
        {
          "internalType": "string",
          "name": "_description",
          "type": "string"
        }
      ],
      "name": "changeVotingDescription",
      "outputs": [],
      "stateMutability": "nonpayable",
      "type": "function"
    },
    {
      "inputs": [
        {
          "internalType": "uint16",
          "name": "_votingId",
          "type": "uint16"
        }
      ],
      "name": "setVotingEnded",
      "outputs": [],
      "stateMutability": "nonpayable",
      "type": "function"
    },
    {
      "inputs": [
        {
          "internalType": "uint16",
          "name": "_votingId",
          "type": "uint16"
        }
      ],
      "name": "setVotingActive",
      "outputs": [],
      "stateMutability": "nonpayable",
      "type": "function"
    },
    {
      "inputs": [
        {
          "internalType": "uint16",
          "name": "_votingId",
          "type": "uint16"
        },
        {
          "internalType": "string",
          "name": "option",
          "type": "string"
        }
      ],
      "name": "addVotingOption",
      "outputs": [],
      "stateMutability": "nonpayable",
      "type": "function"
    },
    {
      "inputs": [
        {
          "internalType": "uint16",
          "name": "_votingId",
          "type": "uint16"
        },
        {
          "internalType": "uint64",
          "name": "option",
          "type": "uint64"
        }
      ],
      "name": "removeVotingOption",
      "outputs": [],
      "stateMutability": "nonpayable",
      "type": "function"
    }
  ],
  "bytecode": "0x6080806040523461008a57600080546001600160a01b031916339081178255907f8be0079c531659141344cd1fd0a4f28419497f9722a3daafe3b4186f6b6457e08180a36201000163ffffffff196003541617600355600161ffff1960075416176007556001808060401b03198181600a541617600a55600d541617600d5561237b90816100908239f35b600080fdfe6080604052600436101561001257600080fd5b60003560e01c806310ae5bb314611cea5780631702050314611cc55780631bc28ea014611c9e5780631d07de0d146118b45780631d9d554c1461182b578063284fe0791461180957806329bef429146117e75780632e7bec41146116c657806334f486c11461158e578063379e07bf146114e45780634d0b4d86146112d25780635052e4241461123b5780635cca38c51461118d57806361244c2614611135578063675115bc14610f2c5780637069569814610edb57806372b9102614610cf05780637359838614610cc957806374d523a814610c7557806381435aa714610be95780638f32d59b14610bc1578063958c408e14610b565780639914461614610b19578063a09b24c314610a4e578063a3ec138d146109f7578063a7771ee3146109b3578063ace7116414610967578063d954e91b1461067a578063da66795e14610569578063ddd2d1fd146104a8578063deff5db51461046a578063df72a953146103d9578063ee9d93211461038d578063f27a82f414610331578063f2fde38b146102c25763f4ab9adf146101a857600080fd5b346102bd5760203660031901126102bd576101c1611fc4565b6000546001600160a01b039190821633036102bd571680600052600460205260ff60406000205460081c166102815780600052600460205260406000206201010062ffff001982541617905561ffff8060035460101c16600052600560205260406000208260018060a01b031982541617905563ffff000061024a600354928360101c166121a9565b60101b169063ffff00001916176003557fa636f4a11e2d3ba7f89d042ecb0a6b886716e98cd49d8fd876ee0f73bced42b8600080a2005b60405162461bcd60e51b8152602060048201526014602482015273566f74657220416c72656164792065786973747360601b6044820152606490fd5b600080fd5b346102bd5760203660031901126102bd576102db611fc4565b6000546001600160a01b0380821692338490036102bd57169182156102bd5782907f8be0079c531659141344cd1fd0a4f28419497f9722a3daafe3b4186f6b6457e0600080a36001600160a01b03191617600055005b346102bd5760403660031901126102bd5761034a611fc4565b6001600160a01b031660009081526008602052604090208054602435908110156102bd5761037d61ffff91602093612186565b9190546040519260031b1c168152f35b346102bd5760403660031901126102bd576103a6611f0e565b61ffff6024359116600052600f60205260406000209081548110156102bd5761037d6001600160401b039160209361214d565b346102bd5760203660031901126102bd576103f2611f0e565b6000546001600160a01b031633036102bd5761ffff168060005260066020526040600020600160681b60ff60681b198254161790556000805160206123268339815191526060604051602081526018602082015277566f74696e672069732073657420416374697665206e6f7760401b6040820152a2005b346102bd5760203660031901126102bd576001600160a01b0361048b611fc4565b166000526002602052602061ffff60406000205416604051908152f35b346102bd5760203660031901126102bd5761ffff6104c4611f0e565b16600052600660205260ff604060002061056581549161055760018060a01b036001830154169161050360036104fc60028401612067565b9201612067565b9260405196879663ffffffff8082168952808260201c1660208a01528160401c166040890152818160601c161515606089015260681c161515608087015260a08601526101008060c087015285019061210d565b9083820360e085015261210d565b0390f35b346102bd5760403660031901126102bd57610582611f0e565b600080516020612326833981519152606061059b611f1f565b92336000526020906002825261ffff908160406000205416600052600183526105ce60ff60406000205460a01c166121bc565b6000546001600160a01b039081163303610654575b501693846000526006825261060360ff60406000205460681c16156122a4565b846000526006825263ffffffff6040600020911663ffffffff1982541617905560196040519180835282015278159bdd1a5b99c81cdd185c9d0819185d194818da185b99d959603a1b6040820152a2005b610674908383166000526006855233906001604060002001541614612247565b866105e3565b346102bd5761068836611fda565b90336000526020916002835261ffff918260406000205416600052826001918286526106be60ff60406000205460a01c166121bc565b6000546001600160a01b039081163303610942575b50169384600052600681526106f360ff60406000205460681c16156122a4565b6001600160401b039384600a54169086600052600b83526040600020908460405161071d81611f32565b89815285810182815260408201938985528660005260098852604060002092511662ff000083549251151560101b169162ffffff19161717815501905180519088821161086b578190610770845461202d565b601f81116108ef575b508690601f831160011461088c57600092610881575b5050600019600383901b1c191690861b1790555b8054600160401b81101561086b576107bf91858201815561214d565b86829392549160031b92831b921b1916179055600a54918483160191848311610855577f0274ac91bea45298e37aa907ca1900a23372ae98246ac8615d56ed3f3d730cb59460409316906001600160401b03191617600a5572159bdd1a5b99c813dc1d1a5bdb881059191959606a1b6108408351948486528486019061210d565b918483039283828701526013815201520190a2005b634e487b7160e01b600052601160045260246000fd5b634e487b7160e01b600052604160045260246000fd5b015190508a8061078f565b90889350601f1983169185600052886000209260005b8a8282106108d957505084116108c0575b505050811b0190556107a3565b015160001960f88460031b161c191690558a80806108b3565b8385015186558c979095019493840193016108a2565b9091508360005286600020601f840160051c810191888510610938575b84939291601f8b920160051c01915b828110610929575050610779565b600081558594508a910161091b565b909150819061090c565b6109619083831660005260068852339085604060002001541614612247565b866106d3565b346102bd5760403660031901126102bd57610980611f0e565b61ffff6024359116600052600b60205260406000209081548110156102bd5761037d6001600160401b039160209361214d565b346102bd5760203660031901126102bd576001600160a01b036109d4611fc4565b1660005260046020526020600160ff60406000205460101c161015604051908152f35b346102bd5760203660031901126102bd576001600160a01b03610a18611fc4565b166000526004602052606060406000205460ff6040519181811615158352818160081c161515602084015260101c166040820152f35b346102bd5760203660031901126102bd57610a67611fc4565b6000546001600160a01b039190821633036102bd5716806000526004602052610a9a60ff60406000205460081c16612203565b806000526004602052610aba600160ff60406000205460101c1611612203565b806000526004602052604060002060001960ff825460101c160160ff811161085557815462ff0000191660109190911b62ff0000161790557f84600759115fa43b37442490b0820bda045fe013e33c564b7cc4e477776a70e2600080a2005b346102bd5760203660031901126102bd5761ffff610b35611f0e565b166000526005602052602060018060a01b0360406000205416604051908152f35b346102bd5760203660031901126102bd576001600160401b03610b77612017565b16600052600960205260ff6040600020610565610b98600183549301612067565b604051938361ffff869516855260101c161515602084015260606040840152606083019061210d565b346102bd5760003660031901126102bd57602060018060a01b03600054163314604051908152f35b346102bd5760203660031901126102bd57610c02611fc4565b6000546001600160a01b039190821633036102bd5716806000526004602052610c3560ff60406000205460081c16612203565b8060005260046020526040600020600160ff198254161790557ff82c1433711971ea9322bdc605f131ef667575de2f51e3b9d26cd68f44299685600080a2005b346102bd5760203660031901126102bd576001600160a01b03610c96611fc4565b16600052600260205261ffff604060002054166000526001602052602060ff60406000205460a01c166040519015158152f35b346102bd5760003660031901126102bd5760206001600160401b03600a5416604051908152f35b346102bd5760403660031901126102bd57610d09611f0e565b6024356001600160401b0381168091036102bd57336000526020916002835261ffff8060406000205416600052600191828552610d5060ff60406000205460a01c166121bc565b6000546001600160a01b039081163303610eb6575b5016918260005260068452610d8560ff60406000205460681c16156122a4565b6000526009835280604060002062ff000019815416815501906040519160408352600091815491610db58361202d565b928360408701528281169081600014610e755750600114610e25575b857f0274ac91bea45298e37aa907ca1900a23372ae98246ac8615d56ed3f3d730cb58660408774159bdd1a5b99c81bdc1d1a5bdb881c995b5bdd9959605a1b8c8483039283828701526015815201520190a2005b60009081528681209093505b828410610e615750505081016060018374159bdd1a5b99c81bdc1d1a5bdb881c995b5bdd9959605a1b6040610dd1565b805485850160600152928601928101610e31565b60ff191660608781019190915293151560051b8601909301935086925074159bdd1a5b99c81bdc1d1a5bdb881c995b5bdd9959605a1b915060409050610dd1565b610ed59083831660005260068752339085604060002001541614612247565b85610d65565b346102bd5760403660031901126102bd57610ef4611fc4565b6001600160a01b03166000908152600e602052604090208054602435908110156102bd5761037d6001600160401b039160209361214d565b346102bd57610f3a36611fda565b903360005260206002815261ffff8060406000205416600052600192838352610f6d60ff60406000205460a01c166121bc565b6000546001600160a01b039081163303611110575b5016918260005260068252610fa260ff60406000205460681c16156122a4565b82600052600682526002604060002001908451946001600160401b03861161086b57610fce835461202d565b601f81116110c7575b508390601f8711600114611050579580606095949381936000805160206123268339815191529899600094611045575b50501b916000199060031b1c19161790555b60146040519180835282015273159bdd1a5b99c81d1a5d1b194818da185b99d95960621b6040820152a2005b015192508980611007565b90601f1987169184600052856000209260005b8181106110b25750916060969594939189600080516020612326833981519152999a9410611099575b505050811b019055611019565b015160001960f88460031b161c1916905587808061108c565b82840151855593850193928701928701611063565b8360005284600020601f880160051c810191868910611106575b601f0160051c019083905b8281106110fa575050610fd7565b600081550183906110ec565b90915081906110e1565b61112f9083831660005260068552339086604060002001541614612247565b85610f82565b346102bd5760203660031901126102bd5761ffff611151611f0e565b166000526001602052606060406000205460ff6040519160018060a01b0381168352818160a01c161515602084015260a81c1615156040820152f35b346102bd5760203660031901126102bd576111a6611fc4565b6000546001600160a01b039190821633036102bd571680600052600260205261ffff806040600020541660005260016020526111ec60ff60406000205460a01c166121bc565b816000526002602052604060002054166000526001602052604060002060ff60a01b1981541690557fa3b62bc36326052d97ea62d63c3d60308ed4c3ea8ac079dd8499f1e9c4f80c0f600080a2005b346102bd5760203660031901126102bd576001600160401b0361125c612017565b16600052600c6020526040600020805461056560018060a01b039261128a6002856001840154169201612067565b90604051948463ffffffff879616865261ffff8160201c16602087015260ff8160301c16604087015260381c166060850152608084015260c060a084015260c083019061210d565b346102bd576112e036611fda565b903360005260206002815261ffff806040600020541660005260019283835261131360ff60406000205460a01c166121bc565b6000546001600160a01b0390811633036114bf575b501691826000526006825261134860ff60406000205460681c16156122a4565b82600052600682526003604060002001908451946001600160401b03861161086b57611374835461202d565b601f8111611476575b508390601f87116001146113ff5795806060959493819360008051602061232683398151915298996000946113f4575b50501b916000199060031b1c19161790555b601a604051918083528201527f566f74696e67206465736372697074696f6e206368616e6765640000000000006040820152a2005b0151925089806113ad565b90601f1987169184600052856000209260005b8181106114615750916060969594939189600080516020612326833981519152999a9410611448575b505050811b0190556113bf565b015160001960f88460031b161c1916905587808061143b565b82840151855593850193928701928701611412565b8360005284600020601f880160051c8101918689106114b5575b601f0160051c019083905b8281106114a957505061137d565b6000815501839061149b565b9091508190611490565b6114de9083831660005260068552339086604060002001541614612247565b85611328565b346102bd5760203660031901126102bd576114fd611fc4565b6000546001600160a01b039190821633036102bd571680600052600460205261153060ff60406000205460081c16612203565b8060005260046020526040600020600160ff825460101c160160ff811161085557815462ff0000191660109190911b62ff0000161790557f4e7e2c6b7807915515b04d4cd84bf7cba8a16c67281691562abfa0def6e922fb600080a2005b346102bd576020806003193601126102bd576115a8611fc4565b6000546001600160a01b0390811633036102bd5761ffff9181836003541691169384600052600281528360406000205416600052600181526040600020805460ff8160a81c16156000146116af57505061167b92856000526002825260406000208361ffff198254161790556040519161162183611f32565b8683526001818401818152604080860183815260008881529390945290912093518454915192516001600160b01b031990921693169290921790151560a01b60ff60a01b161790151560a81b60ff60a81b161790556121a9565b1661ffff1960035416176003557f2dbe9fb88463d989acccabbb6ee06901f83672eb78e04a11ff48dd8f69a27cda600080a2005b60ff60a01b1916600160a01b17905550905061167b565b346102bd5760403660031901126102bd576116df611f0e565b60008051602061232683398151915260606116f8611f1f565b92336000526117926020916002835261ffff9081604060002054166000526001845261172e60ff60406000205460a01c166121bc565b6000546001600160a01b0390811633036117c1575b501694856000526006835261176360ff60406000205460681c16156122a4565b856000526006835260406000209067ffffffff0000000082549160201b169067ffffffff000000001916179055565b60176040519180835282015276159bdd1a5b99c8195b990819185d194818da185b99d959604a1b6040820152a2005b6117e1908383166000526006865233906001604060002001541614612247565b87611743565b346102bd5760003660031901126102bd57602061ffff60035416604051908152f35b346102bd5760003660031901126102bd57602061ffff60075416604051908152f35b346102bd5760203660031901126102bd57611844611fc4565b6000546001600160a01b039190821633036102bd571680600052600460205261187760ff60406000205460081c16612203565b806000526004602052604060002060ff1981541690557f16dc8b56b1ed852b4d628030204bb4d83910ae764e85489e6a9669b462a3cb1c600080a2005b346102bd5760803660031901126102bd5760043563ffffffff81168091036102bd576118de611f1f565b906044356001600160401b0381116102bd576118fe903690600401611f6e565b906064356001600160401b0381116102bd5761191e903690600401611f6e565b33600052600260205261ffff604060002054166000526001928360205261194f60ff60406000205460a01c166121bc565b60075461ffff16600081815260066020908152604090912086810180546001600160a01b03191633179055805467ffffffff000000001990961667ffffffffffffffff199096169590951796901b67ffffffff00000000169590951783558051906001600160401b03821161086b5781906119cd600286015461202d565b601f8111611c46575b50602090601f8311600114611bdc57600092611bd1575b5050600019600383901b1c191690841b1760028301555b805160038301916001600160401b03821161086b578190611a25845461202d565b601f8111611b7c575b50602090601f8311600114611b1857600092611b0d575b5050600019600383901b1c191690841b1790555b805463ffffffff60401b4260401b169063ffffffff60401b191617905533600052600860205261ffff611a906040600020936121a9565b16908161ffff1960075416176007558254600160401b81101561086b57602093611abd9282018155612186565b81549060031b9061ffff84831b921b1916179055806000805160206123268339815191526060604051858152600c868201526b159bdd1a5b99c8105919195960a21b6040820152a2604051908152f35b015190508680611a45565b90869350601f198316918560005260206000209260005b818110611b6457508411611b4b575b505050811b019055611a59565b015160001960f88460031b161c19169055868080611b3e565b82840151855589969094019360209384019301611b2f565b909150836000526020600020601f840160051c81019160208510611bc7575b84939291601f89920160051c01915b828110611bb8575050611a2e565b60008155859450889101611baa565b9091508190611b9b565b0151905086806119ed565b90869350601f198316916002870160005260206000209260005b818110611c2e57508411611c15575b505050811b016002830155611a04565b015160001960f88460031b161c19169055868080611c05565b82840151855589969094019360209384019301611bf6565b909150600285016000526020600020601f840160051c81019160208510611c94575b84939291601f89920160051c01915b828110611c855750506119d6565b60008155859450889101611c77565b9091508190611c68565b346102bd5760003660031901126102bd5760206001600160401b03600d5416604051908152f35b346102bd5760003660031901126102bd57602061ffff60035460101c16604051908152f35b346102bd576020806003193601126102bd57611d04611f0e565b90336000526002815261ffff806040600020541660005260018252611d3360ff60406000205460a01c166121bc565b6000546001600160a01b03939084163303611eea575b169182600052600682526040600020604051906101008201908282106001600160401b0383111761086b57611df292600392604052611e2d86611e06845497611dff63ffffffff998a998a998a998a84168a528a84898c01991c1688528a8460401c1660408b015260608a019560ff8560601c161515875260ff60808c019560681c161515855260018201541660a08b0152611de760028201612067565b60c08b015201612067565b60e08801525115156122a4565b51156122e7565b611e178482511685855116106122e7565b6103e894859151160483421696879116116122e7565b511604161015611e9457606060008051602061232683398151915291836000526006815260406000206001831b60ff841b1982541617905560176040519180835282015276566f74696e672069732073657420656e646564206e6f7760481b6040820152a2005b6084906040519062461bcd60e51b82526004820152602960248201527f57696572646c7920766f74696e67207374617274206973204e4f54206c657373604482015268207468616e206e6f7760b81b6064820152fd5b81811660005260068352611f0933856001604060002001541614612247565b611d49565b6004359061ffff821682036102bd57565b6024359063ffffffff821682036102bd57565b606081019081106001600160401b0382111761086b57604052565b90601f801991011681019081106001600160401b0382111761086b57604052565b81601f820112156102bd578035906001600160401b03821161086b5760405192611fa2601f8401601f191660200185611f4d565b828452602083830101116102bd57816000926020809301838601378301015290565b600435906001600160a01b03821682036102bd57565b9060406003198301126102bd5760043561ffff811681036102bd5791602435906001600160401b0382116102bd5761201491600401611f6e565b90565b600435906001600160401b03821682036102bd57565b90600182811c9216801561205d575b602083101461204757565b634e487b7160e01b600052602260045260246000fd5b91607f169161203c565b906040519182600082549261207b8461202d565b9081845260019485811690816000146120ea57506001146120a7575b50506120a592500383611f4d565b565b9093915060005260209081600020936000915b8183106120d25750506120a593508201013880612097565b855488840185015294850194879450918301916120ba565b9150506120a594506020925060ff191682840152151560051b8201013880612097565b919082519283825260005b848110612139575050826000602080949584010152601f8019910116010190565b602081830181015184830182015201612118565b919091805483101561217057600052601860206000208360021c019260031b1690565b634e487b7160e01b600052603260045260246000fd5b919091805483101561217057600052601e60206000208360041c019260011b1690565b90600161ffff8093160191821161085557565b156121c357565b60405162461bcd60e51b815260206004820152601860248201527720b2323932b9b99034b9903737ba1030b7321020b236b4b760411b6044820152606490fd5b1561220a57565b60405162461bcd60e51b8152602060048201526015602482015274566f74657220646f6573206e6f742065786973747360581b6044820152606490fd5b1561224e57565b60405162461bcd60e51b815260206004820152602860248201527f596f752068617665206e6f2061636365737320746f206d616e616765207468696044820152677320766f74696e6760c01b6064820152608490fd5b156122ab57565b60405162461bcd60e51b8152602060048201526014602482015273566f74696e67206973204e6f742041637469766560601b6044820152606490fd5b156122ee57565b60405162461bcd60e51b815260206004820152600f60248201526e159bdd1a5b99c81a5cc8115b991959608a1b6044820152606490fdfe294e9ee3aea73d37cca6195bdae37d24a75aa7e045226401e744c1bb7915ebaea26469706673582212206e08676260a209b870d6915a34110d4a5a1c33a1212f3dd1b5c18cfd02c0ff4164736f6c63430008130033",
  "immutableReferences": {},
  "source": "// SPDX-License-Identifier: MIT\npragma solidity 0.8.19;\nimport  \"./Ownable.sol\";\ncontract DaobuilderDataStorage is Ownable{\n\n    /**\n    *\n    *   Data Storage\n    *\n    * */\n    struct VotingAdmin{\n        address admin;\n        bool enabled ;\n        bool added;\n    }\n    mapping(uint16=>VotingAdmin) public votingAdmins;\n    mapping(address=>uint16) public votingAdminsShort;\n    uint16 public lastVotingAdminId = 1;\n \n\n    struct Voter{\n        bool enabled;\n        bool added;\n        uint8 votingPower;\n    }\n    uint16 public lastVoterId = 1;\n    mapping(address=>Voter) public voters;\n    mapping(uint16=>address) public votersAddresses;\n\n    struct Voting{\n        uint32 start;\n        uint32 end;\n        uint32 createdAt;\n        bool ended;\n        bool activated;\n        address creator;\n        string title;\n        string descriptions;\n    }\n    mapping(uint16=>Voting) public votings;\n    uint16 public lastVotingId = 1;\n    mapping(address=>uint16[]) public myVotings;\n\n    struct Option{\n        uint16 votingId;\n        bool enabled;\n        string option;\n    }\n    mapping(uint64=>Option) public options;\n    uint64 public lastOptionId=1;\n    mapping(uint16=>uint64[]) public votingOptions;\n\n    struct Vote{\n        uint32 timeofVote;\n        uint16 votingId;\n        uint8 power;\n        address voter;\n        address voingInsteadOf;\n        string option;\n    }\n    mapping(uint64=>Vote) public votes;\n    uint64  public lastVoteId = 1;\n    mapping(address=>uint64[]) public votersVotes;\n    mapping(uint16=>uint64[]) public votingsVotes;\n    struct Delegations{\n        mapping(address=>address) delegaterToDelegatee;\n    }\n    mapping(uint16=>Delegations)  votingsDelegations;\n\n\n\n    /**\n    *\n    *   Data Storage\n    *\n    * */\n\n    /**\n    *   Events section\n    * */\n    event NewAdminAdded(address indexed admin);\n    event AdminRemoved(address indexed admin);\n    event VoterAdded(address indexed voter);\n    event VoterRemoved(address indexed voter);\n    event VoterEnabled(address indexed voter);\n    event VoterDisabled(address indexed voter);\n    event VoterPowerDecreased(address indexed voter);\n    event VoterPowerIncreased(address indexed voter);\n    event VotingDataChanged(uint16 indexed votingIndex , string  msg);\n    event VotingOptionChanged(uint16 indexed votingIndex , string  option, string  msg);\n    event VotingRightDelegated(uint16 indexed votingIndex  , address indexed delegater , address indexed delegatee);\n    event VotingRightUnDelegated(uint16 indexed votingIndex  , address indexed delegater , address indexed delegatee);\n    event VoteRegistered(uint16 indexed votingIndex , uint64 indexed option , address indexed voter);\n\n    /**\n    *   Events section\n    * */\n\n\n\n    /**\n    *   modifiers section\n    * */\n    modifier VoterExists(address _voter){\n        require(voters[_voter].added ,\"Voter does not exists\" );\n        _;\n    }\n    modifier VoterDoesNotExists(address _voter){\n        require(!voters[_voter].added ,\"Voter Already exists\" );\n        _;\n    }\n    modifier VoterCanVote(address _voter){\n        require(voters[_voter].added ,\"Voter does not exists\" );\n        require(voters[_voter].enabled ,\"Voter does not exists\" );\n        _;\n    }\n    modifier VoterMinVotingPowerCheck(address _voter){\n        require(voters[_voter].votingPower>1 ,\"Voter does not exists\" );\n        _;\n    }\n    modifier isAdmin(address _admin){\n        require(votingAdmins[votingAdminsShort[_admin]].enabled , \"Address is not and Admin\");\n        _;\n    }\n    modifier isAdminOf(address _admin , uint16 _votingId){\n        if(!isOwner()){\n            require(votings[_votingId].creator == _admin ,\"You have no access to manage this voting\");\n        }\n        _;\n    }\n    modifier isVotingActive(uint16 _votingId){\n        Voting memory voting = votings[_votingId];\n         require(voting.activated ,\"Voting is Not Active\");\n         require(!voting.ended ,\"Voting is Ended\");\n         require(voting.end >voting.start ,\"Voting is Ended\");\n         require(voting.end/1000 > uint32(block.timestamp) ,\"Voting is Ended\");\n         require(uint32(block.timestamp) > voting.start/1000  ,\"Wierdly voting start is NOT less than now\");\n         _;\n    }\n    modifier VotingNotPublishedYet(uint16 _votingId){\n         require(!votings[_votingId].activated ,\"Voting is Not Active\");\n         _;\n    }\n    modifier NoVoteRegesteredYet(uint16 _votingId , address _voteraddress){\n        //No vote registered for me\n        uint64[] memory Myvotes = votersVotes[_voteraddress];\n        // uint64[] storage _votes = votes;\n        mapping(uint64=>Vote) storage _votes = votes;\n        for(uint64 i=0;i<Myvotes.length;i++){\n            if(_votes[Myvotes[i]].votingId==_votingId){\n                require(_votes[Myvotes[i]].voingInsteadOf!=_voteraddress , \"You have already a registered vote for this voting\");\n                // require(votes[Myvotes[i]].votingId!=_votingId , \"You have already a registered vote for this voting\");\n            }\n        }\n        _;\n    }\n\n    modifier CanVoteBehalfOf(uint16 _votingId ,address _voter , address _onbehalfOf){\n        if(_voter!=_onbehalfOf){\n            require(votingsDelegations[_votingId].delegaterToDelegatee[_onbehalfOf]==_voter,\"You have no right to vote for someone's else\");\n        }\n        _;\n    }\n\n\n    modifier IsOptionValid(uint16 _votingId ,uint64 _votingOptionId){\n        Option memory opt =options[_votingOptionId]; \n        require(opt.enabled ,\"Selected Option is not in valid defined options \");\n        require(opt.votingId==_votingId ,\"Selected Option is not in valid defined options \");\n        _;\n    }\n    /**\n    *   modifiers section\n    * */\n\n\n\n\n    /**\n    Manage Voting Admins\n     */\n    function addVotingAdmin(address _newadmin) external OnlyOwner {\n        uint16 _locallastVotingAdminId = lastVotingAdminId;\n        VotingAdmin storage votingAdmin = votingAdmins[votingAdminsShort[_newadmin]];\n\n        if(!votingAdmin.added ){\n            votingAdminsShort[_newadmin] = _locallastVotingAdminId;\n            votingAdmins[_locallastVotingAdminId] = VotingAdmin(_newadmin , true,true);\n            _locallastVotingAdminId+=1;\n        }else{\n            votingAdmin.enabled = true;\n        }\n        lastVotingAdminId = _locallastVotingAdminId;\n        emit NewAdminAdded(_newadmin);\n    }\n    \n  \n    function removeVotingAdmin(address _address) external OnlyOwner isAdmin(_address) {\n        votingAdmins[votingAdminsShort[_address]].enabled = false;\n        emit AdminRemoved(_address);\n    }\n    function isUserAdmin(address _address) public view returns (bool){\n        return votingAdmins[votingAdminsShort[_address]].enabled;\n    }\n\n\n\n   \n    /**\n    Manage Voters\n     */\n    function addVoter(address _voter) external OnlyOwner VoterDoesNotExists(_voter){\n        Voter storage _voterinfo = voters[_voter];\n        _voterinfo.votingPower=1;\n        _voterinfo.added=true;\n        votersAddresses[lastVoterId] = _voter;\n        lastVoterId+=1;\n        emit VoterAdded(_voter);\n    }\n\n    function enableVoter(address _voter) external OnlyOwner VoterExists(_voter){\n        voters[_voter].enabled=true;\n        emit VoterEnabled(_voter);\n    }\n    function disableVoter(address _voter) external OnlyOwner VoterExists(_voter){\n        voters[_voter].enabled=false;\n        emit VoterDisabled(_voter);\n    }\n    function increaseVoterPower(address _voter) external OnlyOwner VoterExists(_voter){\n        voters[_voter].votingPower+=1;\n        emit VoterPowerIncreased(_voter);\n    }\n    function decreaseVoterPower(address _voter) external OnlyOwner VoterExists(_voter) VoterMinVotingPowerCheck(_voter){\n        voters[_voter].votingPower-=1;\n        emit VoterPowerDecreased(_voter);\n    }\n    function isVoter(address _address) public view returns (bool){\n        return voters[_address].votingPower>=1;\n    }\n\n\n    /**\n    Manage Votings\n     */\n    function addVoting(uint32 _start , uint32 _end , string memory _title , string memory _description) external isAdmin(msg.sender) returns (uint16) {\n        uint16 _lastVotingId = lastVotingId;\n        Voting storage newvoting =votings[_lastVotingId];\n        newvoting.creator = msg.sender;\n        newvoting.start=_start;\n        newvoting.end=_end;\n        // newvoting.ended;\n        // newvoting.activated;\n        newvoting.title=_title;\n        newvoting.descriptions=_description;\n        newvoting.createdAt=uint32(block.timestamp);\n        // votings[lastVotingId] = Voting(msg.sender, _start, _end, false , false,_title , _description , block.timestamp) ;\n        uint16[] storage myvotings =myVotings[msg.sender];\n        _lastVotingId+=1;\n        lastVotingId = _lastVotingId;\n        myvotings.push(_lastVotingId);\n        emit VotingDataChanged(_lastVotingId , \"Voting Added\");\n        return _lastVotingId;\n\n    }\n    function changeVotingStartDate(uint16 _votingId , uint32 _startdate) external isAdmin(msg.sender) isAdminOf(msg.sender , _votingId) VotingNotPublishedYet(_votingId) {\n        votings[_votingId].start = _startdate;\n        emit VotingDataChanged(_votingId , \"Voting start date changed\");\n    }\n    function changeVotingEndDate(uint16 _votingId , uint32 _enddate) external isAdmin(msg.sender) isAdminOf(msg.sender , _votingId) VotingNotPublishedYet(_votingId) {\n        votings[_votingId].end = _enddate;\n        emit VotingDataChanged(_votingId , \"Voting end date changed\");\n    }\n    function changeVotingTitle(uint16 _votingId , string memory _title) external isAdmin(msg.sender) isAdminOf(msg.sender , _votingId) VotingNotPublishedYet(_votingId) {\n        votings[_votingId].title = _title;\n        emit VotingDataChanged(_votingId , \"Voting title changed\");\n    }    \n    function changeVotingDescription(uint16 _votingId , string memory _description) external isAdmin(msg.sender) isAdminOf(msg.sender , _votingId) VotingNotPublishedYet(_votingId) {\n        votings[_votingId].descriptions = _description;\n        emit VotingDataChanged(_votingId , \"Voting description changed\");\n    }\n    function setVotingEnded(uint16 _votingId) external isAdmin(msg.sender) isAdminOf(msg.sender , _votingId) isVotingActive(_votingId) {\n        votings[_votingId].ended = true;\n        emit VotingDataChanged(_votingId , \"Voting is set ended now\");\n    }\n\n    function setVotingActive(uint16 _votingId) external OnlyOwner() {\n        votings[_votingId].activated = true;\n        emit VotingDataChanged(_votingId , \"Voting is set Active now\");\n    }\n \n    /**\n    Manage Voting Options\n     */\n    function addVotingOption(uint16 _votingId , string memory option) external isAdmin(msg.sender) isAdminOf(msg.sender , _votingId) VotingNotPublishedYet(_votingId){\n        uint64 _lastOptionId = lastOptionId;\n        uint64[] storage _votingOptions = votingOptions[_votingId];\n        options[_lastOptionId] = Option(_votingId,true , option);\n        _votingOptions.push(_lastOptionId);\n        lastOptionId+=1;\n        emit VotingOptionChanged(_votingId , option , \"Voting Option Added\");\n    }\n    function removeVotingOption(uint16 _votingId , uint64 option) external isAdmin(msg.sender) isAdminOf(msg.sender , _votingId) VotingNotPublishedYet(_votingId){\n        options[option].enabled = false;\n        emit VotingOptionChanged(_votingId , options[option].option , \"Voting option removed\");\n    }\n\n}",
  "sourcePath": "/home/aca/smartcontracts/daobuilder/contracts/DaobuilderDataStorage.sol",
  "compiler": {
    "name": "solc",
    "version": "0.8.19+commit.7dd6d404.Emscripten.clang"
  },
  "schemaVersion": "3.4.16",
  "updatedAt": "2025-03-28T18:07:02.064Z",
  "devdoc": {
    "kind": "dev",
    "methods": {},
    "version": 1
  },
  "userdoc": {
    "events": {
      "NewAdminAdded(address)": {
        "notice": "Events section "
      }
    },
    "kind": "user",
    "methods": {
      "addVoter(address)": {
        "notice": "Manage Voters"
      },
      "addVoting(uint32,uint32,string,string)": {
        "notice": "Manage Votings"
      },
      "addVotingAdmin(address)": {
        "notice": "Manage Voting Admins"
      },
      "addVotingOption(uint16,string)": {
        "notice": "Manage Voting Options"
      }
    },
    "version": 1
  }
}