{
  "contractName": "DaobuilderDataStorage",
  "abi": [
    {
      "anonymous": false,
      "inputs": [
        {
          "indexed": true,
          "internalType": "address",
          "name": "admin",
          "type": "address"
        }
      ],
      "name": "AdminRemoved",
      "type": "event"
    },
    {
      "anonymous": false,
      "inputs": [
        {
          "indexed": true,
          "internalType": "address",
          "name": "admin",
          "type": "address"
        }
      ],
      "name": "NewAdminAdded",
      "type": "event"
    },
    {
      "anonymous": false,
      "inputs": [
        {
          "indexed": true,
          "internalType": "address",
          "name": "previousOwner",
          "type": "address"
        },
        {
          "indexed": true,
          "internalType": "address",
          "name": "newOwner",
          "type": "address"
        }
      ],
      "name": "OwnershipTransferred",
      "type": "event"
    },
    {
      "anonymous": false,
      "inputs": [
        {
          "indexed": true,
          "internalType": "uint256",
          "name": "votingIndex",
          "type": "uint256"
        },
        {
          "indexed": true,
          "internalType": "uint256",
          "name": "option",
          "type": "uint256"
        },
        {
          "indexed": true,
          "internalType": "address",
          "name": "voter",
          "type": "address"
        }
      ],
      "name": "VoteRegistered",
      "type": "event"
    },
    {
      "anonymous": false,
      "inputs": [
        {
          "indexed": true,
          "internalType": "address",
          "name": "voter",
          "type": "address"
        }
      ],
      "name": "VoterAdded",
      "type": "event"
    },
    {
      "anonymous": false,
      "inputs": [
        {
          "indexed": true,
          "internalType": "address",
          "name": "voter",
          "type": "address"
        }
      ],
      "name": "VoterDisabled",
      "type": "event"
    },
    {
      "anonymous": false,
      "inputs": [
        {
          "indexed": true,
          "internalType": "address",
          "name": "voter",
          "type": "address"
        }
      ],
      "name": "VoterEnabled",
      "type": "event"
    },
    {
      "anonymous": false,
      "inputs": [
        {
          "indexed": true,
          "internalType": "address",
          "name": "voter",
          "type": "address"
        }
      ],
      "name": "VoterPowerDecreased",
      "type": "event"
    },
    {
      "anonymous": false,
      "inputs": [
        {
          "indexed": true,
          "internalType": "address",
          "name": "voter",
          "type": "address"
        }
      ],
      "name": "VoterPowerIncreased",
      "type": "event"
    },
    {
      "anonymous": false,
      "inputs": [
        {
          "indexed": true,
          "internalType": "address",
          "name": "voter",
          "type": "address"
        }
      ],
      "name": "VoterRemoved",
      "type": "event"
    },
    {
      "anonymous": false,
      "inputs": [
        {
          "indexed": true,
          "internalType": "uint256",
          "name": "votingIndex",
          "type": "uint256"
        },
        {
          "indexed": false,
          "internalType": "string",
          "name": "msg",
          "type": "string"
        }
      ],
      "name": "VotingDataChanged",
      "type": "event"
    },
    {
      "anonymous": false,
      "inputs": [
        {
          "indexed": true,
          "internalType": "uint256",
          "name": "votingIndex",
          "type": "uint256"
        },
        {
          "indexed": false,
          "internalType": "string",
          "name": "option",
          "type": "string"
        },
        {
          "indexed": false,
          "internalType": "string",
          "name": "msg",
          "type": "string"
        }
      ],
      "name": "VotingOptionChanged",
      "type": "event"
    },
    {
      "anonymous": false,
      "inputs": [
        {
          "indexed": true,
          "internalType": "uint256",
          "name": "votingIndex",
          "type": "uint256"
        },
        {
          "indexed": true,
          "internalType": "address",
          "name": "delegater",
          "type": "address"
        },
        {
          "indexed": true,
          "internalType": "address",
          "name": "delegatee",
          "type": "address"
        }
      ],
      "name": "VotingRightDelegated",
      "type": "event"
    },
    {
      "anonymous": false,
      "inputs": [
        {
          "indexed": true,
          "internalType": "uint256",
          "name": "votingIndex",
          "type": "uint256"
        },
        {
          "indexed": true,
          "internalType": "address",
          "name": "delegater",
          "type": "address"
        },
        {
          "indexed": true,
          "internalType": "address",
          "name": "delegatee",
          "type": "address"
        }
      ],
      "name": "VotingRightUnDelegated",
      "type": "event"
    },
    {
      "inputs": [],
      "name": "isOwner",
      "outputs": [
        {
          "internalType": "bool",
          "name": "",
          "type": "bool"
        }
      ],
      "stateMutability": "view",
      "type": "function"
    },
    {
      "inputs": [],
      "name": "lastOptionId",
      "outputs": [
        {
          "internalType": "uint256",
          "name": "",
          "type": "uint256"
        }
      ],
      "stateMutability": "view",
      "type": "function"
    },
    {
      "inputs": [],
      "name": "lastVoteId",
      "outputs": [
        {
          "internalType": "uint256",
          "name": "",
          "type": "uint256"
        }
      ],
      "stateMutability": "view",
      "type": "function"
    },
    {
      "inputs": [],
      "name": "lastVoterId",
      "outputs": [
        {
          "internalType": "uint256",
          "name": "",
          "type": "uint256"
        }
      ],
      "stateMutability": "view",
      "type": "function"
    },
    {
      "inputs": [],
      "name": "lastVotingAdminId",
      "outputs": [
        {
          "internalType": "uint256",
          "name": "",
          "type": "uint256"
        }
      ],
      "stateMutability": "view",
      "type": "function"
    },
    {
      "inputs": [],
      "name": "lastVotingId",
      "outputs": [
        {
          "internalType": "uint256",
          "name": "",
          "type": "uint256"
        }
      ],
      "stateMutability": "view",
      "type": "function"
    },
    {
      "inputs": [
        {
          "internalType": "address",
          "name": "",
          "type": "address"
        },
        {
          "internalType": "uint256",
          "name": "",
          "type": "uint256"
        }
      ],
      "name": "myVotings",
      "outputs": [
        {
          "internalType": "uint256",
          "name": "",
          "type": "uint256"
        }
      ],
      "stateMutability": "view",
      "type": "function"
    },
    {
      "inputs": [
        {
          "internalType": "uint256",
          "name": "",
          "type": "uint256"
        }
      ],
      "name": "options",
      "outputs": [
        {
          "internalType": "string",
          "name": "option",
          "type": "string"
        },
        {
          "internalType": "bool",
          "name": "enabled",
          "type": "bool"
        },
        {
          "internalType": "uint256",
          "name": "votingId",
          "type": "uint256"
        }
      ],
      "stateMutability": "view",
      "type": "function"
    },
    {
      "inputs": [
        {
          "internalType": "address",
          "name": "to",
          "type": "address"
        }
      ],
      "name": "transferOwnership",
      "outputs": [],
      "stateMutability": "nonpayable",
      "type": "function"
    },
    {
      "inputs": [
        {
          "internalType": "address",
          "name": "",
          "type": "address"
        }
      ],
      "name": "voters",
      "outputs": [
        {
          "internalType": "bool",
          "name": "enabled",
          "type": "bool"
        },
        {
          "internalType": "uint8",
          "name": "votingPower",
          "type": "uint8"
        },
        {
          "internalType": "bool",
          "name": "added",
          "type": "bool"
        }
      ],
      "stateMutability": "view",
      "type": "function"
    },
    {
      "inputs": [
        {
          "internalType": "uint256",
          "name": "",
          "type": "uint256"
        }
      ],
      "name": "votersAddresses",
      "outputs": [
        {
          "internalType": "address",
          "name": "",
          "type": "address"
        }
      ],
      "stateMutability": "view",
      "type": "function"
    },
    {
      "inputs": [
        {
          "internalType": "address",
          "name": "",
          "type": "address"
        },
        {
          "internalType": "uint256",
          "name": "",
          "type": "uint256"
        }
      ],
      "name": "votersVotes",
      "outputs": [
        {
          "internalType": "uint256",
          "name": "",
          "type": "uint256"
        }
      ],
      "stateMutability": "view",
      "type": "function"
    },
    {
      "inputs": [
        {
          "internalType": "uint256",
          "name": "",
          "type": "uint256"
        }
      ],
      "name": "votes",
      "outputs": [
        {
          "internalType": "uint256",
          "name": "votingId",
          "type": "uint256"
        },
        {
          "internalType": "address",
          "name": "voter",
          "type": "address"
        },
        {
          "internalType": "address",
          "name": "voingInsteadOf",
          "type": "address"
        },
        {
          "internalType": "string",
          "name": "option",
          "type": "string"
        },
        {
          "internalType": "uint256",
          "name": "timeofVote",
          "type": "uint256"
        },
        {
          "internalType": "uint256",
          "name": "power",
          "type": "uint256"
        }
      ],
      "stateMutability": "view",
      "type": "function"
    },
    {
      "inputs": [
        {
          "internalType": "uint256",
          "name": "",
          "type": "uint256"
        }
      ],
      "name": "votingAdmins",
      "outputs": [
        {
          "internalType": "address",
          "name": "admin",
          "type": "address"
        },
        {
          "internalType": "bool",
          "name": "enabled",
          "type": "bool"
        },
        {
          "internalType": "bool",
          "name": "added",
          "type": "bool"
        }
      ],
      "stateMutability": "view",
      "type": "function"
    },
    {
      "inputs": [
        {
          "internalType": "address",
          "name": "",
          "type": "address"
        }
      ],
      "name": "votingAdminsShort",
      "outputs": [
        {
          "internalType": "uint256",
          "name": "",
          "type": "uint256"
        }
      ],
      "stateMutability": "view",
      "type": "function"
    },
    {
      "inputs": [
        {
          "internalType": "uint256",
          "name": "",
          "type": "uint256"
        },
        {
          "internalType": "uint256",
          "name": "",
          "type": "uint256"
        }
      ],
      "name": "votingOptions",
      "outputs": [
        {
          "internalType": "uint256",
          "name": "",
          "type": "uint256"
        }
      ],
      "stateMutability": "view",
      "type": "function"
    },
    {
      "inputs": [
        {
          "internalType": "uint256",
          "name": "",
          "type": "uint256"
        }
      ],
      "name": "votings",
      "outputs": [
        {
          "internalType": "address",
          "name": "creator",
          "type": "address"
        },
        {
          "internalType": "uint256",
          "name": "start",
          "type": "uint256"
        },
        {
          "internalType": "uint256",
          "name": "end",
          "type": "uint256"
        },
        {
          "internalType": "bool",
          "name": "ended",
          "type": "bool"
        },
        {
          "internalType": "bool",
          "name": "activated",
          "type": "bool"
        },
        {
          "internalType": "string",
          "name": "title",
          "type": "string"
        },
        {
          "internalType": "string",
          "name": "descriptions",
          "type": "string"
        },
        {
          "internalType": "uint256",
          "name": "createdAt",
          "type": "uint256"
        }
      ],
      "stateMutability": "view",
      "type": "function"
    },
    {
      "inputs": [
        {
          "internalType": "uint256",
          "name": "",
          "type": "uint256"
        },
        {
          "internalType": "uint256",
          "name": "",
          "type": "uint256"
        }
      ],
      "name": "votingsVotes",
      "outputs": [
        {
          "internalType": "uint256",
          "name": "",
          "type": "uint256"
        }
      ],
      "stateMutability": "view",
      "type": "function"
    },
    {
      "inputs": [
        {
          "internalType": "address",
          "name": "_newadmin",
          "type": "address"
        }
      ],
      "name": "addVotingAdmin",
      "outputs": [],
      "stateMutability": "nonpayable",
      "type": "function"
    },
    {
      "inputs": [
        {
          "internalType": "address",
          "name": "_address",
          "type": "address"
        }
      ],
      "name": "removeVotingAdmin",
      "outputs": [],
      "stateMutability": "nonpayable",
      "type": "function"
    },
    {
      "inputs": [
        {
          "internalType": "address",
          "name": "_address",
          "type": "address"
        }
      ],
      "name": "isUserAdmin",
      "outputs": [
        {
          "internalType": "bool",
          "name": "",
          "type": "bool"
        }
      ],
      "stateMutability": "view",
      "type": "function"
    },
    {
      "inputs": [
        {
          "internalType": "address",
          "name": "_voter",
          "type": "address"
        }
      ],
      "name": "addVoter",
      "outputs": [],
      "stateMutability": "nonpayable",
      "type": "function"
    },
    {
      "inputs": [
        {
          "internalType": "address",
          "name": "_voter",
          "type": "address"
        }
      ],
      "name": "enableVoter",
      "outputs": [],
      "stateMutability": "nonpayable",
      "type": "function"
    },
    {
      "inputs": [
        {
          "internalType": "address",
          "name": "_voter",
          "type": "address"
        }
      ],
      "name": "disableVoter",
      "outputs": [],
      "stateMutability": "nonpayable",
      "type": "function"
    },
    {
      "inputs": [
        {
          "internalType": "address",
          "name": "_voter",
          "type": "address"
        }
      ],
      "name": "increaseVoterPower",
      "outputs": [],
      "stateMutability": "nonpayable",
      "type": "function"
    },
    {
      "inputs": [
        {
          "internalType": "address",
          "name": "_voter",
          "type": "address"
        }
      ],
      "name": "decreaseVoterPower",
      "outputs": [],
      "stateMutability": "nonpayable",
      "type": "function"
    },
    {
      "inputs": [
        {
          "internalType": "address",
          "name": "_address",
          "type": "address"
        }
      ],
      "name": "isVoter",
      "outputs": [
        {
          "internalType": "bool",
          "name": "",
          "type": "bool"
        }
      ],
      "stateMutability": "view",
      "type": "function"
    },
    {
      "inputs": [
        {
          "internalType": "uint256",
          "name": "_start",
          "type": "uint256"
        },
        {
          "internalType": "uint256",
          "name": "_end",
          "type": "uint256"
        },
        {
          "internalType": "string",
          "name": "_title",
          "type": "string"
        },
        {
          "internalType": "string",
          "name": "_description",
          "type": "string"
        }
      ],
      "name": "addVoting",
      "outputs": [
        {
          "internalType": "uint256",
          "name": "",
          "type": "uint256"
        }
      ],
      "stateMutability": "nonpayable",
      "type": "function"
    },
    {
      "inputs": [
        {
          "internalType": "uint256",
          "name": "_votingId",
          "type": "uint256"
        },
        {
          "internalType": "uint256",
          "name": "_startdate",
          "type": "uint256"
        }
      ],
      "name": "changeVotingStartDate",
      "outputs": [],
      "stateMutability": "nonpayable",
      "type": "function"
    },
    {
      "inputs": [
        {
          "internalType": "uint256",
          "name": "_votingId",
          "type": "uint256"
        },
        {
          "internalType": "uint256",
          "name": "_enddate",
          "type": "uint256"
        }
      ],
      "name": "changeVotingEndDate",
      "outputs": [],
      "stateMutability": "nonpayable",
      "type": "function"
    },
    {
      "inputs": [
        {
          "internalType": "uint256",
          "name": "_votingId",
          "type": "uint256"
        },
        {
          "internalType": "string",
          "name": "_title",
          "type": "string"
        }
      ],
      "name": "changeVotingTitle",
      "outputs": [],
      "stateMutability": "nonpayable",
      "type": "function"
    },
    {
      "inputs": [
        {
          "internalType": "uint256",
          "name": "_votingId",
          "type": "uint256"
        },
        {
          "internalType": "string",
          "name": "_description",
          "type": "string"
        }
      ],
      "name": "changeVotingDescription",
      "outputs": [],
      "stateMutability": "nonpayable",
      "type": "function"
    },
    {
      "inputs": [
        {
          "internalType": "uint256",
          "name": "_votingId",
          "type": "uint256"
        }
      ],
      "name": "setVotingEnded",
      "outputs": [],
      "stateMutability": "nonpayable",
      "type": "function"
    },
    {
      "inputs": [
        {
          "internalType": "uint256",
          "name": "_votingId",
          "type": "uint256"
        }
      ],
      "name": "setVotingActive",
      "outputs": [],
      "stateMutability": "nonpayable",
      "type": "function"
    },
    {
      "inputs": [
        {
          "internalType": "uint256",
          "name": "_votingId",
          "type": "uint256"
        },
        {
          "internalType": "string",
          "name": "option",
          "type": "string"
        }
      ],
      "name": "addVotingOption",
      "outputs": [],
      "stateMutability": "nonpayable",
      "type": "function"
    },
    {
      "inputs": [
        {
          "internalType": "uint256",
          "name": "_votingId",
          "type": "uint256"
        },
        {
          "internalType": "uint256",
          "name": "option",
          "type": "uint256"
        }
      ],
      "name": "removeVotingOption",
      "outputs": [],
      "stateMutability": "nonpayable",
      "type": "function"
    }
  ],
  "bytecode": "0x6080806040523461005e57600080546001600160a01b031916339081178255817f8be0079c531659141344cd1fd0a4f28419497f9722a3daafe3b4186f6b6457e08180a3806003558060045580600855600e556121e490816100648239f35b600080fdfe608060405260048036101561001357600080fd5b60003560e01c806307e1560614611bc15780631702050314611ba35780631af1067914611b705780631bc28ea014611b525780631d9d554c14611ac9578063284fe07914611aab57806329bef42914611a8d57806333f7e03e14611a5c57806334f486c114611912578063379e07bf14611861578063409e22051461180257806340e20dda146116525780634c6fd10f1461156d5780634f8935e9146114e55780635cca38c51461143d5780635d7b48b5146113565780635df81330146112d05780636aa8ba841461129f5780637069569814611255578063735983861461123757806374d523a8146111e757806381435aa71461115b5780638f32d59b146111335780639cc2127e14610f28578063a09b24c314610e56578063a3ec138d14610dff578063a44f151114610b69578063a598d03c14610ab5578063a7771ee314610a71578063bd95fa5614610a23578063cbb806db14610822578063deff5db5146107e8578063f27a82f414610790578063f2fde38b14610721578063f4ab9adf146105b95763fe822ce0146101a957600080fd5b346105b45760803660031901126105b4576001600160401b03906044358281116105b4576101da9036908301611f48565b906064358381116105b4576101f29036908301611f48565b92336000526020936002855260406000205460005260019182865261022160ff60406000205460a01c16611fd0565b6008549280840180941161059f57836008556040519461010086018681108482111761058a57604052338652878601813581526040870190602435825260608801916000835260808901916000835260a08a019a8b5260c08a0197885260e08a0198428a5260005260078c5260406000209960018060a01b0390511660018060a01b03198b5416178a5551858a01555160028901556102d36003890192511515839060ff801983541691151516179055565b51151561ff0082549160081b169061ff001916179055808601965196875184811161057557806103038354611dd6565b998b601f9b8c8111610521575b50508b908b83116001146104bc576000926104b1575b5050600019600383901b1c191690841b1790555b60058601935190815193841161049c57506103558454611dd6565b878111610456575b50879683116001146103f25782916006969783926000946103e7575b50501b916000199060031b1c19161790555b5191015533600052600981526103a860406000206008549061205b565b6008548060008051602061218f8339815191526060604051858152600c868201526b159bdd1a5b99c8105919195960a21b6040820152a2604051908152f35b015192503880610379565b601f9291921982169684600052886000209160005b8a8a8210610442575050836006989910610429575b505050811b01905561038b565b015160001960f88460031b161c1916905538808061041c565b828401518555938601939283019201610407565b84600052886000208880860160051c8201928b8710610493575b0160051c019083905b82811061048757505061035d565b60008155018390610479565b92508192610470565b604190634e487b7160e01b6000525260246000fd5b015190503880610326565b60008581528d8120889550929190601f198516908f5b82821061050857505084116104ef575b505050811b01905561033a565b015160001960f88460031b161c191690553880806104e2565b8484015186558a979095019493840193908101906104d2565b90919250846000528b826000209181860160051c830193861061056c575b918891869594930160051c01915b82811061055d57508d9150610310565b6000815585945088910161054d565b9250819261053f565b604183634e487b7160e01b6000525260246000fd5b604182634e487b7160e01b6000525260246000fd5b601185634e487b7160e01b6000525260246000fd5b600080fd5b50346105b4576020806003193601126105b4576105d4611d7c565b6000546001600160a01b039190821633036105b4571690816000526005815260ff60406000205460101c166106e7578254600181018091116106d2579260069293815560405161062381611e10565b600081528281016001815261067860ff6040840192600184528860005260058752610662604060002095511515869060ff801983541691151516179055565b51845461ff001916911660081b61ff0016178355565b51815462ff0000191690151560101b62ff0000161790555460009081529190526040812080546001600160a01b031916831790557fa636f4a11e2d3ba7f89d042ecb0a6b886716e98cd49d8fd876ee0f73bced42b89080a2005b601184634e487b7160e01b6000525260246000fd5b826064916040519162461bcd60e51b83528201526014602482015273566f74657220416c72656164792065786973747360601b6044820152fd5b346105b45760203660031901126105b45761073a611d7c565b6000546001600160a01b0380821692338490036105b457169182156105b45782907f8be0079c531659141344cd1fd0a4f28419497f9722a3daafe3b4186f6b6457e0600080a36001600160a01b03191617600055005b346105b45760403660031901126105b4576107a9611d7c565b6001600160a01b03166000908152600960205260409020805460243591908210156105b4576020916107da91611da8565b90546040519160031b1c8152f35b346105b45760203660031901126105b4576001600160a01b03610809611d7c565b1660005260026020526020604060002054604051908152f35b50346105b45761083136611f9e565b3360005260209060028252604060002054600052600180835261085e60ff60406000205460a01c16611fd0565b6000546001600160a01b039081163303610a02575b50836000526007835261089460ff60036040600020015460081c16156120ed565b836000526007835284604060002001918051956001600160401b03871161049c57506108c08354611dd6565b601f81116109b9575b508390601f87116001146109425795806060959493819360008051602061218f8339815191529899600094610937575b50501b916000199060031b1c19161790555b60146040519180835282015273159bdd1a5b99c81d1a5d1b194818da185b99d95960621b6040820152a2005b0151925038806108f9565b90601f1987169184600052856000209260005b8181106109a4575091606096959493918960008051602061218f833981519152999a941061098b575b505050811b01905561090b565b015160001960f88460031b161c1916905538808061097e565b82840151855593850193928701928701610955565b8360005284600020601f880160051c8101918689106109f8575b601f0160051c019083905b8281106109ec5750506108c9565b600081550183906109de565b90915081906109d3565b610a1d90856000526007855233906040600020541614612090565b38610873565b50346105b45760203660031901126105b457356000526001602052606060406000205460ff6040519160018060a01b0381168352818160a01c161515602084015260a81c1615156040820152f35b346105b45760203660031901126105b4576001600160a01b03610a92611d7c565b1660005260056020526020600160ff60406000205460081c161015604051908152f35b50346105b45760203660031901126105b4578035600052600760205260406000209060018060a01b0382541690610b5f600184015493610b5160028201549360ff610b066003850154928501611e62565b916006610b1560058701611e62565b95015496604051998a998a5260208a015260408901528181161515606089015260081c16151560808701526101008060a0880152860190611f08565b9084820360c0860152611f08565b9060e08301520390f35b50346105b457610b7836611f9e565b3360005260026020526040600020546000526001602052610ba360ff60406000205460a01c16611fd0565b6000546001600160a01b039081163303610ddd575b50816000526007602052610bda60ff60036040600020015460081c16156120ed565b600b54600181018091116106d25780600b5582600052600c602052604060002090604051610c0781611e10565b838152602081019160018352856040830152600052600a6020526040600020918151968751906001600160401b03821161049c5750610c468454611dd6565b601f8111610d95575b506020601f8211600114610d0e5792610cb460029383604094610cc299989760008051602061216f8339815191529c9d600092610d03575b50508160011b916000199060031b1c19161786555b511515600186019060ff801983541691151516179055565b0151910155600b549061205b565b6040610cd681519282845282840190611f08565b72159bdd1a5b99c813dc1d1a5bdb881059191959606a1b60208483039283828701526013815201520190a2005b015190503880610c87565b8460005260206000209860005b601f1984168110610d7d575060029360018460008051602061216f8339815191529b9c610cc29a999895610cb495604098601f19811610610d64575b505050811b018655610c9c565b015160001960f88460031b161c19169055388080610d57565b828201518b556001909a019960209283019201610d1b565b846000526020600020601f830160051c81019160208410610dd3575b601f0160051c01905b818110610dc75750610c4f565b60008155600101610dba565b9091508190610db1565b610df99083600052600760205233906040600020541614612090565b38610bb8565b346105b45760203660031901126105b4576001600160a01b03610e20611d7c565b166000526005602052606060406000205460ff6040519181811615158352818160081c16602084015260101c1615156040820152f35b50346105b45760203660031901126105b457610e70611d7c565b6000546001600160a01b039190821633036105b45716806000526005602052610ea360ff60406000205460101c16612017565b806000526005602052610ec3600160ff60406000205460081c1611612017565b806000526005602052604060002060001960ff825460081c16019060ff82116106d25790610f01919061ff0082549160081b169061ff001916179055565b7f84600759115fa43b37442490b0820bda045fe013e33c564b7cc4e477776a70e2600080a2005b50346105b457610f3736611f9e565b33600052602090600282526040600020546000526001808352610f6460ff60406000205460a01c16611fd0565b6000546001600160a01b039081163303611112575b508360005260078352610f9a60ff60036040600020015460081c16156120ed565b83600052600783526005604060002001918051956001600160401b03871161049c5750610fc78354611dd6565b601f81116110c9575b508390601f87116001146110525795806060959493819360008051602061218f8339815191529899600094611047575b50501b916000199060031b1c19161790555b601a604051918083528201527f566f74696e67206465736372697074696f6e206368616e6765640000000000006040820152a2005b015192503880611000565b90601f1987169184600052856000209260005b8181106110b4575091606096959493918960008051602061218f833981519152999a941061109b575b505050811b019055611012565b015160001960f88460031b161c1916905538808061108e565b82840151855593850193928701928701611065565b8360005284600020601f880160051c810191868910611108575b601f0160051c019083905b8281106110fc575050610fd0565b600081550183906110ee565b90915081906110e3565b61112d90856000526007855233906040600020541614612090565b38610f79565b346105b45760003660031901126105b457602060018060a01b03600054163314604051908152f35b346105b45760203660031901126105b457611174611d7c565b6000546001600160a01b039190821633036105b457168060005260056020526111a760ff60406000205460101c16612017565b8060005260056020526040600020600160ff198254161790557ff82c1433711971ea9322bdc605f131ef667575de2f51e3b9d26cd68f44299685600080a2005b346105b45760203660031901126105b4576001600160a01b03611208611d7c565b1660005260026020526040600020546000526001602052602060ff60406000205460a01c166040519015158152f35b346105b45760003660031901126105b4576020600b54604051908152f35b346105b45760403660031901126105b45761126e611d7c565b6001600160a01b03166000908152600f60205260409020805460243591908210156105b4576020916107da91611da8565b346105b4576112ad36611d92565b90600052600c602052604060002080548210156105b4576020916107da91611da8565b50346105b45760203660031901126105b4578035600052600d602052604060002080549060018060a01b0392611347846001840154169460028401541691600561131c60038601611e62565b918501549401549260405196879687526020870152604086015260c0606086015260c0850190611f08565b91608084015260a08301520390f35b346105b457606060008051602061218f83398151915261137536611d92565b9290923360005260209060028252604060002054600052600182526113a460ff60406000205460a01c16611fd0565b6000546001600160a01b03908116330361141c575b5084600052600782526113da60ff60036040600020015460081c16156120ed565b846000526007825260016040600020015560196040519180835282015278159bdd1a5b99c81cdd185c9d0819185d194818da185b99d959603a1b6040820152a2005b61143790866000526007845233906040600020541614612090565b856113b9565b346105b45760203660031901126105b457611456611d7c565b6000546001600160a01b039190821633036105b45716806000526002602052604060002054600052600160205261149760ff60406000205460a01c16611fd0565b8060005260026020526040600020546000526001602052604060002060ff60a01b1981541690557fa3b62bc36326052d97ea62d63c3d60308ed4c3ea8ac079dd8499f1e9c4f80c0f600080a2005b50346105b45760203660031901126105b4576000549035906001600160a01b031633036105b457806000526007602052600360406000200161010061ff001982541617905560008051602061218f8339815191526060604051602081526018602082015277566f74696e672069732073657420416374697665206e6f7760401b6040820152a2005b346105b457606060008051602061218f83398151915261158c36611d92565b9290923360005260209060028252604060002054600052600182526115bb60ff60406000205460a01c16611fd0565b6000546001600160a01b039081163303611631575b5084600052600782526115f160ff60036040600020015460081c16156120ed565b846000526007825260026040600020015560176040519180835282015276159bdd1a5b99c8195b990819185d194818da185b99d959604a1b6040820152a2005b61164c90866000526007845233906040600020541614612090565b856115d0565b346105b45761166036611d92565b90336000526020916002835260406000205460005260019081845261168f60ff60406000205460a01c16611fd0565b6000546001600160a01b0390811633036117e1575b5082600052600784526116c560ff60036040600020015460081c16156120ed565b600052600a8352604060002081810160ff1990818154169055604051926040845260009280546116f481611dd6565b9384604088015283821691826000146117a3575050600114611753575b8560008051602061216f8339815191528660408774159bdd1a5b99c81bdc1d1a5bdb881c995b5bdd9959605a1b8c8483039283828701526015815201520190a2005b60009081528681209093505b82841061178f5750505081016060018374159bdd1a5b99c81bdc1d1a5bdb881c995b5bdd9959605a1b6040611711565b80548585016060015292860192810161175f565b1660608781019190915293151560051b8601909301935086925074159bdd1a5b99c81bdc1d1a5bdb881c995b5bdd9959605a1b915060409050611711565b6117fc90846000526007865233906040600020541614612090565b846116a4565b50346105b45760203660031901126105b45735600052600a602052611850604060002061182e81611e62565b90600260ff600183015416910154604051938493606085526060850190611f08565b911515602084015260408301520390f35b50346105b45760203660031901126105b45761187b611d7c565b6000546001600160a01b039190821633036105b457168060005260056020526118ae60ff60406000205460101c16612017565b8060005260056020526040600020600160ff825460081c16019060ff82116106d257906118eb919061ff0082549160081b169061ff001916179055565b7f4e7e2c6b7807915515b04d4cd84bf7cba8a16c67281691562abfa0def6e922fb600080a2005b50346105b4576020806003193601126105b45761192d611d7c565b6000546001600160a01b03929190831633036105b457821692836000526002825260406000205460005260019283835260ff60406000205460a81c1615600014611a2e5760035491848301809311611a19575081600355846000526002835281604060002055604051936119a085611e10565b85855283850181815260408087018381526000958652929095529390922093518454935192516001600160b01b031990941691161790151560a01b60ff60a01b161790151560a81b60ff60a81b161790555b7f2dbe9fb88463d989acccabbb6ee06901f83672eb78e04a11ff48dd8f69a27cda600080a2005b601190634e487b7160e01b6000525260246000fd5b505060008381526002825260408082205482529290915220805460ff60a01b1916600160a01b1790556119f2565b346105b457611a6a36611d92565b906000526010602052604060002080548210156105b4576020916107da91611da8565b346105b45760003660031901126105b4576020600354604051908152f35b346105b45760003660031901126105b4576020600854604051908152f35b346105b45760203660031901126105b457611ae2611d7c565b6000546001600160a01b039190821633036105b45716806000526005602052611b1560ff60406000205460101c16612017565b806000526005602052604060002060ff1981541690557f16dc8b56b1ed852b4d628030204bb4d83910ae764e85489e6a9669b462a3cb1c600080a2005b346105b45760003660031901126105b4576020600e54604051908152f35b50346105b45760203660031901126105b457356000526006602052602060018060a01b0360406000205416604051908152f35b50346105b45760003660031901126105b45760209054604051908152f35b50346105b4576020806003193601126105b457813591336000526002825260406000205460005260018252611c0060ff60406000205460a01c16611fd0565b6000546001600160a01b039081163303611d5b575b5082600052600790818352611c3760ff60036040600020015460081c166120ed565b83600052818352611c5360ff6003604060002001541615612130565b83600052818352611c7260406000206001600282015491015410612130565b836000528183526103e8611c9181600260406000200154044210612130565b8460005282845260016040600020015404421115611d05575060008051602061218f833981519152916060918460005281526003604060002001600160ff1982541617905560176040519180835282015276566f74696e672069732073657420656e646564206e6f7760481b6040820152a2005b60405162461bcd60e51b8152908101839052602960248201527f57696572646c7920766f74696e67207374617274206973204e4f54206c657373604482015268207468616e206e6f7760b81b6064820152608490fd5b611d7690846000526007845233906040600020541614612090565b38611c15565b600435906001600160a01b03821682036105b457565b60409060031901126105b4576004359060243590565b8054821015611dc05760005260206000200190600090565b634e487b7160e01b600052603260045260246000fd5b90600182811c92168015611e06575b6020831014611df057565b634e487b7160e01b600052602260045260246000fd5b91607f1691611de5565b606081019081106001600160401b03821117611e2b57604052565b634e487b7160e01b600052604160045260246000fd5b90601f801991011681019081106001600160401b03821117611e2b57604052565b9060405191826000825492611e7684611dd6565b908184526001948581169081600014611ee55750600114611ea2575b5050611ea092500383611e41565b565b9093915060005260209081600020936000915b818310611ecd575050611ea093508201013880611e92565b85548884018501529485019487945091830191611eb5565b915050611ea094506020925060ff191682840152151560051b8201013880611e92565b919082519283825260005b848110611f34575050826000602080949584010152601f8019910116010190565b602081830181015184830182015201611f13565b81601f820112156105b4578035906001600160401b038211611e2b5760405192611f7c601f8401601f191660200185611e41565b828452602083830101116105b457816000926020809301838601378301015290565b9060406003198301126105b45760043591602435906001600160401b0382116105b457611fcd91600401611f48565b90565b15611fd757565b60405162461bcd60e51b815260206004820152601860248201527720b2323932b9b99034b9903737ba1030b7321020b236b4b760411b6044820152606490fd5b1561201e57565b60405162461bcd60e51b8152602060048201526015602482015274566f74657220646f6573206e6f742065786973747360581b6044820152606490fd5b8054600160401b811015611e2b5761207891600182018155611da8565b819291549060031b91821b91600019901b1916179055565b1561209757565b60405162461bcd60e51b815260206004820152602860248201527f596f752068617665206e6f2061636365737320746f206d616e616765207468696044820152677320766f74696e6760c01b6064820152608490fd5b156120f457565b60405162461bcd60e51b8152602060048201526014602482015273566f74696e67206973204e6f742041637469766560601b6044820152606490fd5b1561213757565b60405162461bcd60e51b815260206004820152600f60248201526e159bdd1a5b99c81a5cc8115b991959608a1b6044820152606490fdfefe7f5cfceb8ad67f83ff4bf79bf1b81a795adc92c0e1687969b0db71729160e7a083485e5f24523bd4866ff1a17c1a36345a0aec5ed66c7976acee290a5dbe77a26469706673582212205df1381be706868c3cb4b417767e0fe6c2c8bbc1a3db92e505c4afc7b48f56b664736f6c63430008130033",
  "immutableReferences": {},
  "source": "// SPDX-License-Identifier: MIT\npragma solidity 0.8.19;\nimport  \"./Ownable.sol\";\ncontract DaobuilderDataStorage is Ownable{\n\n    /**\n    *\n    *   Data Storage\n    *\n    * */\n    struct VotingAdmin{\n        address admin;\n        bool enabled ;\n        bool added;\n    }\n    mapping(uint=>VotingAdmin) public votingAdmins;\n    mapping(address=>uint) public votingAdminsShort;\n    uint public lastVotingAdminId = 0;\n \n\n    struct Voter{\n        bool enabled;\n        uint8 votingPower;\n        bool added;\n    }\n    uint public lastVoterId = 0;\n    mapping(address=>Voter) public voters;\n    mapping(uint=>address) public votersAddresses;\n\n    struct Voting{\n        address creator;\n        uint start;\n        uint end;\n        bool ended;\n        bool activated;\n        string title;\n        string descriptions;\n        uint createdAt;\n    }\n    mapping(uint=>Voting) public votings;\n    uint public lastVotingId = 0;\n    mapping(address=>uint[]) public myVotings;\n    struct Option{\n        string option;\n        bool enabled;\n        uint votingId;\n    }\n    mapping(uint=>Option) public options;\n    uint public lastOptionId;\n    mapping(uint=>uint[]) public votingOptions;\n\n    struct Vote{\n        uint votingId;\n        address voter;\n        address voingInsteadOf;\n        string option;\n        uint timeofVote;\n        uint power;\n    }\n    mapping(uint=>Vote) public votes;\n    uint  public lastVoteId = 0;\n    mapping(address=>uint[]) public votersVotes;\n    mapping(uint=>uint[]) public votingsVotes;\n    struct Delegations{\n        mapping(address=>address) delegaterToDelegatee;\n    }\n    mapping(uint=>Delegations)  votingsDelegations;\n\n\n\n    /**\n    *\n    *   Data Storage\n    *\n    * */\n\n    /**\n    *   Events section\n    * */\n    event NewAdminAdded(address indexed admin);\n    event AdminRemoved(address indexed admin);\n    event VoterAdded(address indexed voter);\n    event VoterRemoved(address indexed voter);\n    event VoterEnabled(address indexed voter);\n    event VoterDisabled(address indexed voter);\n    event VoterPowerDecreased(address indexed voter);\n    event VoterPowerIncreased(address indexed voter);\n    event VotingDataChanged(uint indexed votingIndex , string  msg);\n    event VotingOptionChanged(uint indexed votingIndex , string  option, string  msg);\n    event VotingRightDelegated(uint indexed votingIndex  , address indexed delegater , address indexed delegatee);\n    event VotingRightUnDelegated(uint indexed votingIndex  , address indexed delegater , address indexed delegatee);\n    event VoteRegistered(uint indexed votingIndex , uint indexed option , address indexed voter);\n\n    /**\n    *   Events section\n    * */\n\n\n    /**\n    *   modifiers section\n    * */\n    modifier VoterExists(address _voter){\n        require(voters[_voter].added ,\"Voter does not exists\" );\n        _;\n    }\n    modifier VoterDoesNotExists(address _voter){\n        require(!voters[_voter].added ,\"Voter Already exists\" );\n        _;\n    }\n    modifier VoterCanVote(address _voter){\n        require(voters[_voter].added ,\"Voter does not exists\" );\n        require(voters[_voter].enabled ,\"Voter does not exists\" );\n        _;\n    }\n    modifier VoterMinVotingPowerCheck(address _voter){\n        require(voters[_voter].votingPower>1 ,\"Voter does not exists\" );\n        _;\n    }\n    modifier isAdmin(address _admin){\n        require(votingAdmins[votingAdminsShort[_admin]].enabled , \"Address is not and Admin\");\n        _;\n    }\n    modifier isAdminOf(address _admin , uint _votingId){\n        if(!isOwner()){\n            require(votings[_votingId].creator == _admin ,\"You have no access to manage this voting\");\n        }\n        _;\n    }\n    modifier isVotingActive(uint _votingId){\n         require(votings[_votingId].activated ,\"Voting is Not Active\");\n         require(!votings[_votingId].ended ,\"Voting is Ended\");\n         require(votings[_votingId].end > votings[_votingId].start ,\"Voting is Ended\");\n         require(votings[_votingId].end/1000 > block.timestamp ,\"Voting is Ended\");\n         require(block.timestamp > votings[_votingId].start/1000  ,\"Wierdly voting start is NOT less than now\");\n         _;\n    }\n    modifier VotingNotPublishedYet(uint _votingId){\n         require(!votings[_votingId].activated ,\"Voting is Not Active\");\n         _;\n    }\n    modifier NoVoteRegesteredYet(uint _votingId , address _voteraddress){\n        //No vote registered for me\n        uint[] storage Myvotes = votersVotes[_voteraddress];\n        for(uint i=0;i<Myvotes.length;i++){\n            require(votes[Myvotes[i]].voingInsteadOf==_voteraddress , \"You have already a registered vote for this voting\");\n            require(votes[Myvotes[i]].votingId!=_votingId , \"You have already a registered vote for this voting\");\n        }\n        _;\n    }\n\n    modifier CanVoteBehalfOf(uint _votingId ,address _voter , address _onbehalfOf){\n        if(_voter!=_onbehalfOf){\n            require(votingsDelegations[_votingId].delegaterToDelegatee[_onbehalfOf]==_voter,\"You have no right to vote for someone's else\");\n        \n        }\n        _;\n    }\n\n\n    modifier IsOptionValid(uint _votingId ,uint _votingOptionId){\n        require(options[_votingOptionId].enabled ,\"Selected Option is not in valid defined options \");\n        require(options[_votingOptionId].votingId==_votingId ,\"Selected Option is not in valid defined options \");\n        _;\n    }\n    /**\n    *   modifiers section\n    * */\n\n\n\n\n    /**\n    Manage Voting Admins\n     */\n    function addVotingAdmin(address _newadmin) external OnlyOwner {\n        if(!votingAdmins[votingAdminsShort[_newadmin]].added ){\n            lastVotingAdminId+=1;\n            votingAdminsShort[_newadmin] = lastVotingAdminId;\n            votingAdmins[lastVotingAdminId] = VotingAdmin(_newadmin , true,true);\n        }else{\n            votingAdmins[votingAdminsShort[_newadmin]].enabled = true;\n        }\n        emit NewAdminAdded(_newadmin);\n    }\n    function removeVotingAdmin(address _address) external OnlyOwner isAdmin(_address) {\n        votingAdmins[votingAdminsShort[_address]].enabled = false;\n        emit AdminRemoved(_address);\n    }\n    function isUserAdmin(address _address) public view returns (bool){\n        return votingAdmins[votingAdminsShort[_address]].enabled;\n    }\n\n    /**\n    Manage Voters\n     */\n    function addVoter(address _voter) external OnlyOwner VoterDoesNotExists(_voter){\n        lastVoterId+=1;\n        voters[_voter] = Voter(false, 1,true);\n        votersAddresses[lastVoterId] = _voter;\n        emit VoterAdded(_voter);\n    }\n\n    function enableVoter(address _voter) external OnlyOwner VoterExists(_voter){\n        voters[_voter].enabled=true;\n        emit VoterEnabled(_voter);\n    }\n    function disableVoter(address _voter) external OnlyOwner VoterExists(_voter){\n        voters[_voter].enabled=false;\n        emit VoterDisabled(_voter);\n    }\n    function increaseVoterPower(address _voter) external OnlyOwner VoterExists(_voter){\n        voters[_voter].votingPower+=1;\n        emit VoterPowerIncreased(_voter);\n    }\n    function decreaseVoterPower(address _voter) external OnlyOwner VoterExists(_voter) VoterMinVotingPowerCheck(_voter){\n        voters[_voter].votingPower-=1;\n        emit VoterPowerDecreased(_voter);\n    }\n    function isVoter(address _address) public view returns (bool){\n        return voters[_address].votingPower>=1;\n    }\n\n    \n\n\n\n    /**\n    Manage Votings\n     */\n    function addVoting(uint _start , uint _end , string memory _title , string memory _description) external isAdmin(msg.sender) returns (uint) {\n        lastVotingId+=1;\n        votings[lastVotingId] = Voting(msg.sender, _start, _end, false , false,_title , _description , block.timestamp) ;\n        uint[] storage myvotings =myVotings[msg.sender];\n        myvotings.push(lastVotingId);\n        emit VotingDataChanged(lastVotingId , \"Voting Added\");\n        return lastVotingId;\n\n    }\n    function changeVotingStartDate(uint _votingId , uint _startdate) external isAdmin(msg.sender) isAdminOf(msg.sender , _votingId) VotingNotPublishedYet(_votingId) {\n        votings[_votingId].start = _startdate;\n        emit VotingDataChanged(_votingId , \"Voting start date changed\");\n    }\n    function changeVotingEndDate(uint _votingId , uint _enddate) external isAdmin(msg.sender) isAdminOf(msg.sender , _votingId) VotingNotPublishedYet(_votingId) {\n        votings[_votingId].end = _enddate;\n        emit VotingDataChanged(_votingId , \"Voting end date changed\");\n    }\n    function changeVotingTitle(uint _votingId , string memory _title) external isAdmin(msg.sender) isAdminOf(msg.sender , _votingId) VotingNotPublishedYet(_votingId) {\n        votings[_votingId].title = _title;\n        emit VotingDataChanged(_votingId , \"Voting title changed\");\n    }    \n    function changeVotingDescription(uint _votingId , string memory _description) external isAdmin(msg.sender) isAdminOf(msg.sender , _votingId) VotingNotPublishedYet(_votingId) {\n        votings[_votingId].descriptions = _description;\n        emit VotingDataChanged(_votingId , \"Voting description changed\");\n    }\n    function setVotingEnded(uint _votingId) external isAdmin(msg.sender) isAdminOf(msg.sender , _votingId) isVotingActive(_votingId) {\n        votings[_votingId].ended = true;\n        emit VotingDataChanged(_votingId , \"Voting is set ended now\");\n    }\n\n    function setVotingActive(uint _votingId) external OnlyOwner() {\n        votings[_votingId].activated = true;\n        emit VotingDataChanged(_votingId , \"Voting is set Active now\");\n    }\n\n    /**\n    Manage Voting Options\n     */\n    function addVotingOption(uint _votingId , string memory option) external isAdmin(msg.sender) isAdminOf(msg.sender , _votingId) VotingNotPublishedYet(_votingId){\n        lastOptionId+=1;\n        uint[] storage _votingOptions = votingOptions[_votingId];\n        options[lastOptionId] = Option(option,true , _votingId);\n        _votingOptions.push(lastOptionId);\n        emit VotingOptionChanged(_votingId , option , \"Voting Option Added\");\n    }\n    function removeVotingOption(uint _votingId , uint option) external isAdmin(msg.sender) isAdminOf(msg.sender , _votingId) VotingNotPublishedYet(_votingId){\n        options[option].enabled = false;\n        emit VotingOptionChanged(_votingId , options[option].option , \"Voting option removed\");\n    }\n\n}",
  "sourcePath": "/home/aca/smartcontracts/daobuilder/contracts/DaobuilderDataStorage.sol",
  "compiler": {
    "name": "solc",
    "version": "0.8.19+commit.7dd6d404.Emscripten.clang"
  },
  "schemaVersion": "3.4.16",
  "updatedAt": "2025-01-18T19:56:11.051Z",
  "devdoc": {
    "kind": "dev",
    "methods": {},
    "version": 1
  },
  "userdoc": {
    "events": {
      "NewAdminAdded(address)": {
        "notice": "Events section "
      }
    },
    "kind": "user",
    "methods": {
      "addVoter(address)": {
        "notice": "Manage Voters"
      },
      "addVoting(uint256,uint256,string,string)": {
        "notice": "Manage Votings"
      },
      "addVotingAdmin(address)": {
        "notice": "Manage Voting Admins"
      },
      "addVotingOption(uint256,string)": {
        "notice": "Manage Voting Options"
      }
    },
    "version": 1
  }
}