{
  "contractName": "Daobuilder",
  "abi": [
    {
      "inputs": [],
      "name": "NoAccessToManage",
      "type": "error"
    },
    {
      "inputs": [],
      "name": "NoRightToVoteOnBehalfOf",
      "type": "error"
    },
    {
      "inputs": [],
      "name": "NotAnAdmin",
      "type": "error"
    },
    {
      "inputs": [],
      "name": "VoteAlreadyRegistered",
      "type": "error"
    },
    {
      "inputs": [],
      "name": "VoterAlreadyExists",
      "type": "error"
    },
    {
      "inputs": [],
      "name": "VoterNotExists",
      "type": "error"
    },
    {
      "inputs": [],
      "name": "VotingEnded",
      "type": "error"
    },
    {
      "inputs": [],
      "name": "VotingNotActive",
      "type": "error"
    },
    {
      "inputs": [],
      "name": "VotingOptionInvalid",
      "type": "error"
    },
    {
      "inputs": [],
      "name": "VotingStartInFuture",
      "type": "error"
    },
    {
      "anonymous": false,
      "inputs": [
        {
          "indexed": true,
          "internalType": "address",
          "name": "admin",
          "type": "address"
        }
      ],
      "name": "AdminRemoved",
      "type": "event"
    },
    {
      "anonymous": false,
      "inputs": [
        {
          "indexed": true,
          "internalType": "address",
          "name": "admin",
          "type": "address"
        }
      ],
      "name": "NewAdminAdded",
      "type": "event"
    },
    {
      "anonymous": false,
      "inputs": [
        {
          "indexed": true,
          "internalType": "address",
          "name": "previousOwner",
          "type": "address"
        },
        {
          "indexed": true,
          "internalType": "address",
          "name": "newOwner",
          "type": "address"
        }
      ],
      "name": "OwnershipTransferred",
      "type": "event"
    },
    {
      "anonymous": false,
      "inputs": [
        {
          "indexed": true,
          "internalType": "uint16",
          "name": "votingIndex",
          "type": "uint16"
        },
        {
          "indexed": true,
          "internalType": "uint64",
          "name": "option",
          "type": "uint64"
        },
        {
          "indexed": true,
          "internalType": "address",
          "name": "voter",
          "type": "address"
        }
      ],
      "name": "VoteRegistered",
      "type": "event"
    },
    {
      "anonymous": false,
      "inputs": [
        {
          "indexed": true,
          "internalType": "address",
          "name": "voter",
          "type": "address"
        }
      ],
      "name": "VoterAdded",
      "type": "event"
    },
    {
      "anonymous": false,
      "inputs": [
        {
          "indexed": true,
          "internalType": "address",
          "name": "voter",
          "type": "address"
        }
      ],
      "name": "VoterDisabled",
      "type": "event"
    },
    {
      "anonymous": false,
      "inputs": [
        {
          "indexed": true,
          "internalType": "address",
          "name": "voter",
          "type": "address"
        }
      ],
      "name": "VoterEnabled",
      "type": "event"
    },
    {
      "anonymous": false,
      "inputs": [
        {
          "indexed": true,
          "internalType": "address",
          "name": "voter",
          "type": "address"
        }
      ],
      "name": "VoterPowerDecreased",
      "type": "event"
    },
    {
      "anonymous": false,
      "inputs": [
        {
          "indexed": true,
          "internalType": "address",
          "name": "voter",
          "type": "address"
        }
      ],
      "name": "VoterPowerIncreased",
      "type": "event"
    },
    {
      "anonymous": false,
      "inputs": [
        {
          "indexed": true,
          "internalType": "address",
          "name": "voter",
          "type": "address"
        }
      ],
      "name": "VoterRemoved",
      "type": "event"
    },
    {
      "anonymous": false,
      "inputs": [
        {
          "indexed": true,
          "internalType": "uint16",
          "name": "votingIndex",
          "type": "uint16"
        },
        {
          "indexed": false,
          "internalType": "string",
          "name": "msg",
          "type": "string"
        }
      ],
      "name": "VotingDataChanged",
      "type": "event"
    },
    {
      "anonymous": false,
      "inputs": [
        {
          "indexed": true,
          "internalType": "uint16",
          "name": "votingIndex",
          "type": "uint16"
        },
        {
          "indexed": false,
          "internalType": "string",
          "name": "option",
          "type": "string"
        },
        {
          "indexed": false,
          "internalType": "string",
          "name": "msg",
          "type": "string"
        }
      ],
      "name": "VotingOptionChanged",
      "type": "event"
    },
    {
      "anonymous": false,
      "inputs": [
        {
          "indexed": true,
          "internalType": "uint16",
          "name": "votingIndex",
          "type": "uint16"
        },
        {
          "indexed": true,
          "internalType": "address",
          "name": "delegater",
          "type": "address"
        },
        {
          "indexed": true,
          "internalType": "address",
          "name": "delegatee",
          "type": "address"
        }
      ],
      "name": "VotingRightDelegated",
      "type": "event"
    },
    {
      "anonymous": false,
      "inputs": [
        {
          "indexed": true,
          "internalType": "uint16",
          "name": "votingIndex",
          "type": "uint16"
        },
        {
          "indexed": true,
          "internalType": "address",
          "name": "delegater",
          "type": "address"
        },
        {
          "indexed": true,
          "internalType": "address",
          "name": "delegatee",
          "type": "address"
        }
      ],
      "name": "VotingRightUnDelegated",
      "type": "event"
    },
    {
      "inputs": [
        {
          "internalType": "address",
          "name": "_voter",
          "type": "address"
        }
      ],
      "name": "addVoter",
      "outputs": [],
      "stateMutability": "payable",
      "type": "function"
    },
    {
      "inputs": [
        {
          "internalType": "uint32",
          "name": "_start",
          "type": "uint32"
        },
        {
          "internalType": "uint32",
          "name": "_end",
          "type": "uint32"
        },
        {
          "internalType": "string",
          "name": "_title",
          "type": "string"
        },
        {
          "internalType": "string",
          "name": "_description",
          "type": "string"
        }
      ],
      "name": "addVoting",
      "outputs": [
        {
          "internalType": "uint16",
          "name": "",
          "type": "uint16"
        }
      ],
      "stateMutability": "nonpayable",
      "type": "function"
    },
    {
      "inputs": [
        {
          "internalType": "address",
          "name": "_newadmin",
          "type": "address"
        }
      ],
      "name": "addVotingAdmin",
      "outputs": [],
      "stateMutability": "payable",
      "type": "function"
    },
    {
      "inputs": [
        {
          "internalType": "uint16",
          "name": "_votingId",
          "type": "uint16"
        },
        {
          "internalType": "string",
          "name": "option",
          "type": "string"
        }
      ],
      "name": "addVotingOption",
      "outputs": [],
      "stateMutability": "nonpayable",
      "type": "function"
    },
    {
      "inputs": [
        {
          "internalType": "uint16",
          "name": "_votingId",
          "type": "uint16"
        },
        {
          "internalType": "string",
          "name": "_description",
          "type": "string"
        }
      ],
      "name": "changeVotingDescription",
      "outputs": [],
      "stateMutability": "nonpayable",
      "type": "function"
    },
    {
      "inputs": [
        {
          "internalType": "uint16",
          "name": "_votingId",
          "type": "uint16"
        },
        {
          "internalType": "uint32",
          "name": "_enddate",
          "type": "uint32"
        }
      ],
      "name": "changeVotingEndDate",
      "outputs": [],
      "stateMutability": "nonpayable",
      "type": "function"
    },
    {
      "inputs": [
        {
          "internalType": "uint16",
          "name": "_votingId",
          "type": "uint16"
        },
        {
          "internalType": "uint32",
          "name": "_startdate",
          "type": "uint32"
        }
      ],
      "name": "changeVotingStartDate",
      "outputs": [],
      "stateMutability": "nonpayable",
      "type": "function"
    },
    {
      "inputs": [
        {
          "internalType": "uint16",
          "name": "_votingId",
          "type": "uint16"
        },
        {
          "internalType": "string",
          "name": "_title",
          "type": "string"
        }
      ],
      "name": "changeVotingTitle",
      "outputs": [],
      "stateMutability": "nonpayable",
      "type": "function"
    },
    {
      "inputs": [
        {
          "internalType": "address",
          "name": "_voter",
          "type": "address"
        }
      ],
      "name": "decreaseVoterPower",
      "outputs": [],
      "stateMutability": "payable",
      "type": "function"
    },
    {
      "inputs": [
        {
          "internalType": "address",
          "name": "_voter",
          "type": "address"
        }
      ],
      "name": "disableVoter",
      "outputs": [],
      "stateMutability": "payable",
      "type": "function"
    },
    {
      "inputs": [
        {
          "internalType": "address",
          "name": "_voter",
          "type": "address"
        }
      ],
      "name": "enableVoter",
      "outputs": [],
      "stateMutability": "payable",
      "type": "function"
    },
    {
      "inputs": [
        {
          "internalType": "address",
          "name": "_voter",
          "type": "address"
        }
      ],
      "name": "increaseVoterPower",
      "outputs": [],
      "stateMutability": "payable",
      "type": "function"
    },
    {
      "inputs": [],
      "name": "isOwner",
      "outputs": [
        {
          "internalType": "bool",
          "name": "",
          "type": "bool"
        }
      ],
      "stateMutability": "view",
      "type": "function"
    },
    {
      "inputs": [
        {
          "internalType": "address",
          "name": "_address",
          "type": "address"
        }
      ],
      "name": "isUserAdmin",
      "outputs": [
        {
          "internalType": "bool",
          "name": "",
          "type": "bool"
        }
      ],
      "stateMutability": "view",
      "type": "function"
    },
    {
      "inputs": [
        {
          "internalType": "address",
          "name": "_address",
          "type": "address"
        }
      ],
      "name": "isVoter",
      "outputs": [
        {
          "internalType": "bool",
          "name": "",
          "type": "bool"
        }
      ],
      "stateMutability": "view",
      "type": "function"
    },
    {
      "inputs": [],
      "name": "lastOptionId",
      "outputs": [
        {
          "internalType": "uint64",
          "name": "",
          "type": "uint64"
        }
      ],
      "stateMutability": "view",
      "type": "function"
    },
    {
      "inputs": [],
      "name": "lastVoteId",
      "outputs": [
        {
          "internalType": "uint64",
          "name": "",
          "type": "uint64"
        }
      ],
      "stateMutability": "view",
      "type": "function"
    },
    {
      "inputs": [],
      "name": "lastVoterId",
      "outputs": [
        {
          "internalType": "uint16",
          "name": "",
          "type": "uint16"
        }
      ],
      "stateMutability": "view",
      "type": "function"
    },
    {
      "inputs": [],
      "name": "lastVotingAdminId",
      "outputs": [
        {
          "internalType": "uint16",
          "name": "",
          "type": "uint16"
        }
      ],
      "stateMutability": "view",
      "type": "function"
    },
    {
      "inputs": [],
      "name": "lastVotingId",
      "outputs": [
        {
          "internalType": "uint16",
          "name": "",
          "type": "uint16"
        }
      ],
      "stateMutability": "view",
      "type": "function"
    },
    {
      "inputs": [
        {
          "internalType": "uint64",
          "name": "",
          "type": "uint64"
        }
      ],
      "name": "options",
      "outputs": [
        {
          "internalType": "bool",
          "name": "enabled",
          "type": "bool"
        },
        {
          "internalType": "string",
          "name": "option",
          "type": "string"
        },
        {
          "internalType": "uint16",
          "name": "votingId",
          "type": "uint16"
        }
      ],
      "stateMutability": "view",
      "type": "function"
    },
    {
      "inputs": [
        {
          "internalType": "address",
          "name": "_address",
          "type": "address"
        }
      ],
      "name": "removeVotingAdmin",
      "outputs": [],
      "stateMutability": "payable",
      "type": "function"
    },
    {
      "inputs": [
        {
          "internalType": "uint16",
          "name": "_votingId",
          "type": "uint16"
        },
        {
          "internalType": "uint64",
          "name": "option",
          "type": "uint64"
        }
      ],
      "name": "removeVotingOption",
      "outputs": [],
      "stateMutability": "nonpayable",
      "type": "function"
    },
    {
      "inputs": [
        {
          "internalType": "uint16",
          "name": "_votingId",
          "type": "uint16"
        }
      ],
      "name": "setVotingActive",
      "outputs": [],
      "stateMutability": "payable",
      "type": "function"
    },
    {
      "inputs": [
        {
          "internalType": "uint16",
          "name": "_votingId",
          "type": "uint16"
        }
      ],
      "name": "setVotingEnded",
      "outputs": [],
      "stateMutability": "nonpayable",
      "type": "function"
    },
    {
      "inputs": [
        {
          "internalType": "address",
          "name": "to",
          "type": "address"
        }
      ],
      "name": "transferOwnership",
      "outputs": [],
      "stateMutability": "payable",
      "type": "function"
    },
    {
      "inputs": [
        {
          "internalType": "address",
          "name": "",
          "type": "address"
        }
      ],
      "name": "voters",
      "outputs": [
        {
          "internalType": "bool",
          "name": "enabled",
          "type": "bool"
        },
        {
          "internalType": "bool",
          "name": "added",
          "type": "bool"
        },
        {
          "internalType": "uint8",
          "name": "votingPower",
          "type": "uint8"
        }
      ],
      "stateMutability": "view",
      "type": "function"
    },
    {
      "inputs": [
        {
          "internalType": "uint16",
          "name": "",
          "type": "uint16"
        }
      ],
      "name": "votersAddresses",
      "outputs": [
        {
          "internalType": "address",
          "name": "",
          "type": "address"
        }
      ],
      "stateMutability": "view",
      "type": "function"
    },
    {
      "inputs": [
        {
          "internalType": "uint64",
          "name": "",
          "type": "uint64"
        }
      ],
      "name": "votes",
      "outputs": [
        {
          "internalType": "address",
          "name": "voter",
          "type": "address"
        },
        {
          "internalType": "address",
          "name": "voingInsteadOf",
          "type": "address"
        },
        {
          "internalType": "string",
          "name": "option",
          "type": "string"
        },
        {
          "internalType": "uint32",
          "name": "timeofVote",
          "type": "uint32"
        },
        {
          "internalType": "uint16",
          "name": "votingId",
          "type": "uint16"
        },
        {
          "internalType": "uint8",
          "name": "power",
          "type": "uint8"
        }
      ],
      "stateMutability": "view",
      "type": "function"
    },
    {
      "inputs": [
        {
          "internalType": "uint16",
          "name": "",
          "type": "uint16"
        }
      ],
      "name": "votings",
      "outputs": [
        {
          "internalType": "bool",
          "name": "ended",
          "type": "bool"
        },
        {
          "internalType": "bool",
          "name": "activated",
          "type": "bool"
        },
        {
          "internalType": "address",
          "name": "creator",
          "type": "address"
        },
        {
          "internalType": "string",
          "name": "title",
          "type": "string"
        },
        {
          "internalType": "string",
          "name": "descriptions",
          "type": "string"
        },
        {
          "internalType": "uint32",
          "name": "start",
          "type": "uint32"
        },
        {
          "internalType": "uint32",
          "name": "end",
          "type": "uint32"
        },
        {
          "internalType": "uint32",
          "name": "createdAt",
          "type": "uint32"
        }
      ],
      "stateMutability": "view",
      "type": "function"
    },
    {
      "inputs": [],
      "name": "getActiveVotings",
      "outputs": [
        {
          "internalType": "uint16[]",
          "name": "",
          "type": "uint16[]"
        }
      ],
      "stateMutability": "view",
      "type": "function"
    },
    {
      "inputs": [],
      "name": "getMyVotings",
      "outputs": [
        {
          "internalType": "uint16[]",
          "name": "",
          "type": "uint16[]"
        }
      ],
      "stateMutability": "view",
      "type": "function"
    },
    {
      "inputs": [
        {
          "internalType": "uint16",
          "name": "_votingId",
          "type": "uint16"
        }
      ],
      "name": "getVotingOptions",
      "outputs": [
        {
          "internalType": "uint64[]",
          "name": "",
          "type": "uint64[]"
        }
      ],
      "stateMutability": "view",
      "type": "function"
    },
    {
      "inputs": [
        {
          "internalType": "uint16",
          "name": "_votingId",
          "type": "uint16"
        },
        {
          "internalType": "address",
          "name": "_to",
          "type": "address"
        }
      ],
      "name": "delegateMyVote",
      "outputs": [],
      "stateMutability": "nonpayable",
      "type": "function"
    },
    {
      "inputs": [
        {
          "internalType": "uint16",
          "name": "_votingId",
          "type": "uint16"
        },
        {
          "internalType": "address",
          "name": "_to",
          "type": "address"
        }
      ],
      "name": "revokeDelegation",
      "outputs": [],
      "stateMutability": "nonpayable",
      "type": "function"
    },
    {
      "inputs": [
        {
          "internalType": "uint16",
          "name": "_votingId",
          "type": "uint16"
        }
      ],
      "name": "getMyDelegationOnVoting",
      "outputs": [
        {
          "internalType": "address",
          "name": "addrss",
          "type": "address"
        }
      ],
      "stateMutability": "view",
      "type": "function"
    },
    {
      "inputs": [
        {
          "internalType": "uint16",
          "name": "_votingId",
          "type": "uint16"
        },
        {
          "internalType": "uint64",
          "name": "_selectedOption",
          "type": "uint64"
        },
        {
          "internalType": "address",
          "name": "_onbehalfOf",
          "type": "address"
        }
      ],
      "name": "vote",
      "outputs": [],
      "stateMutability": "nonpayable",
      "type": "function"
    },
    {
      "inputs": [
        {
          "internalType": "uint16",
          "name": "_votingId",
          "type": "uint16"
        }
      ],
      "name": "getVotingsVotes",
      "outputs": [
        {
          "internalType": "uint64[]",
          "name": "",
          "type": "uint64[]"
        }
      ],
      "stateMutability": "view",
      "type": "function"
    },
    {
      "inputs": [],
      "name": "getVotersVotes",
      "outputs": [
        {
          "internalType": "uint64[]",
          "name": "",
          "type": "uint64[]"
        }
      ],
      "stateMutability": "view",
      "type": "function"
    }
  ],
  "bytecode": "0x6080806040523461008a57600080546001600160a01b031916339081178255907f8be0079c531659141344cd1fd0a4f28419497f9722a3daafe3b4186f6b6457e08180a36201000163ffffffff196003541617600355600161ffff1960075416176007556001808060401b03198181600a541617600a55600d541617600d5561358c90816100908239f35b600080fdfe608080604052600436101561001357600080fd5b60e090600035821c9081630d9280c4146130a45750806310ae5bb314612eea5780631702050314612ec55780631bc28ea014612e9e5780631d07de0d14612a8a5780631d9d554c14612a095780631f68752b14612747578063284fe0791461272557806329bef429146127035780632e7bec41146125ea57806334f486c1146124b5578063379e07bf1461241357806348e72cff146120e35780634d0b4d8614611edd5780635052e42414611e375780635cca38c514611d91578063675115bc14611b9557806372b9102614611a825780637359838614611a5b57806374d523a814611a075780637a6325551461194f57806381435aa7146118cb5780638f32d59b146118a35780639015e112146111c3578063958c408e1461114a578063991446161461110d578063a09b24c31461104e578063a184a07f14610f1e578063a3ec138d14610ec7578063a7771ee314610e83578063b1e3a48f14610d43578063d954e91b14610a63578063da66795e14610936578063ddd2d1fd14610853578063df72a953146107cb578063dfff944b1461047e578063f2fde38b14610414578063f4ab9adf1461032e5763f574bab1146101ce57600080fd5b3461032957602090816003193601126103295761ffff6101ec613162565b16806000526006835260406000209160405192610208846131ca565b80549360ff85161515815260038682019260ff8760081c161515845260018060a01b03809760101c1660408401526040516102518161024a8160018601613386565b0382613201565b606084015260405161026a8161024a8160028601613386565b608084015201549060a081019263ffffffff9485841685528560c084019481818c1c16865260401c1690830152511561031757516103055782815116838351161015610305575142831692916103e89183168290048316841015610305575182160416116102f35760005260108252604060002033600052825260406000205416604051908152f35b60405163efca4fe560e01b8152600490fd5b604051637a19ed0560e01b8152600490fd5b604051639b8cc47560e01b8152600490fd5b600080fd5b602036600319011261032957610342613278565b6000546001600160a01b03919082163303610329571680600052600460205260ff60406000205460081c166104025780600052600460205260406000206201010062ffff001982541617905561ffff8060035460101c16600052600560205260406000208260018060a01b031982541617905563ffff00006103cb600354928360101c16613487565b60101b169063ffff00001916176003557fa636f4a11e2d3ba7f89d042ecb0a6b886716e98cd49d8fd876ee0f73bced42b8600080a2005b604051632867270b60e01b8152600490fd5b602036600319011261032957610428613278565b6000546001600160a01b03808216923384900361032957169182156103295782907f8be0079c531659141344cd1fd0a4f28419497f9722a3daafe3b4186f6b6457e0600080a36001600160a01b03191617600055005b503461032957604036600319011261032957610498613162565b9061ffff6104a461328e565b9216806000526006602052604060002092604051926104c2846131ca565b84549360ff851615158152602081019060ff8660081c161515825260018060a01b03809660101c16604082015260036040519761050d896105068160018501613386565b038a613201565b606098898401526040516105288161024a8160028601613386565b6080840152015460a082019163ffffffff93848316845260c0958587840194818160201c16865260401c1690830152511561031757516103055782815116838351161015610305575142831692916103e89183168290048316841015610305575182160416116102f35733600052600460205260ff60406000205460081c16156107b95733600052600460205260ff60406000205416156107b95733600052600e6020526040600020946040519182968792602082549586815201916000526020600020946000915b816003840110610773575061062a955491818110610759575b81811061073c575b81811061071f575b10610711575b5090500385613201565b60005b84516001600160401b03808316918210156106be578061064d8389613473565b5116600052600c91826020528561ffff60036040600020015460201c1614610681575b50505061067c9061349a565b61062d565b61068b9088613473565b5116600052602052338460016040600020015416146106ac57388080610670565b60405163225f0a4560e21b8152600490fd5b6000858152601060209081526040808320338085529252822080546001600160a01b03191690558588169187907f8bf6ec021c28863b87fa51010de279005e350b51981a27355a5a376175ff5c049080a4005b6020921c8152018038610620565b9260206001916001600160401b038560801c16815201930161061a565b9260206001916001600160401b038560401c168152019301610612565b9260206001916001600160401b038516815201930161060a565b93959450916001608060049287546001600160401b038082168352808260401c16602084015281841c166040830152891c878201520195019101909492918994926105f1565b60405163d64a9b3560e01b8152600490fd5b6020366003190112610329576107df613162565b6000546001600160a01b031633036103295761ffff16806000526006602052604060002061010061ff00198254161790556000805160206135378339815191526060604051602081526018602082015277566f74696e672069732073657420416374697665206e6f7760401b6040820152a2005b50346103295760203660031901126103295761ffff610870613162565b16600052600660205260406000208054906040519261089d846108968160018601613386565b0385613201565b6109106003604051936108be856108b78160028501613386565b0386613201565b015492610902604051968660ff8998161515885260ff8160081c161515602089015260018060a01b039060101c16604088015261010080606089015287019061341c565b90858203608087015261341c565b9163ffffffff9081811660a0860152818160201c1660c086015260401c16908301520390f35b346103295760403660031901126103295761094f613162565b6109576131b7565b90336000526020906002825261ffff9081604060002054166000526001835260ff60406000205460a01c1615610a51576000546001600160a01b039081163303610a1e575b501691826000526006825260ff60406000205460081c166103175760008051602061353783398151915291606091846000526006825263ffffffff6003604060002001911663ffffffff1982541617905560196040519180835282015278159bdd1a5b99c81cdd185c9d0819185d194818da185b99d959603a1b6040820152a2005b82821660005260068452339060406000205460101c1603610a3f578461099c565b6040516319f33b3b60e21b8152600490fd5b6040516355098f2760e01b8152600490fd5b3461032957610a71366132e3565b9033600052600260205261ffff60406000205416600052600160205260ff60406000205460a01c1615610a51576000546001600160a01b039081163303610d1f575b5061ffff8116600052600660205260ff60406000205460081c16610317576001600160401b03600a54169161ffff8216600052600b60205260406000209260405193610afe856131e6565b60018552602085019483865261ffff851660408201528260005260096020526040600020958151151560ff80198954169116178755519586516001600160401b038111610d0957610b52600183015461334c565b601f8111610cc2575b506020601f8211600114610c37576002610bbf969594938361ffff946040946000805160206135178339815191529c9d600092610c2c575b50508160011b916000199060031b1c19161760018201555b019201511661ffff198254161790556134b2565b600a546001600160401b03610bd58183166134fe565b16906001600160401b03191617600a55604061ffff610bfc8251938385528385019061341c565b9472159bdd1a5b99c813dc1d1a5bdb881059191959606a1b602085880397888288015260138152015216930190a2005b015190508d80610b93565b601f198216986001840160005260206000209960005b818110610caa5750936001846000805160206135178339815191529b9c60409560029561ffff98610bbf9d9c9b9a10610c91575b505050811b016001820155610bab565b015160001960f88460031b161c191690558d8080610c81565b838301518c556001909b019a60209384019301610c4d565b600183016000526020600020601f830160051c810160208410610d02575b601f830160051c82018110610cf6575050610b5b565b60008155600101610ce0565b5080610ce0565b634e487b7160e01b600052604160045260246000fd5b61ffff82166000526006602052339060406000205460101c1603610a3f5782610ab3565b346103295760003660031901126103295761ffff8060075416610d658161345c565b90610d736040519283613201565b808252601f19610d828261345c565b01926020933685850137600191600083805b610dab575b60405180610da788826132a4565b0390f35b838116838111610e7d579081859260005260068952604060002080549060ff808360081c169283610e72575b505081610e54575b81610e33575b50610e14575b501691838314610dfe5791840184610d94565b634e487b7160e01b600052601160045260246000fd5b92610e2c9193610e268483168a613473565b52613487565b9188610deb565b600391506103e89063ffffffff92839101548c1c160490429116118a610de5565b905063ffffffff6103e8816003840154160490429116111590610ddf565b161591508b80610dd7565b50610d99565b34610329576020366003190112610329576001600160a01b03610ea4613278565b1660005260046020526020600160ff60406000205460101c161015604051908152f35b34610329576020366003190112610329576001600160a01b03610ee8613278565b166000526004602052606060406000205460ff6040519181811615158352818160081c161515602084015260101c166040820152f35b34610329576020806003193601126103295761ffff610f3b613162565b16600052600f81526040600020604051908183825491828152019160005283600020906000915b81600384011061100e57928492610da79692610fa495549184828210610ff5575b828210610fd9575b828210610fbd575b5010610fb0575b5090500382613201565b60405191829182613173565b60c01c8152018086610f9a565b600191946001600160401b038560801c16815201930184610f93565b600191946001600160401b038560401c16815201930184610f8b565b600191946001600160401b038516815201930184610f83565b9260016004918554906001600160401b03918281168252828160401c168a83015260809281841c16604083015260c01c6060820152019401920191610f62565b602036600319011261032957611062613278565b6000546001600160a01b03919082163303610329571680600052600460205260ff60406000205460081c16156107b957806000526004602052600160ff60406000205460101c16106107b957806000526004602052604060002060001960ff825460101c160160ff8111610dfe57815462ff0000191660109190911b62ff0000161790557f84600759115fa43b37442490b0820bda045fe013e33c564b7cc4e477776a70e2600080a2005b346103295760203660031901126103295761ffff611129613162565b166000526005602052602060018060a01b0360406000205416604051908152f35b34610329576020366003190112610329576001600160401b0361116b613320565b166000526009602052604060002060ff81541661ffff600260405193611198856108b78160018501613386565b0154166111b96040519384931515845260606020850152606084019061341c565b9060408301520390f35b5034610329576060366003190112610329576111dd613162565b906111e6613336565b91604435916001600160a01b03831683036103295761ffff821660005260066020526040600020604051611219816131ca565b600382549260ff841615158352602083019360ff8160081c161515855260018060a01b039060101c16604084015260405161125b8161024a8160018601613386565b60608401526040516112748161024a8160028601613386565b608084015201549160a082019363ffffffff8416855263ffffffff60c0840194818160201c16865260401c1690830152511561031757516103055763ffffffff81511663ffffffff83511610156103055763ffffffff906103e891829151160463ffffffff804216911611156103055763ffffffff80925116041663ffffffff4216106102f35760018060a01b038216600052600e6020526040600020604051808260208294549384815201906000526020600020926000905b80600383011061185f57611364945491818110611845575b818110611828575b81811061180b575b106117fd575b500382613201565b60005b81516001600160401b0382161015611403576001600160401b0361138d81831684613473565b5116600052600c8060205261ffff841661ffff60036040600020015460201c16146113c2575b506113bd9061349a565b611367565b6001600160401b036113d681841685613473565b5116600090815260209190915260409020600101546001600160a01b038581169116146106ac57386113b3565b50509033600052600460205260ff60406000205460081c16156107b95733600052600460205260ff60406000205416156107b9576001600160a01b03811633036117bb575b6001600160401b0383166000526009602052604060002061ffff600260405192611471846131e6565b60ff8154161515845260405161148e8161024a8160018601613386565b6020850152015416906040810191825251156117a95761ffff808416915116036117a9576001600160401b03600d54166001600160401b0384166000526009602052600160406000200160018060a01b038316600052600460205260ff60406000205460101c16604051918260c08101106001600160401b0360c085011117610d095760c0830160409081523384526001600160a01b0386166020850152519061153f90829061024a908290613386565b60408381019182524263ffffffff16606085015261ffff8716608085015260a08401929092526000848152600c6020908152929020835181546001600160a01b03199081166001600160a01b0392831617835593850151600183018054909516911617909255518051906001600160401b038211610d09576115c4600284015461334c565b601f8111611762575b50602090601f83116001146116dd579360036001600160401b039692948461169495899761ffff9b996000926116d2575b50508160011b9160001990851b1c19161760028201555b019063ffffffff6060820151169082549166ff00000000000060a065ffff00000000608085015160201b1693015160301b169266ffffffffffffff1916171717905560018060a01b038416600052600e6020526116768160406000206134b2565b858716600052600f60205261168f8160406000206134b2565b6134fe565b168219600d541617600d5560018060a01b0316931691167faaf5e41ce90acccc346cf544ce33ba98a70fe24d31cbe76864f9befa1c366c84600080a4005b0151905038806115fe565b906002840160005260206000209160005b601f198516811061174a57506001600160401b03969294600185899761ffff9b999560039561169499601f19811610611732575b505050811b016002820155611615565b015160001983871b60f8161c19169055388080611722565b919260206001819286850151815501940192016116ee565b600284016000526020600020601f840160051c8101602085106117a2575b601f830160051c820181106117965750506115cd565b60008155600101611780565b5080611780565b60405163085dc8db60e21b8152600490fd5b61ffff821660009081526010602090815260408083206001600160a01b03858116855292529091205416331461144857604051633d6144f760e21b8152600490fd5b60c01c81526020013861135c565b9260206001916001600160401b038560801c168152019301611356565b9260206001916001600160401b038560401c16815201930161134e565b9260206001916001600160401b0385168152019301611346565b916004919350608060019186546001600160401b038082168352808260401c16602084015281841c16604083015260c01c606082015201940192018492939161132e565b3461032957600036600319011261032957602060018060a01b03600054163314604051908152f35b6020366003190112610329576118df613278565b6000546001600160a01b03919082163303610329571680600052600460205260ff60406000205460081c16156107b9578060005260046020526040600020600160ff198254161790557ff82c1433711971ea9322bdc605f131ef667575de2f51e3b9d26cd68f44299685600080a2005b3461032957600036600319011261032957336000526020600e81526040600020604051908183825491828152019160005283600020906000915b8160038401106119c757928492610da79692610fa495549184828210610ff557828210610fd957828210610fbd575010610fb0575090500382613201565b9260016004918554906001600160401b03918281168252828160401c168a83015260809281841c16604083015260c01c6060820152019401920191611989565b34610329576020366003190112610329576001600160a01b03611a28613278565b16600052600260205261ffff604060002054166000526001602052602060ff60406000205460a01c166040519015158152f35b346103295760003660031901126103295760206001600160401b03600a5416604051908152f35b3461032957604036600319011261032957611a9b613162565b611aa3613336565b336000526020916002835261ffff9081604060002054166000526001845260ff60406000205460a01c1615610a51576000546001600160a01b039081163303611b74575b501691826000526006815260ff60406000205460081c16610317576001600160401b036000805160206135178339815191529216600052600981526040806000209160ff19835416835574159bdd1a5b99c81bdc1d1a5bdb881c995b5bdd9959605a1b611b5f83519484865260018587019101613386565b918483039283828701526015815201520190a2005b82821660005260068552339060406000205460101c1603610a3f5784611ae7565b3461032957611ba3366132e3565b903360005260206002815261ffff806040600020541660005260019283835260ff60406000205460a01c1615610a51576000546001600160a01b039081163303611d70575b501691826000526006825260ff60406000205460081c1661031757826000526006825280604060002001908451946001600160401b038611610d0957611c2e835461334c565b601f8111611d27575b508390601f8711600114611cb0579580606095949381936000805160206135378339815191529899600094611ca5575b50501b916000199060031b1c19161790555b60146040519180835282015273159bdd1a5b99c81d1a5d1b194818da185b99d95960621b6040820152a2005b015192508980611c67565b90601f1987169184600052856000209260005b818110611d125750916060969594939189600080516020613537833981519152999a9410611cf9575b505050811b019055611c79565b015160001960f88460031b161c19169055878080611cec565b82840151855593850193928701928701611cc3565b8360005284600020601f880160051c810191868910611d66575b601f0160051c019083905b828110611d5a575050611c37565b60008155018390611d4c565b9091508190611d41565b82821660005260068452339060406000205460101c1603610a3f5785611be8565b602036600319011261032957611da5613278565b6000546001600160a01b03919082163303610329571680600052600260205261ffff8060406000205416600052600160205260ff60406000205460a01c1615610a5157816000526002602052604060002054166000526001602052604060002060ff60a01b1981541690557fa3b62bc36326052d97ea62d63c3d60308ed4c3ea8ac079dd8499f1e9c4f80c0f600080a2005b34610329576020366003190112610329576001600160401b03611e58613320565b16600052600c602052604060002060018060a01b0380825416906001830154169160ff611eb6600360405193611e95856108b78160028501613386565b0154926040519586958652602086015260c0604086015260c085019061341c565b9163ffffffff8116606085015261ffff8160201c16608085015260301c1660a08301520390f35b3461032957611eeb366132e3565b903360005260206002815261ffff806040600020541660005260019283835260ff60406000205460a01c1615610a51576000546001600160a01b0390811633036120c2575b501691826000526006825260ff60406000205460081c166103175782600052600682526002604060002001908451946001600160401b038611610d0957611f77835461334c565b601f8111612079575b508390601f8711600114612002579580606095949381936000805160206135378339815191529899600094611ff7575b50501b916000199060031b1c19161790555b601a604051918083528201527f566f74696e67206465736372697074696f6e206368616e6765640000000000006040820152a2005b015192508980611fb0565b90601f1987169184600052856000209260005b8181106120645750916060969594939189600080516020613537833981519152999a941061204b575b505050811b019055611fc2565b015160001960f88460031b161c1916905587808061203e565b82840151855593850193928701928701612015565b8360005284600020601f880160051c8101918689106120b8575b601f0160051c019083905b8281106120ac575050611f80565b6000815501839061209e565b9091508190612093565b82821660005260068452339060406000205460101c1603610a3f5785611f30565b503461032957600036600319011261032957336000526020906002825261ffff90816040600020541660005260018084526040600020549060ff60a092831c1615610a5157336000526008855260406000209260405191829587865494858152019560005287600020926000935b85600f860110612354579289610da79a96936121fa9996938b99965496868610612342575b86861061232c575b868610612318575b868610612302575b8686106122ec575b8686106122d6575b8686106122c0575b8686106122aa575b868610612294575b86861061227e575b868610612269575b50858510612253575b85851061223d575b858510612227575b858510612213575b5050505010612206575090500382613201565b604051918291826132a4565b60f01c8152018038610f9a565b86901c1686529094019301388581806121e7565b9396828491838960d01c168152019701936121df565b9396828491838960c01c168152019701936121d7565b9396828491838960b01c168152019701936121cf565b87901c821688529682019693830193386121c6565b9497838591848a60901c168152019801946121be565b9497838591848a60801c168152019801946121b6565b9497838591848a60701c168152019801946121ae565b9497838591848a60601c168152019801946121a6565b9497838591848a60501c1681520198019461219e565b9497838591848a60401c16815201980194612196565b9497838591848a60301c1681520198019461218e565b87841c831689529783019794840194612186565b9497838591848a60101c1681520198019461217e565b87831689529783019794840194612176565b96836102006010928c868c54809282821685528282891c16818601521c16604083015286818c8282606092828260301c168489015282828d608090838360401c16828d0152838360501c16858d0152838360c0991c16888d0152838360701c16908c01521c16610100890152828260901c166101208901521c16610140860152828260b01c166101608601521c16610180830152868160d01c166101a08301528681871c166101c083015260f01c6101e0820152019801940193612151565b602036600319011261032957612427613278565b6000546001600160a01b03919082163303610329571680600052600460205260ff60406000205460081c16156107b9578060005260046020526040600020600160ff825460101c160160ff8111610dfe57815462ff0000191660109190911b62ff0000161790557f4e7e2c6b7807915515b04d4cd84bf7cba8a16c67281691562abfa0def6e922fb600080a2005b602080600319360112610329576124ca613278565b6000546001600160a01b039190821633036103295761ffff91808360035416921693846000526002815283604060002054166000526001815260406000209160ff835460a81c16600014612560575050805460ff60a01b1916600160a01b1790555b1661ffff1960035416176003557f2dbe9fb88463d989acccabbb6ee06901f83672eb78e04a11ff48dd8f69a27cda600080a2005b6125e5939250856000526002825260406000208361ffff198254161790556040519161258b836131e6565b8683526001818401818152604080860183815260008881529390945290912093518454915192516001600160b01b031990921693169290921790151560a01b60ff60a01b161790151560a81b60ff60a81b16179055613487565b61252c565b3461032957604036600319011261032957612603613162565b61260b6131b7565b90336000526020906002825261ffff9081604060002054166000526001835260ff60406000205460a01c1615610a51576000546001600160a01b0390811633036126e2575b501691826000526006825260ff60406000205460081c1661031757600080516020613537833981519152916126b3606092856000526006835260036040600020019067ffffffff0000000082549160201b169067ffffffff000000001916179055565b60176040519180835282015276159bdd1a5b99c8195b990819185d194818da185b99d959604a1b6040820152a2005b82821660005260068452339060406000205460101c1603610a3f5784612650565b3461032957600036600319011261032957602061ffff60035416604051908152f35b3461032957600036600319011261032957602061ffff60075416604051908152f35b503461032957604036600319011261032957612761613162565b9061ffff61276d61328e565b92168060005260066020526040600020926040519261278b846131ca565b84549360ff851615158152602081019060ff8660081c161515825260018060a01b03809660101c1660408201526003604051976127cf896105068160018501613386565b606098898401526040516127ea8161024a8160028601613386565b6080840152015460a082019163ffffffff93848316845260c0958587840194818160201c16865260401c1690830152511561031757516103055782815116838351161015610305575142831692916103e89183168290048316841015610305575182160416116102f35733600052600460205260ff60406000205460081c16156107b95733600052600460205260ff60406000205416156107b95733600052600e6020526040600020946040519182968792602082549586815201916000526020600020946000915b8160038401106129c357506128e89554918181106107595781811061073c5781811061071f5710610711575090500385613201565b60005b84516001600160401b038083169182101561296a578061290b8389613473565b5116600052600c91826020528561ffff60036040600020015460201c161461293f575b50505061293a9061349a565b6128eb565b6129499088613473565b5116600052602052338460016040600020015416146106ac5738808061292e565b5050509181600052601060205260406000203360005260205260406000209216918260018060a01b031982541617905533907f4a76b472a0128fea6eeb0532d342f4b6d5b91f55560ea425a59ac32aaf0a32e9600080a4005b93959450916001608060049287546001600160401b038082168352808260401c16602084015281841c166040830152891c878201520195019101909492918994926128b3565b602036600319011261032957612a1d613278565b6000546001600160a01b03919082163303610329571680600052600460205260ff60406000205460081c16156107b957806000526004602052604060002060ff1981541690557f16dc8b56b1ed852b4d628030204bb4d83910ae764e85489e6a9669b462a3cb1c600080a2005b346103295760803660031901126103295760043563ffffffff811680910361032957612ab46131b7565b906044356001600160401b03811161032957612ad4903690600401613222565b916064356001600160401b03811161032957612af4903690600401613222565b9133600052600260205261ffff60406000205416600052600160205260ff60406000205460a01c1615610a515760075461ffff166000818152600660209081526040909120805462010000600160b01b0319163360101b62010000600160b01b031617815560038101805467ffffffff000000001990951667ffffffffffffffff19909516949094179490911b67ffffffff0000000016939093179091559083516001600160401b038111610d0957612bb0600183015461334c565b601f8111612e57575b506020601f8211600114612de8578192939495600092612ddd575b50508160011b916000199060031b1c19161760018201555b6002810183516001600160401b038111610d0957612c0a825461334c565b601f8111612d95575b50602094601f8211600114612d2f57948192939495600092612d24575b50508160011b916000199060031b1c19161790555b60038082015463ffffffff60401b4260401b169063ffffffff60401b19161791015533600052600860205261ffff612c81604060002092613487565b168061ffff1960075416176007558154600160401b811015610d095760018101808455811015612d0e57602092600052826000208160041c019060f082549160041b169061ffff84831b921b1916179055806000805160206135378339815191526060604051858152600c868201526b159bdd1a5b99c8105919195960a21b6040820152a2604051908152f35b634e487b7160e01b600052603260045260246000fd5b015190508580612c30565b601f198216958360005260206000209160005b888110612d7d57508360019596979810612d64575b505050811b019055612c45565b015160001960f88460031b161c19169055858080612d57565b91926020600181928685015181550194019201612d42565b826000526020600020601f830160051c81019160208410612dd3575b601f0160051c01905b818110612dc75750612c13565b60008155600101612dba565b9091508190612db1565b015190508580612bd4565b6001830160005260206000209060005b601f1984168110612e3f575060019394959683601f19811610612e26575b505050811b016001820155612bec565b015160001960f88460031b161c19169055858080612e16565b9091602060018192858b015181550193019101612df8565b600183016000526020600020601f830160051c810160208410612e97575b601f830160051c82018110612e8b575050612bb9565b60008155600101612e75565b5080612e75565b346103295760003660031901126103295760206001600160401b03600d5416604051908152f35b3461032957600036600319011261032957602061ffff60035460101c16604051908152f35b50346103295760208060031936011261032957612f05613162565b91336000526002825261ffff80604060002054166000526001835260ff60406000205460a01c1615610a51576000546001600160a01b03949085163303613076575b169283600052600683526040600020600360405191612f65836131ca565b80549360ff8516151584528684019460ff8160081c161515865260101c166040840152604051612f9c8161024a8160018601613386565b6060840152604051612fb58161024a8160028601613386565b608084015201549060a081019263ffffffff9485841685528560c084019481818a1c16865260401c1690830152511561031757516103055782815116838351161015610305575142831692916103e89183168290048316841015610305575182160416116102f35760606000805160206135378339815191529183600052600681526040600020600160ff1982541617905560176040519180835282015276566f74696e672069732073657420656e646564206e6f7760481b6040820152a2005b81811660005260068452338560406000205460101c160315612f47576040516319f33b3b60e21b8152600490fd5b3461032957602090816003193601126103295761ffff6130c2613162565b16600052600b8252604060002080548083528383019160005283600020906000915b81600384011061312257928492610da79692610fa495549184828210610ff557828210610fd957828210610fbd575010610fb0575090500382613201565b9260016004918554906001600160401b03918281168252828160401c168a83015260809281841c16604083015260c01c60608201520194019201916130e4565b6004359061ffff8216820361032957565b6020908160408183019282815285518094520193019160005b82811061319a575050505090565b83516001600160401b03168552938101939281019260010161318c565b6024359063ffffffff8216820361032957565b61010081019081106001600160401b03821117610d0957604052565b606081019081106001600160401b03821117610d0957604052565b90601f801991011681019081106001600160401b03821117610d0957604052565b81601f82011215610329578035906001600160401b038211610d095760405192613256601f8401601f191660200185613201565b8284526020838301011161032957816000926020809301838601378301015290565b600435906001600160a01b038216820361032957565b602435906001600160a01b038216820361032957565b6020908160408183019282815285518094520193019160005b8281106132cb575050505090565b835161ffff16855293810193928101926001016132bd565b9060406003198301126103295760043561ffff811681036103295791602435906001600160401b0382116103295761331d91600401613222565b90565b600435906001600160401b038216820361032957565b602435906001600160401b038216820361032957565b90600182811c9216801561337c575b602083101461336657565b634e487b7160e01b600052602260045260246000fd5b91607f169161335b565b90600092918054916133978361334c565b9182825260019384811690816000146133f957506001146133b9575b50505050565b90919394506000526020928360002092846000945b8386106133e55750505050010190388080806133b3565b8054858701830152940193859082016133ce565b9294505050602093945060ff191683830152151560051b010190388080806133b3565b919082519283825260005b848110613448575050826000602080949584010152601f8019910116010190565b602081830181015184830182015201613427565b6001600160401b038111610d095760051b60200190565b8051821015612d0e5760209160051b010190565b90600161ffff80931601918211610dfe57565b6001600160401b03809116908114610dfe5760010190565b80549190600160401b831015610d095760018301808255831015612d0e5760005260206000208260021c019160c083549160061b16916001600160401b03809116831b921b1916179055565b9060016001600160401b0380931601918211610dfe5756fe0274ac91bea45298e37aa907ca1900a23372ae98246ac8615d56ed3f3d730cb5294e9ee3aea73d37cca6195bdae37d24a75aa7e045226401e744c1bb7915ebaea26469706673582212205e5b49f9b77f0d0bc7634ce53acf7bc9f9412c4deedc375b9eb737b01a323d5564736f6c63430008130033",
  "immutableReferences": {},
  "source": "// SPDX-License-Identifier: MIT\npragma solidity 0.8.19;\nimport  \"./DaobuilderDataStorage.sol\";\ncontract Daobuilder is DaobuilderDataStorage{\n\n  \n\n    function getActiveVotings() public view returns (uint16[] memory){\n        uint16 _lastVotingId = lastVotingId;\n        uint16[] memory activeVotings = new uint16[](_lastVotingId);\n        mapping(uint16=>Voting) storage _votings = votings; \n        uint16 counter = 0;\n        for(uint16 i = 1; i<=_lastVotingId;i++){\n            if(_votings[i].activated && _votings[i].ended==false && _votings[i].start/1000 <= block.timestamp && _votings[i].end/1000 > block.timestamp){\n                activeVotings[counter] = i;\n                counter+=1;\n            }\n        }\n        return activeVotings;\n    }\n\n    function getMyVotings() public view isAdmin(msg.sender) returns (uint16[] memory){\n        uint16[] memory MyVotingList = myVotings[msg.sender];\n        return MyVotingList;\n    }\n    \n    function getVotingOptions(uint16 _votingId) public view returns (uint64[] memory){\n        uint64[] memory MyVotingList = votingOptions[_votingId];\n        return MyVotingList;\n    }\n    \n    function delegateMyVote(uint16 _votingId ,address _to) \n        external  isVotingActive(_votingId) \n                  VoterCanVote(msg.sender) \n                  NoVoteRegesteredYet(_votingId , msg.sender){\n\n        Delegations storage delegationsOnthisVoting = votingsDelegations[_votingId];\n        delegationsOnthisVoting.delegaterToDelegatee[msg.sender] = _to;\n        emit VotingRightDelegated(_votingId , msg.sender , _to);\n    }\n\n    function revokeDelegation(uint16 _votingId ,address _to)\n        external  isVotingActive(_votingId) \n                  VoterCanVote(msg.sender)\n                  NoVoteRegesteredYet(_votingId , msg.sender){\n        Delegations storage delegationsOnthisVoting = votingsDelegations[_votingId];\n        delete delegationsOnthisVoting.delegaterToDelegatee[msg.sender];\n        emit VotingRightUnDelegated(_votingId , msg.sender , _to);\n    }\n\n    function getMyDelegationOnVoting(uint16 _votingId) public view\n                    isVotingActive(_votingId) returns (address addrss){\n            Delegations storage thisVotingDelegations = votingsDelegations[_votingId];\n            return thisVotingDelegations.delegaterToDelegatee[msg.sender];\n    }\n\n\n    function vote(uint16 _votingId , uint64 _selectedOption , address _onbehalfOf) \n        external isVotingActive(_votingId)\n                 NoVoteRegesteredYet(_votingId,_onbehalfOf)\n                 VoterCanVote(msg.sender)\n                 CanVoteBehalfOf(_votingId ,msg.sender , _onbehalfOf)\n                 IsOptionValid(_votingId , _selectedOption){\n        uint64 _lastVoteId = lastVoteId;\n        // lastVoteId+=1;\n       \n        votes[_lastVoteId] = Vote(msg.sender,_onbehalfOf,options[_selectedOption].option,uint32(block.timestamp),_votingId,voters[_onbehalfOf].votingPower);\n        uint64[] storage userVotes = votersVotes[_onbehalfOf];\n        userVotes.push(_lastVoteId);\n        uint64[] storage votingVotes = votingsVotes[_votingId];\n        votingVotes.push(_lastVoteId);\n        lastVoteId =_lastVoteId+1;\n        emit VoteRegistered(_votingId , _selectedOption , _onbehalfOf);\n    } \n\n\n    function getVotingsVotes(uint16 _votingId) public view returns (uint64[] memory){\n        uint64[] memory Votingvotes = votingsVotes[_votingId];\n        return Votingvotes;\n    }\n    function getVotersVotes() public view returns (uint64[] memory){\n        uint64[] memory MyVotes = votersVotes[msg.sender];\n        return MyVotes;\n    }\n\n}",
  "sourcePath": "/home/aca/smartcontracts/daobuilder/contracts/Daobuilder.sol",
  "compiler": {
    "name": "solc",
    "version": "0.8.19+commit.7dd6d404.Emscripten.clang"
  },
  "schemaVersion": "3.4.16",
  "updatedAt": "2025-04-19T17:40:56.639Z",
  "devdoc": {
    "kind": "dev",
    "methods": {},
    "version": 1
  },
  "userdoc": {
    "errors": {
      "VoterNotExists()": [
        {
          "notice": "Events section "
        }
      ]
    },
    "events": {
      "NewAdminAdded(address)": {
        "notice": "Events section "
      }
    },
    "kind": "user",
    "methods": {
      "addVoter(address)": {
        "notice": "Manage Voters"
      },
      "addVoting(uint32,uint32,string,string)": {
        "notice": "Manage Votings"
      },
      "addVotingAdmin(address)": {
        "notice": "Manage Voting Admins"
      },
      "addVotingOption(uint16,string)": {
        "notice": "Manage Voting Options"
      }
    },
    "version": 1
  }
}