{
  "contractName": "Ownable",
  "abi": [
    {
      "inputs": [],
      "stateMutability": "payable",
      "type": "constructor"
    },
    {
      "anonymous": false,
      "inputs": [
        {
          "indexed": true,
          "internalType": "address",
          "name": "previousOwner",
          "type": "address"
        },
        {
          "indexed": true,
          "internalType": "address",
          "name": "newOwner",
          "type": "address"
        }
      ],
      "name": "OwnershipTransferred",
      "type": "event"
    },
    {
      "inputs": [],
      "name": "isOwner",
      "outputs": [
        {
          "internalType": "bool",
          "name": "",
          "type": "bool"
        }
      ],
      "stateMutability": "view",
      "type": "function"
    },
    {
      "inputs": [
        {
          "internalType": "address",
          "name": "to",
          "type": "address"
        }
      ],
      "name": "transferOwnership",
      "outputs": [],
      "stateMutability": "payable",
      "type": "function"
    }
  ],
  "bytecode": "0x60806040819052600080546001600160a01b031916339081178255907f8be0079c531659141344cd1fd0a4f28419497f9722a3daafe3b4186f6b6457e08180a3610103908161004c8239f3fe6080806040526004361015601257600080fd5b600090813560e01c9081638f32d59b1460a5575063f2fde38b14603457600080fd5b602036600319011260a2576004356001600160a01b0381811691829003609e578254908116803303609a578215609a5782907f8be0079c531659141344cd1fd0a4f28419497f9722a3daafe3b4186f6b6457e08580a36001600160a01b03191617815580f35b8380fd5b8280fd5b80fd5b90503460c9578160031936011260c95790546001600160a01b031633148152602090f35b5080fdfea26469706673582212205ae5094f35abe2f157959b25f0caae14bcfb181a9a1e6c8b9d93fcc0e2a9976764736f6c63430008130033",
  "immutableReferences": {},
  "source": "// SPDX-License-Identifier: MIT\npragma solidity 0.8.19;\n\ncontract Ownable {\n    address private _owner;\n\n    event OwnershipTransferred(\n        address indexed previousOwner,\n        address indexed newOwner\n    );\n    constructor() payable{\n        _owner = msg.sender;\n        emit OwnershipTransferred(address(0), _owner);\n    }\n\n    modifier OnlyOwner(){\n        require(isOwner());\n        _;\n    }\n\n    function isOwner() public view returns (bool){\n        return msg.sender==_owner;\n    }\n\n    function transferOwnership(address to) public payable OnlyOwner {\n        _transferOwnership(to);\n    } \n    function _transferOwnership(address to) internal {\n        require(to!=address(0));\n        emit OwnershipTransferred(_owner, to);\n        _owner = to;\n    }\n}",
  "sourcePath": "/home/aca/smartcontracts/daobuilder/contracts/Ownable.sol",
  "compiler": {
    "name": "solc",
    "version": "0.8.19+commit.7dd6d404.Emscripten.clang"
  },
  "schemaVersion": "3.4.16",
  "updatedAt": "2025-04-19T17:40:56.665Z",
  "devdoc": {
    "kind": "dev",
    "methods": {},
    "version": 1
  },
  "userdoc": {
    "kind": "user",
    "methods": {},
    "version": 1
  }
}